{
  "_format": "hh-sol-artifact-1",
  "contractName": "MockSanctionsList",
  "sourceName": "contracts/MockSanctionsList.sol",
  "abi": [
    {
      "inputs": [
        {
          "internalType": "address",
          "name": "",
          "type": "address"
        }
      ],
      "name": "isSanctioned",
      "outputs": [
        {
          "internalType": "bool",
          "name": "",
          "type": "bool"
        }
      ],
      "stateMutability": "pure",
      "type": "function"
    }
  ],
  "bytecode": "0x608060405234801561001057600080fd5b5060b68061001f6000396000f3fe6080604052348015600f57600080fd5b506004361060285760003560e01c8063df592f7d14602d575b600080fd5b603e60383660046052565b50600090565b604051901515815260200160405180910390f35b600060208284031215606357600080fd5b81356001600160a01b0381168114607957600080fd5b939250505056fea2646970667358221220c51ab4e9297afa22bca3bfdfd7dbe96f10987fb19f2561a90c07c63320aaa77264736f6c63430008160033",
  "linkReferences": {},
  "deployedLinkReferences": {}
}