{
  "_format": "hh-sol-artifact-1",
  "contractName": "ArbAirdrop",
  "sourceName": "contracts/ArbAirdrop.sol",
  "abi": [
    {
      "inputs": [],
      "stateMutability": "nonpayable",
      "type": "constructor"
    },
    {
      "anonymous": false,
      "inputs": [
        {
          "indexed": true,
          "internalType": "address",
          "name": "account",
          "type": "address"
        },
        {
          "indexed": false,
          "internalType": "uint32",
          "name": "week",
          "type": "uint32"
        },
        {
          "indexed": false,
          "internalType": "uint256",
          "name": "amount",
          "type": "uint256"
        }
      ],
      "name": "ClaimArb",
      "type": "event"
    },
    {
      "anonymous": false,
      "inputs": [
        {
          "indexed": false,
          "internalType": "uint8",
          "name": "version",
          "type": "uint8"
        }
      ],
      "name": "Initialized",
      "type": "event"
    },
    {
      "anonymous": false,
      "inputs": [
        {
          "indexed": true,
          "internalType": "address",
          "name": "previousOwner",
          "type": "address"
        },
        {
          "indexed": true,
          "internalType": "address",
          "name": "newOwner",
          "type": "address"
        }
      ],
      "name": "OwnershipTransferred",
      "type": "event"
    },
    {
      "inputs": [
        {
          "components": [
            {
              "internalType": "uint32",
              "name": "week",
              "type": "uint32"
            },
            {
              "internalType": "uint256",
              "name": "totalAmount",
              "type": "uint256"
            },
            {
              "internalType": "bytes32[]",
              "name": "proof",
              "type": "bytes32[]"
            }
          ],
          "internalType": "struct IArbAirdrop.ClaimProof[]",
          "name": "claimProofs",
          "type": "tuple[]"
        }
      ],
      "name": "claim",
      "outputs": [],
      "stateMutability": "nonpayable",
      "type": "function"
    },
    {
      "inputs": [
        {
          "internalType": "address",
          "name": "account",
          "type": "address"
        }
      ],
      "name": "getClaimed",
      "outputs": [
        {
          "internalType": "uint256[]",
          "name": "",
          "type": "uint256[]"
        }
      ],
      "stateMutability": "view",
      "type": "function"
    },
    {
      "inputs": [
        {
          "internalType": "address",
          "name": "_token",
          "type": "address"
        },
        {
          "internalType": "address",
          "name": "_sanctions",
          "type": "address"
        }
      ],
      "name": "initialize",
      "outputs": [],
      "stateMutability": "nonpayable",
      "type": "function"
    },
    {
      "inputs": [],
      "name": "owner",
      "outputs": [
        {
          "internalType": "address",
          "name": "",
          "type": "address"
        }
      ],
      "stateMutability": "view",
      "type": "function"
    },
    {
      "inputs": [
        {
          "internalType": "uint32",
          "name": "week",
          "type": "uint32"
        },
        {
          "internalType": "bytes32",
          "name": "merkleRoot",
          "type": "bytes32"
        }
      ],
      "name": "registerMerkleRoot",
      "outputs": [],
      "stateMutability": "nonpayable",
      "type": "function"
    },
    {
      "inputs": [],
      "name": "renounceOwnership",
      "outputs": [],
      "stateMutability": "nonpayable",
      "type": "function"
    },
    {
      "inputs": [
        {
          "internalType": "address",
          "name": "newOwner",
          "type": "address"
        }
      ],
      "name": "transferOwnership",
      "outputs": [],
      "stateMutability": "nonpayable",
      "type": "function"
    }
  ],
  "bytecode": "0x608060405234801561001057600080fd5b5061001961001e565b6100de565b600054610100900460ff161561008a5760405162461bcd60e51b815260206004820152602760248201527f496e697469616c697a61626c653a20636f6e747261637420697320696e697469604482015266616c697a696e6760c81b606482015260840160405180910390fd5b60005460ff90811610156100dc576000805460ff191660ff9081179091556040519081527f7f26b83ff96e1f2b6a682f133852f6798a09c465da95921460cefb38474024989060200160405180910390a15b565b611031806100ed6000396000f3fe608060405234801561001057600080fd5b506004361061007d5760003560e01c8063715018a61161005b578063715018a6146100bd5780638da5cb5b146100c5578063eb46260e146100e5578063f2fde38b1461010557600080fd5b8063485cc955146100825780635435ed641461009757806366678723146100aa575b600080fd5b610095610090366004610cd2565b610118565b005b6100956100a5366004610d05565b610260565b6100956100b8366004610d8e565b610329565b6100956103f0565b6033546040516001600160a01b0390911681526020015b60405180910390f35b6100f86100f3366004610db8565b610404565b6040516100dc9190610dd3565b610095610113366004610db8565b6104ee565b600054610100900460ff16158080156101385750600054600160ff909116105b806101525750303b158015610152575060005460ff166001145b6101ba5760405162461bcd60e51b815260206004820152602e60248201527f496e697469616c697a61626c653a20636f6e747261637420697320616c72656160448201526d191e481a5b9a5d1a585b1a5e995960921b60648201526084015b60405180910390fd5b6000805460ff1916600117905580156101dd576000805461ff0019166101001790555b6101e5610567565b606580546001600160a01b038086166001600160a01b0319928316179092556066805492851692909116919091179055801561025b576000805461ff0019169055604051600181527f7f26b83ff96e1f2b6a682f133852f6798a09c465da95921460cefb38474024989060200160405180910390a15b505050565b60005b63ffffffff811682111561025b5761031783838363ffffffff1681811061028c5761028c610e17565b905060200281019061029e9190610e2d565b6102ac906020810190610e4d565b84848463ffffffff168181106102c4576102c4610e17565b90506020028101906102d69190610e2d565b6020013585858563ffffffff168181106102f2576102f2610e17565b90506020028101906103049190610e2d565b610312906040810190610e68565b610596565b8061032181610ecf565b915050610263565b610331610601565b6001606660148282829054906101000a900463ffffffff166103539190610ef2565b92506101000a81548163ffffffff021916908363ffffffff160217905550606660149054906101000a900463ffffffff1663ffffffff168263ffffffff16146103d75760405162461bcd60e51b815260206004820152601660248201527524b73b30b634b2103bb2b2b590383937bb34b232b21760511b60448201526064016101b1565b63ffffffff909116600090815260676020526040902055565b6103f8610601565b610402600061065b565b565b60665460609060009061042590600160a01b900463ffffffff166001610ef2565b63ffffffff1667ffffffffffffffff81111561044357610443610f0f565b60405190808252806020026020018201604052801561046c578160200160208202803683370190505b50905060015b60665463ffffffff600160a01b9091048116908216116104e75763ffffffff811660008181526068602090815260408083206001600160a01b038916845290915290205483519091849181106104ca576104ca610e17565b6020908102919091010152806104df81610ecf565b915050610472565b5092915050565b6104f6610601565b6001600160a01b03811661055b5760405162461bcd60e51b815260206004820152602660248201527f4f776e61626c653a206e6577206f776e657220697320746865207a65726f206160448201526564647265737360d01b60648201526084016101b1565b6105648161065b565b50565b600054610100900460ff1661058e5760405162461bcd60e51b81526004016101b190610f25565b6104026106ad565b6105a384338585856106dd565b6065546105ba906001600160a01b03163385610977565b6040805163ffffffff861681526020810185905233917fac122fb05b2782155986cbf83b36f305871669f88effedfc9388e02f34432b8b910160405180910390a250505050565b6033546001600160a01b031633146104025760405162461bcd60e51b815260206004820181905260248201527f4f776e61626c653a2063616c6c6572206973206e6f7420746865206f776e657260448201526064016101b1565b603380546001600160a01b038381166001600160a01b0319831681179093556040519116919082907f8be0079c531659141344cd1fd0a4f28419497f9722a3daafe3b4186f6b6457e090600090a35050565b600054610100900460ff166106d45760405162461bcd60e51b81526004016101b190610f25565b6104023361065b565b63ffffffff851660009081526068602090815260408083206001600160a01b0388168452909152902054156107475760405162461bcd60e51b815260206004820152601060248201526f20b63932b0b23c9031b630b4b6b2b21760811b60448201526064016101b1565b63ffffffff85166000908152606760205260409020546107a95760405162461bcd60e51b815260206004820152601c60248201527f5765656b206861736e2774206265656e20726567697374657265642e0000000060448201526064016101b1565b60665460405163df592f7d60e01b81526001600160a01b0386811660048301529091169063df592f7d90602401602060405180830381865afa1580156107f3573d6000803e3d6000fd5b505050506040513d601f19601f820116820180604052508101906108179190610f70565b1561085d5760405162461bcd60e51b815260206004820152601660248201527530b2323932b9b99034b99039b0b731ba34b7b732b21760511b60448201526064016101b1565b604080516001600160a01b038616602082015290810184905260009060600160408051601f19818403018152828252805160209182012090830152016040516020818303038152906040528051906020012090506000610904848480806020026020016040519081016040528093929190818152602001838360200280828437600092018290525063ffffffff8d1681526067602052604090205492508691506109c99050565b9050806109445760405162461bcd60e51b815260206004820152600e60248201526d24b73b30b634b210383937b7b31760911b60448201526064016101b1565b5050505063ffffffff9290921660009081526068602090815260408083206001600160a01b039490941683529290522055565b604080516001600160a01b038416602482015260448082018490528251808303909101815260649091019091526020810180516001600160e01b031663a9059cbb60e01b17905261025b9084906109df565b6000826109d68584610ab1565b14949350505050565b6000610a34826040518060400160405280602081526020017f5361666545524332303a206c6f772d6c6576656c2063616c6c206661696c6564815250856001600160a01b0316610af49092919063ffffffff16565b80519091501561025b5780806020019051810190610a529190610f70565b61025b5760405162461bcd60e51b815260206004820152602a60248201527f5361666545524332303a204552433230206f7065726174696f6e20646964206e6044820152691bdd081cdd58d8d9595960b21b60648201526084016101b1565b600081815b8451811015610aec57610ae282868381518110610ad557610ad5610e17565b6020026020010151610b0b565b9150600101610ab6565b509392505050565b6060610b038484600085610b3d565b949350505050565b6000818310610b27576000828152602084905260409020610b36565b60008381526020839052604090205b9392505050565b606082471015610b9e5760405162461bcd60e51b815260206004820152602660248201527f416464726573733a20696e73756666696369656e742062616c616e636520666f6044820152651c8818d85b1b60d21b60648201526084016101b1565b600080866001600160a01b03168587604051610bba9190610fb6565b60006040518083038185875af1925050503d8060008114610bf7576040519150601f19603f3d011682016040523d82523d6000602084013e610bfc565b606091505b5091509150610c0d87838387610c18565b979650505050505050565b60608315610c87578251600003610c80576001600160a01b0385163b610c805760405162461bcd60e51b815260206004820152601d60248201527f416464726573733a2063616c6c20746f206e6f6e2d636f6e747261637400000060448201526064016101b1565b5081610b03565b610b038383815115610c9c5781518083602001fd5b8060405162461bcd60e51b81526004016101b19190610fc8565b80356001600160a01b0381168114610ccd57600080fd5b919050565b60008060408385031215610ce557600080fd5b610cee83610cb6565b9150610cfc60208401610cb6565b90509250929050565b60008060208385031215610d1857600080fd5b823567ffffffffffffffff80821115610d3057600080fd5b818501915085601f830112610d4457600080fd5b813581811115610d5357600080fd5b8660208260051b8501011115610d6857600080fd5b60209290920196919550909350505050565b803563ffffffff81168114610ccd57600080fd5b60008060408385031215610da157600080fd5b610daa83610d7a565b946020939093013593505050565b600060208284031215610dca57600080fd5b610b3682610cb6565b6020808252825182820181905260009190848201906040850190845b81811015610e0b57835183529284019291840191600101610def565b50909695505050505050565b634e487b7160e01b600052603260045260246000fd5b60008235605e19833603018112610e4357600080fd5b9190910192915050565b600060208284031215610e5f57600080fd5b610b3682610d7a565b6000808335601e19843603018112610e7f57600080fd5b83018035915067ffffffffffffffff821115610e9a57600080fd5b6020019150600581901b3603821315610eb257600080fd5b9250929050565b634e487b7160e01b600052601160045260246000fd5b600063ffffffff808316818103610ee857610ee8610eb9565b6001019392505050565b63ffffffff8181168382160190808211156104e7576104e7610eb9565b634e487b7160e01b600052604160045260246000fd5b6020808252602b908201527f496e697469616c697a61626c653a20636f6e7472616374206973206e6f74206960408201526a6e697469616c697a696e6760a81b606082015260800190565b600060208284031215610f8257600080fd5b81518015158114610b3657600080fd5b60005b83811015610fad578181015183820152602001610f95565b50506000910152565b60008251610e43818460208701610f92565b6020815260008251806020840152610fe7816040850160208701610f92565b601f01601f1916919091016040019291505056fea2646970667358221220476b7efcc75ea7f4ade9c0f8c861c058f585a021032f2ffdb229a7ea28c8398664736f6c63430008160033",
  "linkReferences": {},
  "deployedLinkReferences": {}
}