{
  "_format": "hh-sol-artifact-1",
  "contractName": "ClearinghouseLiq",
  "sourceName": "contracts/ClearinghouseLiq.sol",
  "abi": [
    {
      "inputs": [
        {
          "internalType": "int256",
          "name": "x",
          "type": "int256"
        }
      ],
      "name": "PRBMathSD59x18__SqrtNegativeInput",
      "type": "error"
    },
    {
      "inputs": [
        {
          "internalType": "int256",
          "name": "x",
          "type": "int256"
        }
      ],
      "name": "PRBMathSD59x18__SqrtOverflow",
      "type": "error"
    },
    {
      "anonymous": false,
      "inputs": [
        {
          "indexed": false,
          "internalType": "address",
          "name": "endpoint",
          "type": "address"
        },
        {
          "indexed": false,
          "internalType": "address",
          "name": "quote",
          "type": "address"
        },
        {
          "indexed": false,
          "internalType": "address",
          "name": "fees",
          "type": "address"
        }
      ],
      "name": "ClearinghouseInitialized",
      "type": "event"
    },
    {
      "anonymous": false,
      "inputs": [
        {
          "indexed": false,
          "internalType": "uint8",
          "name": "version",
          "type": "uint8"
        }
      ],
      "name": "Initialized",
      "type": "event"
    },
    {
      "anonymous": false,
      "inputs": [
        {
          "indexed": true,
          "internalType": "bytes32",
          "name": "liquidatorSubaccount",
          "type": "bytes32"
        },
        {
          "indexed": true,
          "internalType": "bytes32",
          "name": "liquidateeSubaccount",
          "type": "bytes32"
        },
        {
          "indexed": true,
          "internalType": "uint8",
          "name": "mode",
          "type": "uint8"
        },
        {
          "indexed": false,
          "internalType": "uint32",
          "name": "healthGroup",
          "type": "uint32"
        },
        {
          "indexed": false,
          "internalType": "int128",
          "name": "amount",
          "type": "int128"
        },
        {
          "indexed": false,
          "internalType": "int128",
          "name": "amountQuote",
          "type": "int128"
        },
        {
          "indexed": false,
          "internalType": "int128",
          "name": "insuranceCover",
          "type": "int128"
        }
      ],
      "name": "Liquidation",
      "type": "event"
    },
    {
      "anonymous": false,
      "inputs": [
        {
          "indexed": false,
          "internalType": "int128",
          "name": "amount",
          "type": "int128"
        },
        {
          "indexed": true,
          "internalType": "bytes32",
          "name": "subaccount",
          "type": "bytes32"
        },
        {
          "indexed": false,
          "internalType": "uint32",
          "name": "productId",
          "type": "uint32"
        }
      ],
      "name": "ModifyCollateral",
      "type": "event"
    },
    {
      "anonymous": false,
      "inputs": [
        {
          "indexed": true,
          "internalType": "address",
          "name": "previousOwner",
          "type": "address"
        },
        {
          "indexed": true,
          "internalType": "address",
          "name": "newOwner",
          "type": "address"
        }
      ],
      "name": "OwnershipTransferred",
      "type": "event"
    },
    {
      "inputs": [],
      "name": "getEndpoint",
      "outputs": [
        {
          "internalType": "address",
          "name": "",
          "type": "address"
        }
      ],
      "stateMutability": "view",
      "type": "function"
    },
    {
      "inputs": [],
      "name": "getMaxHealthGroup",
      "outputs": [
        {
          "internalType": "uint32",
          "name": "",
          "type": "uint32"
        }
      ],
      "stateMutability": "view",
      "type": "function"
    },
    {
      "inputs": [
        {
          "internalType": "uint32",
          "name": "productId",
          "type": "uint32"
        }
      ],
      "name": "getOraclePriceX18",
      "outputs": [
        {
          "internalType": "int128",
          "name": "",
          "type": "int128"
        }
      ],
      "stateMutability": "view",
      "type": "function"
    },
    {
      "inputs": [
        {
          "internalType": "uint32",
          "name": "healthGroup",
          "type": "uint32"
        }
      ],
      "name": "getOraclePricesX18",
      "outputs": [
        {
          "components": [
            {
              "internalType": "int128",
              "name": "spotPriceX18",
              "type": "int128"
            },
            {
              "internalType": "int128",
              "name": "perpPriceX18",
              "type": "int128"
            }
          ],
          "internalType": "struct IEndpoint.Prices",
          "name": "",
          "type": "tuple"
        }
      ],
      "stateMutability": "view",
      "type": "function"
    },
    {
      "inputs": [
        {
          "internalType": "uint32",
          "name": "productId",
          "type": "uint32"
        }
      ],
      "name": "getRisk",
      "outputs": [
        {
          "components": [
            {
              "internalType": "int128",
              "name": "longWeightInitialX18",
              "type": "int128"
            },
            {
              "internalType": "int128",
              "name": "shortWeightInitialX18",
              "type": "int128"
            },
            {
              "internalType": "int128",
              "name": "longWeightMaintenanceX18",
              "type": "int128"
            },
            {
              "internalType": "int128",
              "name": "shortWeightMaintenanceX18",
              "type": "int128"
            },
            {
              "internalType": "int128",
              "name": "largePositionPenaltyX18",
              "type": "int128"
            }
          ],
          "internalType": "struct RiskHelper.Risk",
          "name": "",
          "type": "tuple"
        }
      ],
      "stateMutability": "view",
      "type": "function"
    },
    {
      "inputs": [],
      "name": "getVersion",
      "outputs": [
        {
          "internalType": "uint64",
          "name": "",
          "type": "uint64"
        }
      ],
      "stateMutability": "pure",
      "type": "function"
    },
    {
      "inputs": [],
      "name": "insurance",
      "outputs": [
        {
          "internalType": "int128",
          "name": "",
          "type": "int128"
        }
      ],
      "stateMutability": "view",
      "type": "function"
    },
    {
      "inputs": [
        {
          "internalType": "bytes32",
          "name": "subaccount",
          "type": "bytes32"
        }
      ],
      "name": "isAboveInitial",
      "outputs": [
        {
          "internalType": "bool",
          "name": "",
          "type": "bool"
        }
      ],
      "stateMutability": "view",
      "type": "function"
    },
    {
      "inputs": [
        {
          "internalType": "bytes32",
          "name": "subaccount",
          "type": "bytes32"
        }
      ],
      "name": "isUnderInitial",
      "outputs": [
        {
          "internalType": "bool",
          "name": "",
          "type": "bool"
        }
      ],
      "stateMutability": "view",
      "type": "function"
    },
    {
      "inputs": [
        {
          "components": [
            {
              "internalType": "bytes32",
              "name": "sender",
              "type": "bytes32"
            },
            {
              "internalType": "bytes32",
              "name": "liquidatee",
              "type": "bytes32"
            },
            {
              "internalType": "uint8",
              "name": "mode",
              "type": "uint8"
            },
            {
              "internalType": "uint32",
              "name": "healthGroup",
              "type": "uint32"
            },
            {
              "internalType": "int128",
              "name": "amount",
              "type": "int128"
            },
            {
              "internalType": "uint64",
              "name": "nonce",
              "type": "uint64"
            }
          ],
          "internalType": "struct IEndpoint.LiquidateSubaccount",
          "name": "txn",
          "type": "tuple"
        }
      ],
      "name": "liquidateSubaccountImpl",
      "outputs": [],
      "stateMutability": "nonpayable",
      "type": "function"
    },
    {
      "inputs": [],
      "name": "owner",
      "outputs": [
        {
          "internalType": "address",
          "name": "",
          "type": "address"
        }
      ],
      "stateMutability": "view",
      "type": "function"
    },
    {
      "inputs": [],
      "name": "renounceOwnership",
      "outputs": [],
      "stateMutability": "nonpayable",
      "type": "function"
    },
    {
      "inputs": [
        {
          "internalType": "address",
          "name": "_endpoint",
          "type": "address"
        }
      ],
      "name": "setEndpoint",
      "outputs": [],
      "stateMutability": "nonpayable",
      "type": "function"
    },
    {
      "inputs": [
        {
          "internalType": "address",
          "name": "newOwner",
          "type": "address"
        }
      ],
      "name": "transferOwnership",
      "outputs": [],
      "stateMutability": "nonpayable",
      "type": "function"
    }
  ],
  "bytecode": "0x608060405234801561001057600080fd5b50613895806100206000396000f3fe608060405234801561001057600080fd5b50600436106100ea5760003560e01c8063b5fc62051161008c578063ecd9cba811610066578063ecd9cba8146101f4578063f2fde38b14610258578063f8f0722d1461026b578063f8fac0371461027e57600080fd5b8063b5fc620514610199578063d3d660cb146101ac578063dbbb4155146101e157600080fd5b8063715018a6116100c8578063715018a61461014c57806389cf3204146101565780638da5cb5b14610163578063aed8e9671461018857600080fd5b80630d8e6e2c146100ef5780632f8f1fb01461010357806356bc3c3814610129575b600080fd5b604051601a81526020015b60405180910390f35b6101166101113660046131d0565b6102a3565b604051600f9190910b81526020016100fa565b61013c6101373660046131ed565b610332565b60405190151581526020016100fa565b61015461034a565b005b606f5461011690600f0b81565b6033546001600160a01b03165b6040516001600160a01b0390911681526020016100fa565b6065546001600160a01b0316610170565b61013c6101a73660046131ed565b61035e565b6101bf6101ba3660046131d0565b610376565b604080518251600f90810b8252602093840151900b92810192909252016100fa565b6101546101ef36600461321b565b6103f9565b6102076102023660046131d0565b610423565b6040516100fa9190600060a0820190508251600f0b82526020830151600f0b60208301526040830151600f0b60408301526060830151600f0b60608301526080830151600f0b608083015292915050565b61015461026636600461321b565b610558565b610154610279366004613238565b6105d6565b606554600160a01b900463ffffffff1660405163ffffffff90911681526020016100fa565b600063ffffffff82166102c0576102ba6001611c56565b92915050565b606554604051631b47234360e11b815263ffffffff841660048201526001600160a01b039091169063368e468690602401602060405180830381865afa15801561030e573d6000803e3d6000fd5b505050506040513d601f19601f820116820180604052508101906102ba919061325f565b600080610340836000611cc6565b600f0b1392915050565b610352611d41565b61035c6000611d9b565b565b60008061036c836000611cc6565b600f0b1292915050565b6040805180820182526000808252602082015260655491516357d2aef760e11b815263ffffffff8416600482015290916001600160a01b03169063afa55dee906024016040805180830381865afa1580156103d5573d6000803e3d6000fd5b505050506040513d601f19601f820116820180604052508101906102ba9190613305565b610401611d41565b606580546001600160a01b0319166001600160a01b0392909216919091179055565b6040805160a08101825260008082526020820181905291810182905260608101829052608081019190915263ffffffff8216600090815260676020908152604091829020825160a080820185529154600381810b83526401000000008204810b94830194909452600160401b8104840b82860152600160601b8104840b6060830152600160801b9004830b608082015283519182019093528251909182916104d0910b633b9aca00613337565b600f0b8152602001826020015160030b633b9aca006104ef9190613337565b600f0b8152602001826040015160030b633b9aca0061050e9190613337565b600f0b8152602001826060015160030b633b9aca0061052d9190613337565b600f0b8152602001826080015160030b633b9aca0061054c9190613337565b600f0b90529392505050565b610560611d41565b6001600160a01b0381166105ca5760405162461bcd60e51b815260206004820152602660248201527f4f776e61626c653a206e6577206f776e657220697320746865207a65726f206160448201526564647265737360d01b60648201526084015b60405180910390fd5b6105d381611d9b565b50565b806020013581600001351415604051806040016040528060018152602001605560f81b8152509061061a5760405162461bcd60e51b81526004016105c19190613357565b506106288160200135611ded565b60405180604001604052806002815260200161139360f21b815250906106615760405162461bcd60e51b81526004016105c19190613357565b50606d60209081527fda90043ba5b4096ba14704bc227ab0d3167da15b887e62ab2e76e37daa71135654600160009081527fbb98d58f7e9fdb81be27aecd01537329fa27413effec04afc2f01e87a038c2ba54606b5460408051628d223d60e11b8152878701356004820152873560248201526001600160a01b0392831660448201529051948216959190921693859363011a447a9360648082019493929183900301908290875af115801561071b573d6000803e3d6000fd5b505050506040513d601f19601f8201168201806040525081019061073f919061325f565b606f8054600090610754908490600f0b6133bc565b82546001600160801b039182166101009390930a928302919092021990911617905550606b54604051628d223d60e11b815260208501356004820152843560248201526001600160a01b0391821660448201529082169063011a447a906064016020604051808303816000875af11580156107d3573d6000803e3d6000fd5b505050506040513d601f19601f820116820180604052508101906107f7919061325f565b606f805460009061080c908490600f0b6133bc565b92506101000a8154816001600160801b030219169083600f0b6001600160801b03160217905550600061084484602001356000611cc6565b600f0b1261085157505050565b63ffffffff61086660808501606086016131d0565b63ffffffff160361088757610882828285356020870135611dfb565b505050565b600061089960a08501608086016133e9565b9050600060026108af6060870160408801613406565b60ff16141580156108c35750600082600f0b125b905060608115610a415760005b60655463ffffffff600160a01b909104811690821611610a3f5760006108fc8787848b60200135612373565b90508060200151600f0b600014801561091d575060008160800151600f0b13155b8015610931575060008160a00151600f0b13155b6040518060400160405280600381526020016213931360ea1b8152509061096b5760405162461bcd60e51b81526004016105c19190613357565b5060008160a00151600f0b60000361098857506040810151610a06565b8151604051631769225f60e01b815263ffffffff909116600482015260208a013560248201526001600160a01b03881690631769225f90604401602060405180830381865afa1580156109df573d6000803e3d6000fd5b505050506040513d601f19601f82011682018060405250810190610a03919061325f565b90505b600081600f0b1315610a2c57610a2c88888b600001358c602001358660000151866125d9565b505080610a3890613429565b90506108d0565b505b6000610a628686610a5860808b0160608c016131d0565b8a60200135612373565b6040805160e081018252600080825260208201819052918101829052606081018290526080810182905260a0810182905260c08101919091529091508151610aa99061288c565b6001600160a01b031663f1be16796040518163ffffffff1660e01b815260040160c060405180830381865afa158015610ae6573d6000803e3d6000fd5b505050506040513d601f19601f82011682018060405250810190610b0a919061344c565b60200151600f90810b60c083015260a0830151900b15610b8a5760008160c001518360a00151610b3a919061351b565b9050808360a001818151610b4e919061353d565b600f0b905250608083018051829190610b689083906133bc565b600f0b905250602083018051829190610b8290839061353d565b600f0b905250505b6001610b9c60608a0160408b01613406565b60ff1614610bf25760c0810151610bb3908661351b565b6040805180820190915260048152634e494c4160e01b602082015290600f0b15610bf05760405162461bcd60e51b81526004016105c19190613357565b505b6000610c0460608a0160408b01613406565b60ff16036113cb57610c1a8260a001518661290f565b606082015163ffffffff1615801590610c395750815163ffffffff1615155b610c4257600080fd5b610c746040518060400160405280846060015163ffffffff168152602001846000015163ffffffff16815250866129f6565b600f0b81526060820151610c87906102a3565b600f0b60808201528315610de75760405163e334be3360e01b815260006004820181905260208a01356024830152906001600160a01b0389169063e334be339060440160c060405180830381865afa158015610ce7573d6000803e3d6000fd5b505050506040513d601f19601f82011682018060405250810190610d0b9190613603565b8351606f54825192945060009350610d5992610d4f92610d3d929091610d3491600f0b906133bc565b600f0b90612a89565b610d489060016133bc565b6000612b55565b8460c00151612b71565b905086610d6e81610d6984613638565b612b55565b610d78919061353d565b600f0b60208401819052610d8c90886133bc565b8351909750610d9e90600f0b88612c15565b600f90810b60408501819052606f548451610dd7939190910b91610dd291600091610dc890613638565b610d69919061353d565b612c30565b600f0b606084015250610dff9050565b8051610df690600f0b86612c15565b600f0b60408201525b606b5460608301516040516338dd821d60e11b81528a35600482015263ffffffff9091166024820152610ea0918791610e97916001600160a01b0316906371bb043a90604401602060405180830381865afa158015610e62573d6000803e3d6000fd5b505050506040513d601f19601f82011682018060405250810190610e86919061325f565b84516080860151610e97919061353d565b600f0b90612c15565b600f0b60a08281019190915260408051600480825292810190915290816020015b604080516080810182526000808252602080830182905292820181905260608201528252600019909201910181610ec15790505092506040518060800160405280836060015163ffffffff1681526020018960200135815260200186610f2690613638565b600f0b81526020018260400151600f0b81525083600081518110610f4c57610f4c61365e565b60200260200101819052506040518060800160405280836060015163ffffffff1681526020018960000135815260200186600f0b81526020018260400151610f9390613638565b600f0b81525083600181518110610fac57610fac61365e565b60200260200101819052506040518060800160405280600063ffffffff1681526020018960200135815260200182606001518360400151610fed91906133bc565b600f0b81526020016000600f0b815250836002815181106110105761101061365e565b60200260200101819052506040518060800160405280600063ffffffff16815260200189600001358152602001826040015161104b90613638565b600f0b81526020016000600f0b8152508360038151811061106e5761106e61365e565b60209081029190910101526060810151606f8054600090611093908490600f0b61353d565b92506101000a8154816001600160801b030219169083600f0b6001600160801b03160217905550866001600160a01b0316636c9a2ce3846040518263ffffffff1660e01b81526004016110e69190613674565b600060405180830381600087803b15801561110057600080fd5b505af1158015611114573d6000803e3d6000fd5b5050505061112582600001516102a3565b600f90810b60808301819052600091611142919088900b90612c15565b905061115683600001518360200151612c45565b600f0b808352602083015160009161116d91612c15565b6020840151606b5486516040516338dd821d60e11b81528e35600482015263ffffffff909116602482015292935061120992610e97916001600160a01b0316906371bb043a906044015b602060405180830381865afa1580156111d4573d6000803e3d6000fd5b505050506040513d601f19601f820116820180604052508101906111f8919061325f565b86516080880151610e97919061353d565b8360a00181815161121a91906133bc565b600f0b9052506040805160028082526060820190925290816020015b6040805160808101825260008082526020808301829052928201819052606082015282526000199092019101816112365790505094506040518060800160405280856000015163ffffffff1681526020018b6020013581526020018460200151896112a1919061353d565b600f0b8152602001826112b385613638565b6112bd91906133bc565b600f0b815250856000815181106112d6576112d661365e565b60200260200101819052506040518060800160405280856000015163ffffffff1681526020018b60000135815260200184602001518961131590613638565b61131f91906133bc565b600f0b81526020018460a001518385611338919061353d565b611342919061353d565b600f0b8152508560018151811061135b5761135b61365e565b6020908102919091010152604051636c9a2ce360e01b81526001600160a01b03891690636c9a2ce390611392908890600401613674565b600060405180830381600087803b1580156113ac57600080fd5b505af11580156113c0573d6000803e3d6000fd5b505050505050611ace565b60016113dd60608a0160408b01613406565b60ff16036117e957606082015160408051808201909152600481526304e494c560e41b602082015263ffffffff82166114295760405162461bcd60e51b81526004016105c19190613357565b5061143883608001518761290f565b60405163e334be3360e01b815260006004820181905260208b01356024830152906001600160a01b038a169063e334be339060440160c060405180830381865afa15801561148a573d6000803e3d6000fd5b505050506040513d601f19601f820116820180604052508101906114ae9190613603565b9150506114bb8288612c45565b600f0b83526114c9826102a3565b600f0b60808401528515611509578251606f5482516000926114f692610d3d92610d3491600f0b906133bc565b905061150588610d6983613638565b9750505b825161151890600f0b88612c15565b600f0b604080850191909152606b5490516338dd821d60e11b81528b35600482015263ffffffff84166024820152611568918991610e97916001600160a01b0316906371bb043a906044016111b7565b600f0b60a08401528561157c57600061159f565b606f548151604085015161159f92600f0b91610dd29160009190610dc890613638565b600f0b606084015260408051600480825260a0820190925290816020015b6040805160808101825260008082526020808301829052928201819052606082015282526000199092019101816115bd57905050945060405180608001604052808363ffffffff1681526020018b6020013581526020018861161e90613638565b600f0b81526020018460400151600f0b815250856000815181106116445761164461365e565b602002602001018190525060405180608001604052808363ffffffff1681526020018b60000135815260200188600f0b8152602001846040015161168790613638565b600f0b815250856001815181106116a0576116a061365e565b60200260200101819052506040518060800160405280600063ffffffff1681526020018b602001358152602001846060015185604001516116e191906133bc565b600f0b81526020016000600f0b815250856002815181106117045761170461365e565b60200260200101819052506040518060800160405280600063ffffffff1681526020018b6000013581526020018460a00151856040015161174490613638565b61174e919061353d565b600f0b81526020016000600f0b815250856003815181106117715761177161365e565b60209081029190910101526060830151606f8054600090611796908490600f0b61353d565b92506101000a8154816001600160801b030219169083600f0b6001600160801b03160217905550886001600160a01b0316636c9a2ce3866040518263ffffffff1660e01b81526004016113929190613674565b60026117fb60608a0160408b01613406565b60ff1603611a9e57815160408051808201909152600481526304e494c560e41b602082015263ffffffff82166118445760405162461bcd60e51b81526004016105c19190613357565b5061185383602001518761290f565b61185d8187612c45565b600f0b825261186b816102a3565b600f90810b60808401528251611882910b87612c15565b600f0b604083810191909152606b5490516338dd821d60e11b81528a35600482015263ffffffff8316602482015261191f918891610e97916001600160a01b0316906371bb043a90604401602060405180830381865afa1580156118ea573d6000803e3d6000fd5b505050506040513d601f19601f8201168201806040525081019061190e919061325f565b85516080870151610e97919061353d565b600f0b60a08301526040805160028082526060820190925290816020015b60408051608081018252600080825260208083018290529282018190526060820152825260001990920191018161193d57905050935060405180608001604052808263ffffffff1681526020018a6020013581526020018761199e90613638565b600f0b81526020018360400151600f0b815250846000815181106119c4576119c461365e565b602002602001018190525060405180608001604052808263ffffffff1681526020018a60000135815260200187600f0b81526020018360a001518460400151611a0c90613638565b611a16919061353d565b600f0b81525084600181518110611a2f57611a2f61365e565b6020908102919091010152604051636c9a2ce360e01b81526001600160a01b03881690636c9a2ce390611a66908790600401613674565b600060405180830381600087803b158015611a8057600080fd5b505af1158015611a94573d6000803e3d6000fd5b5050505050611ace565b60408051808201825260048082526304e494c560e41b6020830152915162461bcd60e51b81526105c19201613357565b611adb8860200135610332565b15604051806040016040528060038152602001624c544d60e81b81525090611b165760405162461bcd60e51b81526004016105c19190613357565b50611b21883561035e565b15604051806040016040528060028152602001610a6960f31b81525090611b5b5760405162461bcd60e51b81526004016105c19190613357565b5060a0810151606f8054600090611b76908490600f0b6133bc565b82546001600160801b039182166101009390930a92830292820219169190911790915560a0830151606f8054918316600160801b029190921617905550611bc36060890160408a01613406565b60ff16602089013589357ff96988bb67b73fa61d64c48dc2e91ae6b697ebb8c5a496d238309aa20fbf6458611bfe60808d0160608e016131d0565b611c0e60a08e0160808f016133e9565b6040808801516060808a0151835163ffffffff9096168652600f94850b602087015291840b9285019290925290910b9082015260800160405180910390a45050505050505050565b6000600f82900b670de0b6b3a76400000260016001607f1b03198112801590611c86575060016001607f1b038113155b6040518060400160405280600281526020016127a360f11b81525090611cbf5760405162461bcd60e51b81526004016105c19190613357565b5092915050565b6069546040516388b6496f60e01b81526000916001600160a01b0316906388b6496f90611cf990869086906004016136e5565b602060405180830381865afa158015611d16573d6000803e3d6000fd5b505050506040513d601f19601f82011682018060405250810190611d3a919061325f565b9392505050565b6033546001600160a01b0316331461035c5760405162461bcd60e51b815260206004820181905260248201527f4f776e61626c653a2063616c6c6572206973206e6f7420746865206f776e657260448201526064016105c1565b603380546001600160a01b038381166001600160a01b0319831681179093556040519116919082907f8be0079c531659141344cd1fd0a4f28419497f9722a3daafe3b4186f6b6457e090600090a35050565b60008061036c836001611cc6565b606060005b60655463ffffffff600160a01b909104811690821611611ecc576000611e2887878487612373565b90508060200151600f0b6000148015611e46575060a0810151600f0b155b8015611e5a575060008160800151600f0b13155b604051806040016040528060038152602001624e465360e81b81525090611e945760405162461bcd60e51b81526004016105c19190613357565b5060408101516000600f82900b1315611eb957611eb9888888888660000151866125d9565b505080611ec590613429565b9050611e00565b5060405163e334be3360e01b815260006004820181905260248201849052906001600160a01b0387169063e334be339060440160c060405180830381865afa158015611f1c573d6000803e3d6000fd5b505050506040513d601f19601f82011682018060405250810190611f409190613603565b606f8054919350600160801b8204600f90810b93509091600091611f669185910b61353d565b82546001600160801b039182166101009390930a928302919092021990911617905550606f5481516000918291611fa091600f0b906133bc565b600f0b13905060005b60655463ffffffff600160a01b909104811690821611612093576000611fd189898489612373565b9050821561201c5760808101516040805180820190915260038152624e465360e81b602082015290600f0b1561201a5760405162461bcd60e51b81526004016105c19190613357565b505b60008460000151600f0b13156120825760408101516000600f82900b1215612080576000612052828760000151610d6990613638565b90506120668b8b8b8b8760000151866125d9565b808660000181815161207891906133bc565b600f0b905250505b505b5061208c81613429565b9050611fa9565b50606f5460405163b1cd4b8f60e01b815260048101869052600f9190910b60248201526001600160a01b0387169063b1cd4b8f906044016020604051808303816000875af11580156120e9573d6000803e3d6000fd5b505050506040513d601f19601f8201168201806040525081019061210d919061325f565b606f80546fffffffffffffffffffffffffffffffff19166001600160801b03929092169190911790819055825160009161215191600f9190910b90610dd290613638565b9050600081600f0b13156122b957606f8054829190600090612177908490600f0b61353d565b92506101000a8154816001600160801b030219169083600f0b6001600160801b03160217905550600167ffffffffffffffff8111156121b8576121b861327c565b60405190808252806020026020018201604052801561220a57816020015b6040805160808101825260008082526020808301829052928201819052606082015282526000199092019101816121d65790505b5093506040518060800160405280600063ffffffff16815260200186815260200182600f0b81526020016000600f0b8152508460008151811061224f5761224f61365e565b6020908102919091010152604051636c9a2ce360e01b81526001600160a01b03891690636c9a2ce390612286908790600401613674565b600060405180830381600087803b1580156122a057600080fd5b505af11580156122b4573d6000803e3d6000fd5b505050505b606f54600f0b60000361232157604051638936f7cd60e01b8152600481018690526001600160a01b03891690638936f7cd90602401600060405180830381600087803b15801561230857600080fd5b505af115801561231c573d6000803e3d6000fd5b505050505b606f8054600160801b8104600f90810b92916000916123429185910b6133bc565b92506101000a8154816001600160801b030219169083600f0b6001600160801b031602179055505050505050505050565b6040805160c081018252600080825260208201819052818301819052606082018190526080820181905260a0820181905282518084019093529091806123ba866002613717565b6123c590600161373f565b63ffffffff1681526020016123db866002613717565b6123e690600261373f565b63ffffffff90811690915281518116606085015260208201518116845281519192501660291461249757805160405163e334be3360e01b815263ffffffff9091166004820152602481018490526000906001600160a01b0388169063e334be339060440160c060405180830381865afa158015612467573d6000803e3d6000fd5b505050506040513d601f19601f8201168201806040525081019061248b9190613603565b51600f0b608085015250505b602081015160405163e334be3360e01b815263ffffffff9091166004820152602481018490526000906001600160a01b0387169063e334be339060440160e060405180830381865afa1580156124f1573d6000803e3d6000fd5b505050506040513d601f19601f82011682018060405250810190612515919061375c565b8051600f90810b602080880182905290920151810b604087015260808601516000910b811291131491506125d090505760008260800151600f0b13156125785761256b82608001518360200151610dd290613638565b600f0b60a0830152612597565b61258e82608001518360200151610d6990613638565b600f0b60a08301525b8160a00151826080018181516125ad919061353d565b600f0b90525060a08201516020830180516125c99083906133bc565b600f0b9052505b50949350505050565b6040805160028082526060828101909352816020015b6040805160808101825260008082526020808301829052928201819052606082015282526000199092019101816125ef57905050905060405180608001604052808463ffffffff1681526020018581526020016000600f0b81526020018361265690613638565b600f0b8152508160008151811061266f5761266f61365e565b602002602001018190525060405180608001604052808463ffffffff1681526020018681526020016000600f0b815260200183600f0b815250816001815181106126bb576126bb61365e565b6020908102919091010152604051636c9a2ce360e01b81526001600160a01b03871690636c9a2ce3906126f2908490600401613674565b600060405180830381600087803b15801561270c57600080fd5b505af1158015612720573d6000803e3d6000fd5b506002925061272d915050565b60405190808252806020026020018201604052801561277f57816020015b60408051608081018252600080825260208083018290529282018190526060820152825260001990920191018161274b5790505b5090506040518060800160405280600063ffffffff16815260200185815260200183600f0b81526020016000600f0b815250816000815181106127c4576127c461365e565b60200260200101819052506040518060800160405280600063ffffffff168152602001868152602001836127f790613638565b600f0b81526020016000600f0b8152508160018151811061281a5761281a61365e565b6020908102919091010152604051636c9a2ce360e01b81526001600160a01b03881690636c9a2ce390612851908490600401613674565b600060405180830381600087803b15801561286b57600080fd5b505af115801561287f573d6000803e3d6000fd5b5050505050505050505050565b63ffffffff81166000818152606c6020526040808220549051634427952d60e01b8152600481019390935290916001600160a01b0390911690634427952d90602401602060405180830381865afa1580156128eb573d6000803e3d6000fd5b505050506040513d601f19601f820116820180604052508101906102ba9190613804565b81600f0b600014158015612927575080600f0b600014155b604051806040016040528060038152602001624e4c4160e81b815250906129615760405162461bcd60e51b81526004016105c19190613357565b50600081600f0b13156129b25780600f0b82600f0b1215604051806040016040528060038152602001624e4c4160e81b815250906108825760405162461bcd60e51b81526004016105c19190613357565b80600f0b82600f0b1315604051806040016040528060038152602001624e4c4160e81b815250906108825760405162461bcd60e51b81526004016105c19190613357565b600080612a068460000151610423565b90506000612a178560200151610423565b905060006005612a328484612a2b89612c9c565b6001612cb7565b612a3c9190613821565b9050600085600f0b1315612a7457612a6a612a5f82670de0b6b3a764000061353d565b8751610e97906102a3565b93505050506102ba565b612a6a612a5f82670de0b6b3a76400006133bc565b600081600f0b600014156040518060400160405280600381526020016222212d60e91b81525090612acd5760405162461bcd60e51b81526004016105c19190613357565b50600082600f0b670de0b6b3a7640000600f0b85600f0b0281612af257612af2613505565b05905060016001607f1b03198112801590612b14575060016001607f1b038113155b6040518060400160405280600281526020016127a360f11b81525090612b4d5760405162461bcd60e51b81526004016105c19190613357565b509392505050565b600081600f0b83600f0b13612b6a5781611d3a565b5090919050565b60008082600f0b13612bbc5760405162461bcd60e51b8152602060048201526014602482015273191ccb5b585d1a0b58d95a5b0b5b9959cb5b5bd960621b60448201526064016105c1565b6000612bc8838561351b565b905080600f0b600003612bdd57839150611cbf565b600084600f0b1215612bf857612bf3818561353d565b612c0d565b80612c0384866133bc565b612c0d919061353d565b949350505050565b600080670de0b6b3a7640000600f85810b9085900b02612af2565b600081600f0b83600f0b12612b6a5781611d3a565b600080612c5184610423565b9050612c0d6005670de0b6b3a7640000612c6d84876001612d26565b612c77919061353d565b612c819190613821565b612c9390670de0b6b3a76400006133bc565b610e97866102a3565b60008082600f0b12612cae57816102ba565b6102ba82613638565b60008083600f0b12612cf3576005612cd0858585612d26565b612ce290670de0b6b3a764000061353d565b612cec9190613821565b9050612c0d565b6005670de0b6b3a7640000612d09878686612d26565b612d13919061353d565b612d1d9190613821565b95945050505050565b60006002826002811115612d3c57612d3c6133a6565b03612d505750670de0b6b3a7640000611d3a565b60008084600f0b12612d89576000836002811115612d7057612d706133a6565b14612d7f578460400151612d82565b84515b9050612db5565b6000836002811115612d9d57612d9d6133a6565b14612dac578460600151612db2565b84602001515b90505b60008560800151600f0b1315612c0d57600084600f0b1315612e7f576080850151600090612e0290670de0b6b3a7640000612df8670f43fc2c04ee000086612a89565b610d34919061353d565b9050612e12600f82900b82612c15565b600f0b612e2186600f0b612f18565b600f0b1315612e7957612e76612e55612e47612e3f88600f0b612f18565b600f0b612f79565b6080890151600f0b90612c15565b612e6790670de0b6b3a76400006133bc565b670f43fc2c04ee000090612a89565b91505b50612c0d565b6000612eb08660800151670de0b6b3a7640000612df8670c7d713b49da000086600f0b612a8990919063ffffffff16565b9050612ec0600f82900b82612c15565b600f0b612ecf86600f0b612f18565b600f0b13156125d057612f0e612eed612e47612e3f88600f0b612f18565b612eff90670de0b6b3a76400006133bc565b670c7d713b49da000090612c15565b9695505050505050565b60408051808201909152600281526127a360f11b6020820152600090600f83900b60016001607f1b031903612f605760405162461bcd60e51b81526004016105c19190613357565b50600082600f0b12612f7257816102ba565b5060000390565b600080612f8883600f0b612fde565b905060016001607f1b03198112801590611c86575060408051808201909152600281526127a360f11b602082015260016001607f1b03821315611cbf5760405162461bcd60e51b81526004016105c19190613357565b6000808212156130045760405163608c83ff60e11b8152600481018390526024016105c1565b7809392ee8e921d5d073aff322e62439fcf32d7f344649470f9082131561304157604051632c482c3960e01b8152600481018390526024016105c1565b6102ba670de0b6b3a7640000830260008160000361306157506000919050565b50600181600160801b811061307b5760409190911b9060801c5b600160401b81106130915760209190911b9060401c5b64010000000081106130a85760109190911b9060201c5b6201000081106130bd5760089190911b9060101c5b61010081106130d15760049190911b9060081c5b601081106130e45760029190911b9060041c5b600881106130f457600182901b91505b600182848161310557613105613505565b048301901c9150600182848161311d5761311d613505565b048301901c9150600182848161313557613135613505565b048301901c9150600182848161314d5761314d613505565b048301901c9150600182848161316557613165613505565b048301901c9150600182848161317d5761317d613505565b048301901c9150600182848161319557613195613505565b048301901c915060008284816131ad576131ad613505565b04905080831015611d3a5782612c0d565b63ffffffff811681146105d357600080fd5b6000602082840312156131e257600080fd5b8135611d3a816131be565b6000602082840312156131ff57600080fd5b5035919050565b6001600160a01b03811681146105d357600080fd5b60006020828403121561322d57600080fd5b8135611d3a81613206565b600060c0828403121561324a57600080fd5b50919050565b80600f0b81146105d357600080fd5b60006020828403121561327157600080fd5b8151611d3a81613250565b634e487b7160e01b600052604160045260246000fd5b6000604082840312156132a457600080fd5b6040516040810181811067ffffffffffffffff821117156132d557634e487b7160e01b600052604160045260246000fd5b806040525080915082516132e881613250565b815260208301516132f881613250565b6020919091015292915050565b60006040828403121561331757600080fd5b611d3a8383613292565b634e487b7160e01b600052601160045260246000fd5b600082600f0b82600f0b0280600f0b9150808214611cbf57611cbf613321565b60006020808352835180602085015260005b8181101561338557858101830151858201604001528201613369565b506000604082860101526040601f19601f8301168501019250505092915050565b634e487b7160e01b600052602160045260246000fd5b600f81810b9083900b0160016001607f1b03811360016001607f1b0319821217156102ba576102ba613321565b6000602082840312156133fb57600080fd5b8135611d3a81613250565b60006020828403121561341857600080fd5b813560ff81168114611d3a57600080fd5b600063ffffffff80831681810361344257613442613321565b6001019392505050565b600060c0828403121561345e57600080fd5b60405160c0810181811067ffffffffffffffff8211171561348f57634e487b7160e01b600052604160045260246000fd5b604052825161349d816131be565b815260208301516134ad81613250565b602082015260408301516134c081613250565b604082015260608301516134d381613250565b606082015260808301516134e681613250565b608082015260a08301516134f981613250565b60a08201529392505050565b634e487b7160e01b600052601260045260246000fd5b600082600f0b8061352e5761352e613505565b8083600f0b0791505092915050565b600f82810b9082900b0360016001607f1b0319811260016001607f1b03821317156102ba576102ba613321565b60006080828403121561357c57600080fd5b6040516080810181811067ffffffffffffffff821117156135ad57634e487b7160e01b600052604160045260246000fd5b806040525080915082516135c081613250565b815260208301516135d081613250565b602082015260408301516135e381613250565b604082015260608301516135f681613250565b6060919091015292915050565b60008060c0838503121561361657600080fd5b613620848461356a565b915061362f8460808501613292565b90509250929050565b600081600f0b60016001607f1b0319810361365557613655613321565b60000392915050565b634e487b7160e01b600052603260045260246000fd5b602080825282518282018190526000919060409081850190868401855b828110156136d8578151805163ffffffff168552868101518786015285810151600f90810b87870152606091820151900b9085015260809093019290850190600101613691565b5091979650505050505050565b828152604081016003831061370a57634e487b7160e01b600052602160045260246000fd5b8260208301529392505050565b63ffffffff81811683821602808216919082811461373757613737613321565b505092915050565b63ffffffff818116838216019080821115611cbf57611cbf613321565b60008082840360e081121561377057600080fd5b61377a858561356a565b92506060607f198201121561378e57600080fd5b506040516060810181811067ffffffffffffffff821117156137c057634e487b7160e01b600052604160045260246000fd5b60405260808401516137d181613250565b815260a08401516137e181613250565b602082015260c08401516137f481613250565b6040820152919491935090915050565b60006020828403121561381657600080fd5b8151611d3a81613206565b600081600f0b83600f0b8061383857613838613505565b60016001607f1b031982146000198214161561385657613856613321565b9005939250505056fea2646970667358221220c4e96f924a8caa6e59be69875b3b424d70590fb3312dc2c085e84aba3ebb243c64736f6c63430008160033",
  "linkReferences": {},
  "deployedLinkReferences": {}
}