{
  "_format": "hh-sol-artifact-1",
  "contractName": "OffchainBook",
  "sourceName": "contracts/OffchainBook.sol",
  "abi": [
    {
      "anonymous": false,
      "inputs": [],
      "name": "EIP712DomainChanged",
      "type": "event"
    },
    {
      "anonymous": false,
      "inputs": [
        {
          "indexed": true,
          "internalType": "bytes32",
          "name": "digest",
          "type": "bytes32"
        },
        {
          "indexed": true,
          "internalType": "bytes32",
          "name": "subaccount",
          "type": "bytes32"
        },
        {
          "indexed": false,
          "internalType": "int128",
          "name": "priceX18",
          "type": "int128"
        },
        {
          "indexed": false,
          "internalType": "int128",
          "name": "amount",
          "type": "int128"
        },
        {
          "indexed": false,
          "internalType": "uint64",
          "name": "expiration",
          "type": "uint64"
        },
        {
          "indexed": false,
          "internalType": "uint64",
          "name": "nonce",
          "type": "uint64"
        },
        {
          "indexed": false,
          "internalType": "bool",
          "name": "isTaker",
          "type": "bool"
        },
        {
          "indexed": false,
          "internalType": "int128",
          "name": "feeAmount",
          "type": "int128"
        },
        {
          "indexed": false,
          "internalType": "int128",
          "name": "baseDelta",
          "type": "int128"
        },
        {
          "indexed": false,
          "internalType": "int128",
          "name": "quoteDelta",
          "type": "int128"
        }
      ],
      "name": "FillOrder",
      "type": "event"
    },
    {
      "anonymous": false,
      "inputs": [
        {
          "indexed": false,
          "internalType": "uint8",
          "name": "version",
          "type": "uint8"
        }
      ],
      "name": "Initialized",
      "type": "event"
    },
    {
      "anonymous": false,
      "inputs": [
        {
          "indexed": true,
          "internalType": "address",
          "name": "previousOwner",
          "type": "address"
        },
        {
          "indexed": true,
          "internalType": "address",
          "name": "newOwner",
          "type": "address"
        }
      ],
      "name": "OwnershipTransferred",
      "type": "event"
    },
    {
      "inputs": [],
      "name": "claimSequencerFee",
      "outputs": [
        {
          "internalType": "int128",
          "name": "feesAmount",
          "type": "int128"
        }
      ],
      "stateMutability": "nonpayable",
      "type": "function"
    },
    {
      "inputs": [],
      "name": "clearinghouse",
      "outputs": [
        {
          "internalType": "contract IClearinghouse",
          "name": "",
          "type": "address"
        }
      ],
      "stateMutability": "view",
      "type": "function"
    },
    {
      "inputs": [],
      "name": "dumpFees",
      "outputs": [],
      "stateMutability": "nonpayable",
      "type": "function"
    },
    {
      "inputs": [],
      "name": "eip712Domain",
      "outputs": [
        {
          "internalType": "bytes1",
          "name": "fields",
          "type": "bytes1"
        },
        {
          "internalType": "string",
          "name": "name",
          "type": "string"
        },
        {
          "internalType": "string",
          "name": "version",
          "type": "string"
        },
        {
          "internalType": "uint256",
          "name": "chainId",
          "type": "uint256"
        },
        {
          "internalType": "address",
          "name": "verifyingContract",
          "type": "address"
        },
        {
          "internalType": "bytes32",
          "name": "salt",
          "type": "bytes32"
        },
        {
          "internalType": "uint256[]",
          "name": "extensions",
          "type": "uint256[]"
        }
      ],
      "stateMutability": "view",
      "type": "function"
    },
    {
      "inputs": [],
      "name": "engine",
      "outputs": [
        {
          "internalType": "contract IProductEngine",
          "name": "",
          "type": "address"
        }
      ],
      "stateMutability": "view",
      "type": "function"
    },
    {
      "inputs": [],
      "name": "fees",
      "outputs": [
        {
          "internalType": "contract IFeeCalculator",
          "name": "",
          "type": "address"
        }
      ],
      "stateMutability": "view",
      "type": "function"
    },
    {
      "inputs": [
        {
          "internalType": "bytes32",
          "name": "",
          "type": "bytes32"
        }
      ],
      "name": "filledAmounts",
      "outputs": [
        {
          "internalType": "int128",
          "name": "",
          "type": "int128"
        }
      ],
      "stateMutability": "view",
      "type": "function"
    },
    {
      "inputs": [
        {
          "components": [
            {
              "internalType": "bytes32",
              "name": "sender",
              "type": "bytes32"
            },
            {
              "internalType": "int128",
              "name": "priceX18",
              "type": "int128"
            },
            {
              "internalType": "int128",
              "name": "amount",
              "type": "int128"
            },
            {
              "internalType": "uint64",
              "name": "expiration",
              "type": "uint64"
            },
            {
              "internalType": "uint64",
              "name": "nonce",
              "type": "uint64"
            }
          ],
          "internalType": "struct IEndpoint.Order",
          "name": "order",
          "type": "tuple"
        }
      ],
      "name": "getDigest",
      "outputs": [
        {
          "internalType": "bytes32",
          "name": "",
          "type": "bytes32"
        }
      ],
      "stateMutability": "view",
      "type": "function"
    },
    {
      "inputs": [],
      "name": "getEndpoint",
      "outputs": [
        {
          "internalType": "address",
          "name": "",
          "type": "address"
        }
      ],
      "stateMutability": "view",
      "type": "function"
    },
    {
      "inputs": [],
      "name": "getMarket",
      "outputs": [
        {
          "components": [
            {
              "internalType": "uint32",
              "name": "productId",
              "type": "uint32"
            },
            {
              "internalType": "int128",
              "name": "sizeIncrement",
              "type": "int128"
            },
            {
              "internalType": "int128",
              "name": "priceIncrementX18",
              "type": "int128"
            },
            {
              "internalType": "int128",
              "name": "lpSpreadX18",
              "type": "int128"
            },
            {
              "internalType": "int128",
              "name": "collectedFees",
              "type": "int128"
            },
            {
              "internalType": "int128",
              "name": "sequencerFees",
              "type": "int128"
            }
          ],
          "internalType": "struct IOffchainBook.Market",
          "name": "",
          "type": "tuple"
        }
      ],
      "stateMutability": "view",
      "type": "function"
    },
    {
      "inputs": [],
      "name": "getMinSize",
      "outputs": [
        {
          "internalType": "int128",
          "name": "",
          "type": "int128"
        }
      ],
      "stateMutability": "view",
      "type": "function"
    },
    {
      "inputs": [
        {
          "internalType": "uint32",
          "name": "productId",
          "type": "uint32"
        }
      ],
      "name": "getOraclePriceX18",
      "outputs": [
        {
          "internalType": "int128",
          "name": "",
          "type": "int128"
        }
      ],
      "stateMutability": "view",
      "type": "function"
    },
    {
      "inputs": [
        {
          "internalType": "uint32",
          "name": "healthGroup",
          "type": "uint32"
        }
      ],
      "name": "getOraclePricesX18",
      "outputs": [
        {
          "components": [
            {
              "internalType": "int128",
              "name": "spotPriceX18",
              "type": "int128"
            },
            {
              "internalType": "int128",
              "name": "perpPriceX18",
              "type": "int128"
            }
          ],
          "internalType": "struct IEndpoint.Prices",
          "name": "",
          "type": "tuple"
        }
      ],
      "stateMutability": "view",
      "type": "function"
    },
    {
      "inputs": [],
      "name": "getVersion",
      "outputs": [
        {
          "internalType": "uint64",
          "name": "",
          "type": "uint64"
        }
      ],
      "stateMutability": "pure",
      "type": "function"
    },
    {
      "inputs": [
        {
          "internalType": "contract IClearinghouse",
          "name": "_clearinghouse",
          "type": "address"
        },
        {
          "internalType": "contract IProductEngine",
          "name": "_engine",
          "type": "address"
        },
        {
          "internalType": "address",
          "name": "_endpoint",
          "type": "address"
        },
        {
          "internalType": "address",
          "name": "_admin",
          "type": "address"
        },
        {
          "internalType": "contract IFeeCalculator",
          "name": "_fees",
          "type": "address"
        },
        {
          "internalType": "uint32",
          "name": "_productId",
          "type": "uint32"
        },
        {
          "internalType": "int128",
          "name": "_sizeIncrement",
          "type": "int128"
        },
        {
          "internalType": "int128",
          "name": "_priceIncrementX18",
          "type": "int128"
        },
        {
          "internalType": "int128",
          "name": "_minSize",
          "type": "int128"
        },
        {
          "internalType": "int128",
          "name": "_lpSpreadX18",
          "type": "int128"
        }
      ],
      "name": "initialize",
      "outputs": [],
      "stateMutability": "nonpayable",
      "type": "function"
    },
    {
      "inputs": [],
      "name": "market",
      "outputs": [
        {
          "internalType": "uint32",
          "name": "productId",
          "type": "uint32"
        },
        {
          "internalType": "int128",
          "name": "sizeIncrement",
          "type": "int128"
        },
        {
          "internalType": "int128",
          "name": "priceIncrementX18",
          "type": "int128"
        },
        {
          "internalType": "int128",
          "name": "lpSpreadX18",
          "type": "int128"
        },
        {
          "internalType": "int128",
          "name": "collectedFees",
          "type": "int128"
        },
        {
          "internalType": "int128",
          "name": "sequencerFees",
          "type": "int128"
        }
      ],
      "stateMutability": "view",
      "type": "function"
    },
    {
      "inputs": [
        {
          "components": [
            {
              "internalType": "uint32",
              "name": "productId",
              "type": "uint32"
            },
            {
              "internalType": "int128",
              "name": "baseDelta",
              "type": "int128"
            },
            {
              "internalType": "int128",
              "name": "quoteDelta",
              "type": "int128"
            },
            {
              "components": [
                {
                  "components": [
                    {
                      "internalType": "bytes32",
                      "name": "sender",
                      "type": "bytes32"
                    },
                    {
                      "internalType": "int128",
                      "name": "priceX18",
                      "type": "int128"
                    },
                    {
                      "internalType": "int128",
                      "name": "amount",
                      "type": "int128"
                    },
                    {
                      "internalType": "uint64",
                      "name": "expiration",
                      "type": "uint64"
                    },
                    {
                      "internalType": "uint64",
                      "name": "nonce",
                      "type": "uint64"
                    }
                  ],
                  "internalType": "struct IEndpoint.Order",
                  "name": "order",
                  "type": "tuple"
                },
                {
                  "internalType": "bytes",
                  "name": "signature",
                  "type": "bytes"
                }
              ],
              "internalType": "struct IEndpoint.SignedOrder",
              "name": "taker",
              "type": "tuple"
            }
          ],
          "internalType": "struct IEndpoint.MatchOrderAMM",
          "name": "txn",
          "type": "tuple"
        },
        {
          "internalType": "address",
          "name": "takerLinkedSigner",
          "type": "address"
        }
      ],
      "name": "matchOrderAMM",
      "outputs": [],
      "stateMutability": "nonpayable",
      "type": "function"
    },
    {
      "inputs": [
        {
          "components": [
            {
              "components": [
                {
                  "internalType": "uint32",
                  "name": "productId",
                  "type": "uint32"
                },
                {
                  "internalType": "bool",
                  "name": "amm",
                  "type": "bool"
                },
                {
                  "components": [
                    {
                      "components": [
                        {
                          "internalType": "bytes32",
                          "name": "sender",
                          "type": "bytes32"
                        },
                        {
                          "internalType": "int128",
                          "name": "priceX18",
                          "type": "int128"
                        },
                        {
                          "internalType": "int128",
                          "name": "amount",
                          "type": "int128"
                        },
                        {
                          "internalType": "uint64",
                          "name": "expiration",
                          "type": "uint64"
                        },
                        {
                          "internalType": "uint64",
                          "name": "nonce",
                          "type": "uint64"
                        }
                      ],
                      "internalType": "struct IEndpoint.Order",
                      "name": "order",
                      "type": "tuple"
                    },
                    {
                      "internalType": "bytes",
                      "name": "signature",
                      "type": "bytes"
                    }
                  ],
                  "internalType": "struct IEndpoint.SignedOrder",
                  "name": "taker",
                  "type": "tuple"
                },
                {
                  "components": [
                    {
                      "components": [
                        {
                          "internalType": "bytes32",
                          "name": "sender",
                          "type": "bytes32"
                        },
                        {
                          "internalType": "int128",
                          "name": "priceX18",
                          "type": "int128"
                        },
                        {
                          "internalType": "int128",
                          "name": "amount",
                          "type": "int128"
                        },
                        {
                          "internalType": "uint64",
                          "name": "expiration",
                          "type": "uint64"
                        },
                        {
                          "internalType": "uint64",
                          "name": "nonce",
                          "type": "uint64"
                        }
                      ],
                      "internalType": "struct IEndpoint.Order",
                      "name": "order",
                      "type": "tuple"
                    },
                    {
                      "internalType": "bytes",
                      "name": "signature",
                      "type": "bytes"
                    }
                  ],
                  "internalType": "struct IEndpoint.SignedOrder",
                  "name": "maker",
                  "type": "tuple"
                }
              ],
              "internalType": "struct IEndpoint.MatchOrders",
              "name": "matchOrders",
              "type": "tuple"
            },
            {
              "internalType": "address",
              "name": "takerLinkedSigner",
              "type": "address"
            },
            {
              "internalType": "address",
              "name": "makerLinkedSigner",
              "type": "address"
            }
          ],
          "internalType": "struct IEndpoint.MatchOrdersWithSigner",
          "name": "txn",
          "type": "tuple"
        }
      ],
      "name": "matchOrders",
      "outputs": [],
      "stateMutability": "nonpayable",
      "type": "function"
    },
    {
      "inputs": [
        {
          "internalType": "int128",
          "name": "_sizeIncrement",
          "type": "int128"
        },
        {
          "internalType": "int128",
          "name": "_priceIncrementX18",
          "type": "int128"
        },
        {
          "internalType": "int128",
          "name": "_minSize",
          "type": "int128"
        },
        {
          "internalType": "int128",
          "name": "_lpSpreadX18",
          "type": "int128"
        }
      ],
      "name": "modifyConfig",
      "outputs": [],
      "stateMutability": "nonpayable",
      "type": "function"
    },
    {
      "inputs": [],
      "name": "owner",
      "outputs": [
        {
          "internalType": "address",
          "name": "",
          "type": "address"
        }
      ],
      "stateMutability": "view",
      "type": "function"
    },
    {
      "inputs": [],
      "name": "renounceOwnership",
      "outputs": [],
      "stateMutability": "nonpayable",
      "type": "function"
    },
    {
      "inputs": [
        {
          "internalType": "address",
          "name": "_endpoint",
          "type": "address"
        }
      ],
      "name": "setEndpoint",
      "outputs": [],
      "stateMutability": "nonpayable",
      "type": "function"
    },
    {
      "inputs": [
        {
          "components": [
            {
              "internalType": "bytes32",
              "name": "sender",
              "type": "bytes32"
            },
            {
              "internalType": "uint32",
              "name": "productId",
              "type": "uint32"
            },
            {
              "internalType": "int128",
              "name": "amount",
              "type": "int128"
            },
            {
              "internalType": "int128",
              "name": "priceX18",
              "type": "int128"
            }
          ],
          "internalType": "struct IEndpoint.SwapAMM",
          "name": "txn",
          "type": "tuple"
        }
      ],
      "name": "swapAMM",
      "outputs": [],
      "stateMutability": "nonpayable",
      "type": "function"
    },
    {
      "inputs": [
        {
          "internalType": "address",
          "name": "newOwner",
          "type": "address"
        }
      ],
      "name": "transferOwnership",
      "outputs": [],
      "stateMutability": "nonpayable",
      "type": "function"
    }
  ],
  "bytecode": "0x608060405234801561001057600080fd5b5061365e806100206000396000f3fe608060405234801561001057600080fd5b50600436106101585760003560e01c806384b0196e116100c3578063d07041e01161007c578063d07041e014610341578063d3d660cb1461034c578063dbbb415514610381578063e874b4f314610394578063f1be1679146103b5578063f2fde38b146104aa57600080fd5b806384b0196e146102cb5780638da5cb5b146102e65780639af1d35a146102f7578063aed8e9671461030a578063c40f02bd1461031b578063c9d4623f1461032e57600080fd5b80635d4f5f97116101155780635d4f5f97146101ea578063665dc77e14610215578063707c8b5814610228578063715018a61461023057806378f0d3ce1461023857806380f556051461024b57600080fd5b80630d8e6e2c1461015d5780630f4b509d146101715780631bcb460a146101865780632f8f1fb0146101a157806340f1a34d146101b45780635a174b8e146101d7575b600080fd5b604051601a81526020015b60405180910390f35b61018461017f366004612bb8565b6104bd565b005b61018e610987565b604051600f9190910b8152602001610168565b61018e6101af366004612bed565b610a1a565b61018e6101c2366004612c08565b60a060205260009081526040902054600f0b81565b6101846101e5366004612c45565b610aa9565b609a546101fd906001600160a01b031681565b6040516001600160a01b039091168152602001610168565b610184610223366004612d13565b610cea565b610184611373565b610184611596565b610184610246366004612d4e565b6115aa565b609d54609e54609f5461028b9263ffffffff811692600160201b909104600f90810b9282820b92600160801b90819004830b9282810b9291909104900b86565b6040805163ffffffff9097168752600f95860b602088015293850b9386019390935290830b6060850152820b6080840152900b60a082015260c001610168565b6102d36119c5565b6040516101689796959493929190612de6565b6033546001600160a01b03166101fd565b609c546101fd906001600160a01b031681565b6065546001600160a01b03166101fd565b610184610329366004612e7f565b611a63565b609b546101fd906001600160a01b031681565b60a154600f0b61018e565b61035f61035a366004612bed565b611b19565b604080518251600f90810b8252602093840151900b9281019290925201610168565b61018461038f366004612edb565b611b9c565b6103a76103a236600461300e565b611bc6565b604051908152602001610168565b6104496040805160c081018252600080825260208201819052918101829052606081018290526080810182905260a0810191909152506040805160c081018252609d5463ffffffff81168252600160201b9004600f90810b6020830152609e5480820b93830193909352600160801b92839004810b6060830152609f5480820b60808401529290920490910b60a082015290565b6040516101689190600060c08201905063ffffffff83511682526020830151600f0b60208301526040830151600f0b60408301526060830151600f0b60608301526080830151600f0b608083015260a0830151600f0b60a083015292915050565b6101846104b8366004612edb565b611c73565b6065546001600160a01b031633146104f05760405162461bcd60e51b81526004016104e79061302a565b60405180910390fd5b6040805160c081018252609d5463ffffffff81168252600160201b9004600f90810b602080840191909152609e5480830b84860152600160801b90819004830b6060850152609f5480840b60808601520490910b60a0830152609b548351634604d19b60e01b8152935192936001936001600160a01b0390921692634604d19b926004808401938290030181865afa158015610590573d6000803e3d6000fd5b505050506040513d601f19601f820116820180604052508101906105b4919061308a565b60018111156105c5576105c5613074565b036106275760208101516105df60608401604085016130ab565b6105e991906130de565b60408051808201909152600381526204953560ec1b602082015290600f0b156106255760405162461bcd60e51b81526004016104e7919061310e565b505b609b54815160009182916001600160a01b039091169063d952f2a39061065360608801604089016130ab565b6106636080890160608a016130ab565b602088015160608901516040516001600160e01b031960e088901b16815263ffffffff959095166004860152600f93840b602486015291830b6044850152820b6064840152900b608482015260a40160408051808303816000875af11580156106d0573d6000803e3d6000fd5b505050506040513d601f19601f820116820180604052508101906106f49190613121565b915091508161070290613166565b915061070d81613166565b9050600061074b8560000135858585600088600f0b1361073b5760a15461073690600f0b613166565b610742565b60a154600f0b5b60006001611cec565b60408051600280825260608201909252919450919250600091816020015b6040805160808101825260008082526020808301829052928201819052606082015282526000199092019101816107695790505090506040518060800160405280866000015163ffffffff1681526020018760000135815260200185600f0b815260200184600f0b815250816000815181106107e7576107e761318c565b60200260200101819052506040518060800160405280600063ffffffff1681526020018760000135815260200184600f0b81526020016000600f0b815250816001815181106108385761083861318c565b6020908102919091010152609b54604051636c9a2ce360e01b81526001600160a01b0390911690636c9a2ce3906108739084906004016131a2565b600060405180830381600087803b15801561088d57600080fd5b505af11580156108a1573d6000803e3d6000fd5b5050609a546040516388b6496f60e01b8152600094506001600160a01b0390911692506388b6496f91506108dc908935908590600401613213565b602060405180830381865afa1580156108f9573d6000803e3d6000fd5b505050506040513d601f19601f8201168201806040525081019061091d9190613245565b600f0b121560405180604001604052806002815260200161125560f21b8152509061095b5760405162461bcd60e51b81526004016104e7919061310e565b505050608082015160a0909201516001600160801b03908116600160801b02921691909117609f555050565b609a546000906001600160a01b031633146109fb5760405162461bcd60e51b815260206004820152602e60248201527f4f6e6c792074686520636c656172696e67686f7573652063616e20636c61696d60448201526d2073657175656e6365722066656560901b60648201526084016104e7565b50609f80546001600160801b038116909155600160801b9004600f0b90565b600063ffffffff8216610a3757610a316001611d0e565b92915050565b606554604051631b47234360e11b815263ffffffff841660048201526001600160a01b039091169063368e468690602401602060405180830381865afa158015610a85573d6000803e3d6000fd5b505050506040513d601f19601f82011682018060405250810190610a319190613245565b600054610100900460ff1615808015610ac95750600054600160ff909116105b80610ae35750303b158015610ae3575060005460ff166001145b610b465760405162461bcd60e51b815260206004820152602e60248201527f496e697469616c697a61626c653a20636f6e747261637420697320616c72656160448201526d191e481a5b9a5d1a585b1a5e995960921b60648201526084016104e7565b6000805460ff191660011790558015610b69576000805461ff0019166101001790555b610b71611d7e565b610b7a89611b9c565b610b8388611c73565b610bc8604051806040016040528060068152602001650accae4e8caf60d31b81525060405180604001604052806005815260200164302e302e3160d81b815250611dad565b609a80546001600160a01b03808e166001600160a01b031992831617909255609b80548d8416908316179055609c8054928a16928216929092179091556040805160c08101825263ffffffff8916808252600f89810b602084015288810b938301939093529185900b606082015260006080820181905260a0909101819052609d80546001600160801b03808b16600160201b029190951690931792909217909155818416600160801b0282871617609e55609f5560a180549185166001600160801b0319929092169190911790558015610cdd576000805461ff0019169055604051600181527f7f26b83ff96e1f2b6a682f133852f6798a09c465da95921460cefb38474024989060200160405180910390a15b5050505050505050505050565b6065546001600160a01b03163314610d145760405162461bcd60e51b81526004016104e79061302a565b6040805160c081018252609d5463ffffffff81168252600160201b9004600f90810b6020830152609e5480820b93830193909352600160801b92839004810b6060830152609f5480820b60808401529290920490910b60a08201526000610d7b8380613262565b610d89906040810190613282565b610d9290613298565b90506000610da08480613262565b610dae906060810190613282565b610db790613298565b905060006040518060600160405280610dd38560000151611bc6565b8152602001610de58460000151611bc6565b81528351604090810151600f0b6020928301528551810151835193945092610e1f928892889291610e1a918c01908c01612edb565b611de2565b60405180604001604052806002815260200161125560f21b81525090610e585760405162461bcd60e51b81526004016104e7919061310e565b50610e7685848460200151896040016020810190610e1a9190612edb565b60405180604001604052806002815260200161494d60f01b81525090610eaf5760405162461bcd60e51b81526004016104e7919061310e565b5083516040908101518451820151825180840190935260048352634f43424d60e01b60208401526000600f91820b81129290910b1303610f025760405162461bcd60e51b81526004016104e7919061310e565b506000836000015160400151600f0b1315610f7257836000015160200151600f0b836000015160200151600f0b1215604051806040016040528060048152602001634f43424d60e01b81525090610f6c5760405162461bcd60e51b81526004016104e7919061310e565b50610fc9565b836000015160200151600f0b836000015160200151600f0b1315604051806040016040528060048152602001634f43424d60e01b81525090610fc75760405162461bcd60e51b81526004016104e7919061310e565b505b600080610fe0878760000151876000015187611f2d565b915091506000611021876000015160000151898585878c60000151604001518a61100a9190613345565b6110149190613345565b8b51602001516001611cec565b60408051600280825260608201909252919450919250600091816020015b60408051608081018252600080825260208083018290529282018190526060820152825260001990920191018161103f57905050905060405180608001604052808a6000015163ffffffff168152602001896000015160000151815260200185600f0b815260200184600f0b815250816000815181106110c1576110c161318c565b60200260200101819052506040518060800160405280600063ffffffff168152602001896000015160000151815260200184600f0b81526020016000600f0b815250816001815181106111165761111661318c565b6020908102919091010152609b54604051636c9a2ce360e01b81526001600160a01b0390911690636c9a2ce3906111519084906004016131a2565b600060405180830381600087803b15801561116b57600080fd5b505af115801561117f573d6000803e3d6000fd5b5050895151611192935091506121f69050565b60405180604001604052806002815260200161125560f21b815250906111cb5760405162461bcd60e51b81526004016104e7919061310e565b50604080518082019091526002815261494d60f01b6020820152506111f08980613262565b6111fe906040810190613282565b85519035907f224253ad5cda2459ff587f559a41374ab9243acbd2daff8c13f05473db79d14c61122e8c80613262565b61123c906040810190613282565b61124d9060408101906020016130ab565b876112588e80613262565b611266906040810190613282565b611277906080810190606001613372565b6112818f80613262565b61128f906040810190613282565b6112a09060a0810190608001613372565b6001888b8b6040516112b998979695949392919061338d565b60405180910390a3608088015160a08901516001600160801b03908116600160801b02911617609f558651604001516112f29085613345565b8551600090815260a060205260409081902080546001600160801b0319166001600160801b0393909316929092179091558651810151908601516113369190613345565b602095860151600090815260a0909652604090952080546001600160801b0319166001600160801b03909616959095179094555050505050505050565b6065546001600160a01b0316331461139d5760405162461bcd60e51b81526004016104e79061302a565b604080516001808252818301909252600091816020015b6040805160808101825260008082526020808301829052928201819052606082015282526000199092019101816113b457905050609f80546001600160801b03198116909155909150600f0b6000609b60009054906101000a90046001600160a01b03166001600160a01b0316634604d19b6040518163ffffffff1660e01b8152600401602060405180830381865afa158015611455573d6000803e3d6000fd5b505050506040513d601f19601f82011682018060405250810190611479919061308a565b600181111561148a5761148a613074565b036114e4576040518060800160405280600063ffffffff1681526020016000801b815260200182600f0b81526020016000600f0b815250826000815181106114d4576114d461318c565b6020026020010181905250611530565b60408051608081018252609d5463ffffffff168152600060208201819052918101829052600f83900b60608201528351909184916115245761152461318c565b60200260200101819052505b609b54604051636c9a2ce360e01b81526001600160a01b0390911690636c9a2ce3906115609085906004016131a2565b600060405180830381600087803b15801561157a57600080fd5b505af115801561158e573d6000803e3d6000fd5b505050505050565b61159e6121fc565b6115a86000612256565b565b6065546001600160a01b031633146115d45760405162461bcd60e51b81526004016104e79061302a565b6040805160c081018252609d5463ffffffff81168252600160201b9004600f90810b6020830152609e5480820b93830193909352600160801b92839004810b606080840191909152609f5480830b608085015293909304900b60a0820152906000906116569061164690860186613282565b6103a2903681900381019061300e565b905060006116676060860186613282565b6116789060608101906040016130ab565b905060006116896060870187613282565b61169290613298565b90506116a084828588611de2565b60405180604001604052806002815260200161125560f21b815250906116d95760405162461bcd60e51b81526004016104e7919061310e565b50600080611707866116f160408b0160208c016130ab565b61170160608c0160408d016130ab565b866122a8565b915091506000611759846000015160000151888585878960000151604001518b6117319190613345565b61173b9190613345565b611749600f89900b8a612516565b61175290613166565b6001611cec565b60408051600280825260608201909252919450919250600091816020015b6040805160808101825260008082526020808301829052928201819052606082015282526000199092019101816117775790505090506040518060800160405280896000015163ffffffff168152602001866000015160000151815260200185600f0b815260200184600f0b815250816000815181106117f9576117f961318c565b60200260200101819052506040518060800160405280600063ffffffff168152602001866000015160000151815260200184600f0b81526020016000600f0b8152508160018151811061184e5761184e61318c565b6020908102919091010152609b54604051636c9a2ce360e01b81526001600160a01b0390911690636c9a2ce3906118899084906004016131a2565b600060405180830381600087803b1580156118a357600080fd5b505af11580156118b7573d6000803e3d6000fd5b50600192506118c4915050565b60405180604001604052806002815260200161125560f21b815250906118fd5760405162461bcd60e51b81526004016104e7919061310e565b50845180516020820151606083015160809093015160405192938b937f224253ad5cda2459ff587f559a41374ab9243acbd2daff8c13f05473db79d14c936119549390928d929091906001908b908e908e9061338d565b60405180910390a3608088015160a08901516001600160801b03908116600160801b02911617609f5584516040015161198d9087613345565b600097885260a0602052604090972080546001600160801b0319166001600160801b0390981697909717909655505050505050505050565b6000606080600080600060606066546000801b1480156119e55750606754155b611a295760405162461bcd60e51b81526020600482015260156024820152741152540dcc4c8e88155b9a5b9a5d1a585b1a5e9959605a1b60448201526064016104e7565b611a316125e2565b611a39612674565b60408051600080825260208201909252600f60f81b9b939a50919850469750309650945092509050565b609b546001600160a01b03163314611abd5760405162461bcd60e51b815260206004820152601d60248201527f6f6e6c7920656e67696e652063616e206d6f6469667920636f6e66696700000060448201526064016104e7565b609d805473ffffffffffffffffffffffffffffffff000000001916600160201b6001600160801b0396871602179055918316600160801b9284169290920291909117609e5560a180546001600160801b03191691909216179055565b6040805180820182526000808252602082015260655491516357d2aef760e11b815263ffffffff8416600482015290916001600160a01b03169063afa55dee906024016040805180830381865afa158015611b78573d6000803e3d6000fd5b505050506040513d601f19601f82011682018060405250810190610a3191906133dc565b611ba46121fc565b606580546001600160a01b0319166001600160a01b0392909216919091179055565b6000806040518060800160405280605281526020016135d7605291399050611c6c818051906020012084600001518560200151866040015187606001518860800151604051602001611c51969594939291909586526020860194909452600f92830b6040860152910b606084015267ffffffffffffffff90811660808401521660a082015260c00190565b60405160208183030381529060405280519060200120612683565b9392505050565b611c7b6121fc565b6001600160a01b038116611ce05760405162461bcd60e51b815260206004820152602660248201527f4f776e61626c653a206e6577206f776e657220697320746865207a65726f206160448201526564647265737360d01b60648201526084016104e7565b611ce981612256565b50565b600080611cfe898989898989896126b0565b9150915097509795505050505050565b6000600f82900b670de0b6b3a76400000260016001607f1b03198112801590611d3e575060016001607f1b038113155b6040518060400160405280600281526020016127a360f11b81525090611d775760405162461bcd60e51b81526004016104e7919061310e565b5092915050565b600054610100900460ff16611da55760405162461bcd60e51b81526004016104e79061341d565b6115a8612887565b600054610100900460ff16611dd45760405162461bcd60e51b81526004016104e79061341d565b611dde82826128b7565b5050565b8251606081015160009190603d1c600190811603611f0657609b548651825160405163e039bfa960e01b815263ffffffff909216600483015260248201526000916001600160a01b03169063e039bfa990604401602060405180830381865afa158015611e53573d6000803e3d6000fd5b505050506040513d601f19601f82011682018060405250810190611e779190613245565b9050600081600f0b13151560008360400151600f0b13151503611ea05760006040830152611f04565b60008260400151600f0b1315611ed457611ec7826040015182611ec290613166565b612906565b600f0b6040830152611f04565b60008260400151600f0b1215611f0457611efb826040015182611ef690613166565b612922565b600f0b60408301525b505b60008160200151600f0b138015611f2357506040810151600f0b15155b9695505050505050565b60008060008560400151600f0b1215611f5d57611f5685604001518560400151611ef690613166565b9150611f8e565b60008560400151600f0b1315611f8357611f5685604001518560400151611ec290613166565b5060009050806121ed565b6020860151611f9d90836130de565b611fa79083613345565b91506000611fc5856020015184600f0b61293790919063ffffffff16565b9050611fd081613166565b91506000611ff286600001518986611fe790613166565b856000806000611cec565b8093508192505050838760400181815161200c9190613345565b600f0b905250604086018051859190612026908390613468565b600f0b90525060408051600280825260608201909252600091816020015b604080516080810182526000808252602080830182905292820181905260608201528252600019909201910181612044575050604080516080810182528b5163ffffffff1681528951602082015291925081016120a087613166565b600f0b815260200184600f0b815250816000815181106120c2576120c261318c565b60200260200101819052506040518060800160405280600063ffffffff1681526020018860000151815260200184600f0b81526020016000600f0b815250816001815181106121135761211361318c565b6020908102919091010152609b54604051636c9a2ce360e01b81526001600160a01b0390911690636c9a2ce39061214e9084906004016131a2565b600060405180830381600087803b15801561216857600080fd5b505af115801561217c573d6000803e3d6000fd5b50505050866000015186602001517f224253ad5cda2459ff587f559a41374ab9243acbd2daff8c13f05473db79d14c896020015189604001518b606001518c608001516000898d6121cc90613166565b8c6040516121e198979695949392919061338d565b60405180910390a35050505b94509492505050565b50600190565b6033546001600160a01b031633146115a85760405162461bcd60e51b815260206004820181905260248201527f4f776e61626c653a2063616c6c6572206973206e6f7420746865206f776e657260448201526064016104e7565b603380546001600160a01b038381166001600160a01b0319831681179093556040519116919082907f8be0079c531659141344cd1fd0a4f28419497f9722a3daafe3b4186f6b6457e090600090a35050565b600080806122c56122bd600f87900b88612516565b600f0b612952565b90506000846000015160400151600f0b131561239357836000015160200151600f0b81600f0b1315604051806040016040528060048152602001634f43424d60e01b815250906123285760405162461bcd60e51b81526004016104e7919061310e565b50600086600f0b128015612352575061234086613166565b600f0b846000015160400151600f0b12155b604051806040016040528060048152602001634f43424d60e01b8152509061238d5760405162461bcd60e51b81526004016104e7919061310e565b50612447565b836000015160200151600f0b81600f0b1215604051806040016040528060048152602001634f43424d60e01b815250906123e05760405162461bcd60e51b81526004016104e7919061310e565b50600086600f0b13801561240a57506123f886613166565b600f0b846000015160400151600f0b13155b604051806040016040528060048152602001634f43424d60e01b815250906124455760405162461bcd60e51b81526004016104e7919061310e565b505b609b54875160405163c7167cf560e01b815263ffffffff9091166004820152600f88810b602483015287900b604482015260009182916001600160a01b039091169063c7167cf59060640160408051808303816000875af11580156124b0573d6000803e3d6000fd5b505050506040513d601f19601f820116820180604052508101906124d49190613121565b915091508186600001516040018181516124ee9190613468565b600f0b9052506124fd82613166565b61250682613166565b9450945050505094509492505050565b600081600f0b600014156040518060400160405280600381526020016222212d60e91b8152509061255a5760405162461bcd60e51b81526004016104e7919061310e565b50600082600f0b670de0b6b3a7640000600f0b85600f0b028161257f5761257f6130c8565b05905060016001607f1b031981128015906125a1575060016001607f1b038113155b6040518060400160405280600281526020016127a360f11b815250906125da5760405162461bcd60e51b81526004016104e7919061310e565b509392505050565b6060606880546125f190613495565b80601f016020809104026020016040519081016040528092919081815260200182805461261d90613495565b801561266a5780601f1061263f5761010080835404028352916020019161266a565b820191906000526020600020905b81548152906001019060200180831161264d57829003601f168201915b5050505050905090565b6060606980546125f190613495565b6000610a316126906129b3565b8360405161190160f01b8152600281019290925260228201526042902090565b6000806000831561276d5760a154600f90810b9087900b600003612700576126dc600f82900b87612937565b6126e69083613468565b9150600088600f0b1215612700576126fd82613166565b91505b600061270e8a600f0b612952565b90506000826127256127208d8c613468565b6129c2565b61272f9190613345565b905061273b8183612906565b9050600081600f0b131561276557612758600f8b900b82846129dd565b6127629085613468565b93505b50505061277a565b6127778782613468565b90505b609c548951604051635ae5eb8760e11b8152600481018d905263ffffffff909116602482015285151560448201526000916001600160a01b03169063b5cbd70e90606401602060405180830381865afa1580156127db573d6000803e3d6000fd5b505050506040513d601f19601f820116820180604052508101906127ff9190613245565b61281190670de0b6b3a7640000613345565b905060008083600f0b136128325761282d600f84900b83612516565b612840565b612840600f84900b83612937565b9050600061284e8285613345565b9050808c6080018181516128629190613468565b600f0b90525080612873818c613345565b955095505050505097509795505050505050565b600054610100900460ff166128ae5760405162461bcd60e51b81526004016104e79061341d565b6115a833612256565b600054610100900460ff166128de5760405162461bcd60e51b81526004016104e79061341d565b60686128ea8382613516565b5060696128f78282613516565b50506000606681905560675550565b600081600f0b83600f0b1261291b5781611c6c565b5090919050565b600081600f0b83600f0b1361291b5781611c6c565b600080670de0b6b3a7640000600f85810b9085900b0261257f565b60408051808201909152600281526127a360f11b6020820152600090600f83900b60016001607f1b03190361299a5760405162461bcd60e51b81526004016104e7919061310e565b50600082600f0b126129ac5781610a31565b5060000390565b60006129bd612aa2565b905090565b60008082600f0b126129d45781610a31565b610a3182613166565b600081600f0b600014156040518060400160405280600381526020016222212d60e91b81525090612a215760405162461bcd60e51b81526004016104e7919061310e565b50600082600f0b84600f0b86600f0b0281612a3e57612a3e6130c8565b05905060016001607f1b03198112801590612a60575060016001607f1b038113155b6040518060400160405280600281526020016127a360f11b81525090612a995760405162461bcd60e51b81526004016104e7919061310e565b50949350505050565b60007f8b73c3c69bb8fe3d512ecc4cf759cc79239f7b179b0ffacaa9a75d522b39400f612acd612b16565b612ad5612b6f565b60408051602081019490945283019190915260608201524660808201523060a082015260c00160405160208183030381529060405280519060200120905090565b600080612b216125e2565b805190915015612b38578051602090910120919050565b6066548015612b475792915050565b7fc5d2460186f7233c927e7db2dcc703c0e500b653ca82273b7bfad8045d85a4709250505090565b600080612b7a612674565b805190915015612b91578051602090910120919050565b6067548015612b475792915050565b600060808284031215612bb257600080fd5b50919050565b600060808284031215612bca57600080fd5b611c6c8383612ba0565b803563ffffffff81168114612be857600080fd5b919050565b600060208284031215612bff57600080fd5b611c6c82612bd4565b600060208284031215612c1a57600080fd5b5035919050565b6001600160a01b0381168114611ce957600080fd5b80600f0b8114611ce957600080fd5b6000806000806000806000806000806101408b8d031215612c6557600080fd5b8a35612c7081612c21565b995060208b0135612c8081612c21565b985060408b0135612c9081612c21565b975060608b0135612ca081612c21565b965060808b0135612cb081612c21565b9550612cbe60a08c01612bd4565b945060c08b0135612cce81612c36565b935060e08b0135612cde81612c36565b92506101008b0135612cef81612c36565b91506101208b0135612d0081612c36565b809150509295989b9194979a5092959850565b600060208284031215612d2557600080fd5b813567ffffffffffffffff811115612d3c57600080fd5b820160608185031215611c6c57600080fd5b60008060408385031215612d6157600080fd5b823567ffffffffffffffff811115612d7857600080fd5b612d8485828601612ba0565b9250506020830135612d9581612c21565b809150509250929050565b6000815180845260005b81811015612dc657602081850181015186830182015201612daa565b506000602082860101526020601f19601f83011685010191505092915050565b60ff60f81b881681526000602060e06020840152612e0760e084018a612da0565b8381036040850152612e19818a612da0565b606085018990526001600160a01b038816608086015260a0850187905284810360c08601528551808252602080880193509091019060005b81811015612e6d57835183529284019291840191600101612e51565b50909c9b505050505050505050505050565b60008060008060808587031215612e9557600080fd5b8435612ea081612c36565b93506020850135612eb081612c36565b92506040850135612ec081612c36565b91506060850135612ed081612c36565b939692955090935050565b600060208284031215612eed57600080fd5b8135611c6c81612c21565b634e487b7160e01b600052604160045260246000fd5b6040805190810167ffffffffffffffff81118282101715612f3157612f31612ef8565b60405290565b604051601f8201601f1916810167ffffffffffffffff81118282101715612f6057612f60612ef8565b604052919050565b803567ffffffffffffffff81168114612be857600080fd5b600060a08284031215612f9257600080fd5b60405160a0810181811067ffffffffffffffff82111715612fb557612fb5612ef8565b604052823581529050806020830135612fcd81612c36565b60208201526040830135612fe081612c36565b6040820152612ff160608401612f68565b606082015261300260808401612f68565b60808201525092915050565b600060a0828403121561302057600080fd5b611c6c8383612f80565b6020808252602a908201527f53657175656e63657247617465643a2063616c6c6572206973206e6f742074686040820152691948195b991c1bda5b9d60b21b606082015260800190565b634e487b7160e01b600052602160045260246000fd5b60006020828403121561309c57600080fd5b815160028110611c6c57600080fd5b6000602082840312156130bd57600080fd5b8135611c6c81612c36565b634e487b7160e01b600052601260045260246000fd5b600082600f0b806130ff57634e487b7160e01b600052601260045260246000fd5b8083600f0b0791505092915050565b602081526000611c6c6020830184612da0565b6000806040838503121561313457600080fd5b825161313f81612c36565b6020840151909250612d9581612c36565b634e487b7160e01b600052601160045260246000fd5b600081600f0b60016001607f1b0319810361318357613183613150565b60000392915050565b634e487b7160e01b600052603260045260246000fd5b602080825282518282018190526000919060409081850190868401855b82811015613206578151805163ffffffff168552868101518786015285810151600f90810b87870152606091820151900b90850152608090930192908501906001016131bf565b5091979650505050505050565b828152604081016003831061323857634e487b7160e01b600052602160045260246000fd5b8260208301529392505050565b60006020828403121561325757600080fd5b8151611c6c81612c36565b60008235607e1983360301811261327857600080fd5b9190910192915050565b6000823560be1983360301811261327857600080fd5b600060c082360312156132aa57600080fd5b6132b2612f0e565b6132bc3684612f80565b815260a083013567ffffffffffffffff808211156132d957600080fd5b9084019036601f8301126132ec57600080fd5b813560208282111561330057613300612ef8565b613312601f8301601f19168201612f37565b9250818352368183860101111561332857600080fd5b818185018285013760009183018101919091528301525092915050565b600f82810b9082900b0360016001607f1b0319811260016001607f1b0382131715610a3157610a31613150565b60006020828403121561338457600080fd5b611c6c82612f68565b600f98890b815296880b602088015267ffffffffffffffff95861660408801529390941660608601529015156080850152840b60a084015290830b60c083015290910b60e08201526101000190565b6000604082840312156133ee57600080fd5b6133f6612f0e565b825161340181612c36565b8152602083015161341181612c36565b60208201529392505050565b6020808252602b908201527f496e697469616c697a61626c653a20636f6e7472616374206973206e6f74206960408201526a6e697469616c697a696e6760a81b606082015260800190565b600f81810b9083900b0160016001607f1b03811360016001607f1b031982121715610a3157610a31613150565b600181811c908216806134a957607f821691505b602082108103612bb257634e487b7160e01b600052602260045260246000fd5b601f821115613511576000816000526020600020601f850160051c810160208610156134f25750805b601f850160051c820191505b8181101561158e578281556001016134fe565b505050565b815167ffffffffffffffff81111561353057613530612ef8565b6135448161353e8454613495565b846134c9565b602080601f83116001811461357957600084156135615750858301515b600019600386901b1c1916600185901b17855561158e565b600085815260208120601f198616915b828110156135a857888601518255948401946001909101908401613589565b50858210156135c65787850151600019600388901b60f8161c191681555b5050505050600190811b0190555056fe4f7264657228627974657333322073656e6465722c696e743132382070726963655831382c696e7431323820616d6f756e742c75696e7436342065787069726174696f6e2c75696e743634206e6f6e636529a2646970667358221220d12b8a57b4703b1c187d745d5383f079c3b40815a3d8af7cd544920550361ebc64736f6c63430008160033",
  "linkReferences": {},
  "deployedLinkReferences": {}
}