{
  "_format": "hh-sol-artifact-1",
  "contractName": "SpotEngine",
  "sourceName": "contracts/SpotEngine.sol",
  "abi": [
    {
      "inputs": [
        {
          "internalType": "int256",
          "name": "x",
          "type": "int256"
        }
      ],
      "name": "PRBMathSD59x18__SqrtNegativeInput",
      "type": "error"
    },
    {
      "inputs": [
        {
          "internalType": "int256",
          "name": "x",
          "type": "int256"
        }
      ],
      "name": "PRBMathSD59x18__SqrtOverflow",
      "type": "error"
    },
    {
      "anonymous": false,
      "inputs": [
        {
          "indexed": false,
          "internalType": "uint32",
          "name": "productId",
          "type": "uint32"
        }
      ],
      "name": "AddProduct",
      "type": "event"
    },
    {
      "anonymous": false,
      "inputs": [
        {
          "indexed": false,
          "internalType": "uint32",
          "name": "productId",
          "type": "uint32"
        },
        {
          "indexed": false,
          "internalType": "bytes32",
          "name": "subaccount",
          "type": "bytes32"
        }
      ],
      "name": "BalanceUpdate",
      "type": "event"
    },
    {
      "anonymous": false,
      "inputs": [
        {
          "indexed": false,
          "internalType": "uint8",
          "name": "version",
          "type": "uint8"
        }
      ],
      "name": "Initialized",
      "type": "event"
    },
    {
      "anonymous": false,
      "inputs": [
        {
          "indexed": true,
          "internalType": "address",
          "name": "previousOwner",
          "type": "address"
        },
        {
          "indexed": true,
          "internalType": "address",
          "name": "newOwner",
          "type": "address"
        }
      ],
      "name": "OwnershipTransferred",
      "type": "event"
    },
    {
      "anonymous": false,
      "inputs": [
        {
          "indexed": false,
          "internalType": "uint32",
          "name": "productId",
          "type": "uint32"
        }
      ],
      "name": "ProductUpdate",
      "type": "event"
    },
    {
      "inputs": [
        {
          "internalType": "uint32",
          "name": "healthGroup",
          "type": "uint32"
        },
        {
          "internalType": "address",
          "name": "book",
          "type": "address"
        },
        {
          "internalType": "int128",
          "name": "sizeIncrement",
          "type": "int128"
        },
        {
          "internalType": "int128",
          "name": "priceIncrementX18",
          "type": "int128"
        },
        {
          "internalType": "int128",
          "name": "minSize",
          "type": "int128"
        },
        {
          "internalType": "int128",
          "name": "lpSpreadX18",
          "type": "int128"
        },
        {
          "components": [
            {
              "internalType": "address",
              "name": "token",
              "type": "address"
            },
            {
              "internalType": "int128",
              "name": "interestInflectionUtilX18",
              "type": "int128"
            },
            {
              "internalType": "int128",
              "name": "interestFloorX18",
              "type": "int128"
            },
            {
              "internalType": "int128",
              "name": "interestSmallCapX18",
              "type": "int128"
            },
            {
              "internalType": "int128",
              "name": "interestLargeCapX18",
              "type": "int128"
            }
          ],
          "internalType": "struct ISpotEngine.Config",
          "name": "config",
          "type": "tuple"
        },
        {
          "components": [
            {
              "internalType": "int32",
              "name": "longWeightInitial",
              "type": "int32"
            },
            {
              "internalType": "int32",
              "name": "shortWeightInitial",
              "type": "int32"
            },
            {
              "internalType": "int32",
              "name": "longWeightMaintenance",
              "type": "int32"
            },
            {
              "internalType": "int32",
              "name": "shortWeightMaintenance",
              "type": "int32"
            },
            {
              "internalType": "int32",
              "name": "largePositionPenalty",
              "type": "int32"
            }
          ],
          "internalType": "struct IClearinghouseState.RiskStore",
          "name": "riskStore",
          "type": "tuple"
        }
      ],
      "name": "addProduct",
      "outputs": [],
      "stateMutability": "nonpayable",
      "type": "function"
    },
    {
      "inputs": [
        {
          "components": [
            {
              "internalType": "uint32",
              "name": "productId",
              "type": "uint32"
            },
            {
              "internalType": "bytes32",
              "name": "subaccount",
              "type": "bytes32"
            },
            {
              "internalType": "int128",
              "name": "amountDelta",
              "type": "int128"
            },
            {
              "internalType": "int128",
              "name": "vQuoteDelta",
              "type": "int128"
            }
          ],
          "internalType": "struct IProductEngine.ProductDelta[]",
          "name": "deltas",
          "type": "tuple[]"
        }
      ],
      "name": "applyDeltas",
      "outputs": [],
      "stateMutability": "nonpayable",
      "type": "function"
    },
    {
      "inputs": [
        {
          "internalType": "uint32",
          "name": "productId",
          "type": "uint32"
        }
      ],
      "name": "assertUtilization",
      "outputs": [],
      "stateMutability": "view",
      "type": "function"
    },
    {
      "inputs": [
        {
          "internalType": "uint32",
          "name": "",
          "type": "uint32"
        },
        {
          "internalType": "bytes32",
          "name": "",
          "type": "bytes32"
        }
      ],
      "name": "balances",
      "outputs": [
        {
          "components": [
            {
              "internalType": "int128",
              "name": "amountNormalized",
              "type": "int128"
            }
          ],
          "internalType": "struct ISpotEngine.BalanceNormalized",
          "name": "balance",
          "type": "tuple"
        },
        {
          "components": [
            {
              "internalType": "int128",
              "name": "amount",
              "type": "int128"
            }
          ],
          "internalType": "struct ISpotEngine.LpBalance",
          "name": "lpBalance",
          "type": "tuple"
        }
      ],
      "stateMutability": "view",
      "type": "function"
    },
    {
      "inputs": [
        {
          "internalType": "uint32",
          "name": "productId",
          "type": "uint32"
        },
        {
          "internalType": "bytes32",
          "name": "subaccount",
          "type": "bytes32"
        },
        {
          "internalType": "int128",
          "name": "amountLp",
          "type": "int128"
        }
      ],
      "name": "burnLp",
      "outputs": [
        {
          "internalType": "int128",
          "name": "amountBase",
          "type": "int128"
        },
        {
          "internalType": "int128",
          "name": "amountQuote",
          "type": "int128"
        }
      ],
      "stateMutability": "nonpayable",
      "type": "function"
    },
    {
      "inputs": [
        {
          "internalType": "bytes32",
          "name": "liquidatee",
          "type": "bytes32"
        },
        {
          "internalType": "bytes32",
          "name": "liquidator",
          "type": "bytes32"
        },
        {
          "internalType": "address",
          "name": "feeCalculator",
          "type": "address"
        }
      ],
      "name": "decomposeLps",
      "outputs": [
        {
          "internalType": "int128",
          "name": "liquidationFees",
          "type": "int128"
        }
      ],
      "stateMutability": "nonpayable",
      "type": "function"
    },
    {
      "inputs": [
        {
          "internalType": "uint32",
          "name": "productId",
          "type": "uint32"
        },
        {
          "internalType": "bytes32",
          "name": "subaccount",
          "type": "bytes32"
        }
      ],
      "name": "getBalance",
      "outputs": [
        {
          "components": [
            {
              "internalType": "int128",
              "name": "amount",
              "type": "int128"
            },
            {
              "internalType": "int128",
              "name": "lastCumulativeMultiplierX18",
              "type": "int128"
            }
          ],
          "internalType": "struct ISpotEngine.Balance",
          "name": "",
          "type": "tuple"
        }
      ],
      "stateMutability": "view",
      "type": "function"
    },
    {
      "inputs": [
        {
          "internalType": "uint32",
          "name": "productId",
          "type": "uint32"
        },
        {
          "internalType": "bytes32",
          "name": "subaccount",
          "type": "bytes32"
        }
      ],
      "name": "getBalanceAmount",
      "outputs": [
        {
          "internalType": "int128",
          "name": "",
          "type": "int128"
        }
      ],
      "stateMutability": "view",
      "type": "function"
    },
    {
      "inputs": [
        {
          "internalType": "uint32",
          "name": "productId",
          "type": "uint32"
        },
        {
          "internalType": "bytes32",
          "name": "subaccount",
          "type": "bytes32"
        }
      ],
      "name": "getBalances",
      "outputs": [
        {
          "components": [
            {
              "internalType": "int128",
              "name": "amount",
              "type": "int128"
            }
          ],
          "internalType": "struct ISpotEngine.LpBalance",
          "name": "",
          "type": "tuple"
        },
        {
          "components": [
            {
              "internalType": "int128",
              "name": "amount",
              "type": "int128"
            },
            {
              "internalType": "int128",
              "name": "lastCumulativeMultiplierX18",
              "type": "int128"
            }
          ],
          "internalType": "struct ISpotEngine.Balance",
          "name": "",
          "type": "tuple"
        }
      ],
      "stateMutability": "view",
      "type": "function"
    },
    {
      "inputs": [],
      "name": "getClearinghouse",
      "outputs": [
        {
          "internalType": "address",
          "name": "",
          "type": "address"
        }
      ],
      "stateMutability": "view",
      "type": "function"
    },
    {
      "inputs": [
        {
          "internalType": "uint32",
          "name": "productId",
          "type": "uint32"
        }
      ],
      "name": "getConfig",
      "outputs": [
        {
          "components": [
            {
              "internalType": "address",
              "name": "token",
              "type": "address"
            },
            {
              "internalType": "int128",
              "name": "interestInflectionUtilX18",
              "type": "int128"
            },
            {
              "internalType": "int128",
              "name": "interestFloorX18",
              "type": "int128"
            },
            {
              "internalType": "int128",
              "name": "interestSmallCapX18",
              "type": "int128"
            },
            {
              "internalType": "int128",
              "name": "interestLargeCapX18",
              "type": "int128"
            }
          ],
          "internalType": "struct ISpotEngine.Config",
          "name": "",
          "type": "tuple"
        }
      ],
      "stateMutability": "view",
      "type": "function"
    },
    {
      "inputs": [],
      "name": "getEndpoint",
      "outputs": [
        {
          "internalType": "address",
          "name": "",
          "type": "address"
        }
      ],
      "stateMutability": "view",
      "type": "function"
    },
    {
      "inputs": [],
      "name": "getEngineType",
      "outputs": [
        {
          "internalType": "enum IProductEngine.EngineType",
          "name": "",
          "type": "uint8"
        }
      ],
      "stateMutability": "pure",
      "type": "function"
    },
    {
      "inputs": [
        {
          "internalType": "uint32",
          "name": "productId",
          "type": "uint32"
        }
      ],
      "name": "getLpState",
      "outputs": [
        {
          "components": [
            {
              "internalType": "int128",
              "name": "supply",
              "type": "int128"
            },
            {
              "components": [
                {
                  "internalType": "int128",
                  "name": "amount",
                  "type": "int128"
                },
                {
                  "internalType": "int128",
                  "name": "lastCumulativeMultiplierX18",
                  "type": "int128"
                }
              ],
              "internalType": "struct ISpotEngine.Balance",
              "name": "quote",
              "type": "tuple"
            },
            {
              "components": [
                {
                  "internalType": "int128",
                  "name": "amount",
                  "type": "int128"
                },
                {
                  "internalType": "int128",
                  "name": "lastCumulativeMultiplierX18",
                  "type": "int128"
                }
              ],
              "internalType": "struct ISpotEngine.Balance",
              "name": "base",
              "type": "tuple"
            }
          ],
          "internalType": "struct ISpotEngine.LpState",
          "name": "",
          "type": "tuple"
        }
      ],
      "stateMutability": "view",
      "type": "function"
    },
    {
      "inputs": [
        {
          "internalType": "uint32",
          "name": "productId",
          "type": "uint32"
        }
      ],
      "name": "getOraclePriceX18",
      "outputs": [
        {
          "internalType": "int128",
          "name": "",
          "type": "int128"
        }
      ],
      "stateMutability": "view",
      "type": "function"
    },
    {
      "inputs": [
        {
          "internalType": "uint32",
          "name": "healthGroup",
          "type": "uint32"
        }
      ],
      "name": "getOraclePricesX18",
      "outputs": [
        {
          "components": [
            {
              "internalType": "int128",
              "name": "spotPriceX18",
              "type": "int128"
            },
            {
              "internalType": "int128",
              "name": "perpPriceX18",
              "type": "int128"
            }
          ],
          "internalType": "struct IEndpoint.Prices",
          "name": "",
          "type": "tuple"
        }
      ],
      "stateMutability": "view",
      "type": "function"
    },
    {
      "inputs": [
        {
          "internalType": "uint32",
          "name": "productId",
          "type": "uint32"
        }
      ],
      "name": "getOrderbook",
      "outputs": [
        {
          "internalType": "address",
          "name": "",
          "type": "address"
        }
      ],
      "stateMutability": "view",
      "type": "function"
    },
    {
      "inputs": [],
      "name": "getProductIds",
      "outputs": [
        {
          "internalType": "uint32[]",
          "name": "",
          "type": "uint32[]"
        }
      ],
      "stateMutability": "view",
      "type": "function"
    },
    {
      "inputs": [
        {
          "internalType": "uint32",
          "name": "productId",
          "type": "uint32"
        },
        {
          "internalType": "bytes32",
          "name": "subaccount",
          "type": "bytes32"
        }
      ],
      "name": "getStateAndBalance",
      "outputs": [
        {
          "components": [
            {
              "internalType": "int128",
              "name": "cumulativeDepositsMultiplierX18",
              "type": "int128"
            },
            {
              "internalType": "int128",
              "name": "cumulativeBorrowsMultiplierX18",
              "type": "int128"
            },
            {
              "internalType": "int128",
              "name": "totalDepositsNormalized",
              "type": "int128"
            },
            {
              "internalType": "int128",
              "name": "totalBorrowsNormalized",
              "type": "int128"
            }
          ],
          "internalType": "struct ISpotEngine.State",
          "name": "",
          "type": "tuple"
        },
        {
          "components": [
            {
              "internalType": "int128",
              "name": "amount",
              "type": "int128"
            },
            {
              "internalType": "int128",
              "name": "lastCumulativeMultiplierX18",
              "type": "int128"
            }
          ],
          "internalType": "struct ISpotEngine.Balance",
          "name": "",
          "type": "tuple"
        }
      ],
      "stateMutability": "view",
      "type": "function"
    },
    {
      "inputs": [
        {
          "internalType": "uint32",
          "name": "productId",
          "type": "uint32"
        },
        {
          "internalType": "bytes32",
          "name": "subaccount",
          "type": "bytes32"
        }
      ],
      "name": "getStatesAndBalances",
      "outputs": [
        {
          "components": [
            {
              "internalType": "int128",
              "name": "supply",
              "type": "int128"
            },
            {
              "components": [
                {
                  "internalType": "int128",
                  "name": "amount",
                  "type": "int128"
                },
                {
                  "internalType": "int128",
                  "name": "lastCumulativeMultiplierX18",
                  "type": "int128"
                }
              ],
              "internalType": "struct ISpotEngine.Balance",
              "name": "quote",
              "type": "tuple"
            },
            {
              "components": [
                {
                  "internalType": "int128",
                  "name": "amount",
                  "type": "int128"
                },
                {
                  "internalType": "int128",
                  "name": "lastCumulativeMultiplierX18",
                  "type": "int128"
                }
              ],
              "internalType": "struct ISpotEngine.Balance",
              "name": "base",
              "type": "tuple"
            }
          ],
          "internalType": "struct ISpotEngine.LpState",
          "name": "",
          "type": "tuple"
        },
        {
          "components": [
            {
              "internalType": "int128",
              "name": "amount",
              "type": "int128"
            }
          ],
          "internalType": "struct ISpotEngine.LpBalance",
          "name": "",
          "type": "tuple"
        },
        {
          "components": [
            {
              "internalType": "int128",
              "name": "cumulativeDepositsMultiplierX18",
              "type": "int128"
            },
            {
              "internalType": "int128",
              "name": "cumulativeBorrowsMultiplierX18",
              "type": "int128"
            },
            {
              "internalType": "int128",
              "name": "totalDepositsNormalized",
              "type": "int128"
            },
            {
              "internalType": "int128",
              "name": "totalBorrowsNormalized",
              "type": "int128"
            }
          ],
          "internalType": "struct ISpotEngine.State",
          "name": "",
          "type": "tuple"
        },
        {
          "components": [
            {
              "internalType": "int128",
              "name": "amount",
              "type": "int128"
            },
            {
              "internalType": "int128",
              "name": "lastCumulativeMultiplierX18",
              "type": "int128"
            }
          ],
          "internalType": "struct ISpotEngine.Balance",
          "name": "",
          "type": "tuple"
        }
      ],
      "stateMutability": "view",
      "type": "function"
    },
    {
      "inputs": [],
      "name": "getVersion",
      "outputs": [
        {
          "internalType": "uint64",
          "name": "",
          "type": "uint64"
        }
      ],
      "stateMutability": "pure",
      "type": "function"
    },
    {
      "inputs": [
        {
          "internalType": "uint32",
          "name": "productId",
          "type": "uint32"
        }
      ],
      "name": "getWithdrawFee",
      "outputs": [
        {
          "internalType": "int128",
          "name": "",
          "type": "int128"
        }
      ],
      "stateMutability": "view",
      "type": "function"
    },
    {
      "inputs": [
        {
          "internalType": "uint32",
          "name": "productId",
          "type": "uint32"
        },
        {
          "internalType": "bytes32",
          "name": "subaccount",
          "type": "bytes32"
        }
      ],
      "name": "hasBalance",
      "outputs": [
        {
          "internalType": "bool",
          "name": "",
          "type": "bool"
        }
      ],
      "stateMutability": "view",
      "type": "function"
    },
    {
      "inputs": [
        {
          "internalType": "address",
          "name": "_clearinghouse",
          "type": "address"
        },
        {
          "internalType": "address",
          "name": "_quote",
          "type": "address"
        },
        {
          "internalType": "address",
          "name": "_endpoint",
          "type": "address"
        },
        {
          "internalType": "address",
          "name": "_admin",
          "type": "address"
        },
        {
          "internalType": "address",
          "name": "_fees",
          "type": "address"
        }
      ],
      "name": "initialize",
      "outputs": [],
      "stateMutability": "nonpayable",
      "type": "function"
    },
    {
      "inputs": [
        {
          "internalType": "uint32",
          "name": "",
          "type": "uint32"
        }
      ],
      "name": "lpStates",
      "outputs": [
        {
          "internalType": "int128",
          "name": "supply",
          "type": "int128"
        },
        {
          "components": [
            {
              "internalType": "int128",
              "name": "amount",
              "type": "int128"
            },
            {
              "internalType": "int128",
              "name": "lastCumulativeMultiplierX18",
              "type": "int128"
            }
          ],
          "internalType": "struct ISpotEngine.Balance",
          "name": "quote",
          "type": "tuple"
        },
        {
          "components": [
            {
              "internalType": "int128",
              "name": "amount",
              "type": "int128"
            },
            {
              "internalType": "int128",
              "name": "lastCumulativeMultiplierX18",
              "type": "int128"
            }
          ],
          "internalType": "struct ISpotEngine.Balance",
          "name": "base",
          "type": "tuple"
        }
      ],
      "stateMutability": "view",
      "type": "function"
    },
    {
      "inputs": [
        {
          "internalType": "int128[]",
          "name": "totalDeposits",
          "type": "int128[]"
        },
        {
          "internalType": "int128[]",
          "name": "totalBorrows",
          "type": "int128[]"
        }
      ],
      "name": "manualAssert",
      "outputs": [],
      "stateMutability": "view",
      "type": "function"
    },
    {
      "inputs": [
        {
          "internalType": "uint32",
          "name": "",
          "type": "uint32"
        }
      ],
      "name": "markets",
      "outputs": [
        {
          "internalType": "contract IOffchainBook",
          "name": "",
          "type": "address"
        }
      ],
      "stateMutability": "view",
      "type": "function"
    },
    {
      "inputs": [
        {
          "internalType": "uint32",
          "name": "productId",
          "type": "uint32"
        },
        {
          "internalType": "bytes32",
          "name": "subaccount",
          "type": "bytes32"
        },
        {
          "internalType": "int128",
          "name": "amountBase",
          "type": "int128"
        },
        {
          "internalType": "int128",
          "name": "quoteAmountLow",
          "type": "int128"
        },
        {
          "internalType": "int128",
          "name": "quoteAmountHigh",
          "type": "int128"
        }
      ],
      "name": "mintLp",
      "outputs": [],
      "stateMutability": "nonpayable",
      "type": "function"
    },
    {
      "inputs": [],
      "name": "owner",
      "outputs": [
        {
          "internalType": "address",
          "name": "",
          "type": "address"
        }
      ],
      "stateMutability": "view",
      "type": "function"
    },
    {
      "inputs": [],
      "name": "renounceOwnership",
      "outputs": [],
      "stateMutability": "nonpayable",
      "type": "function"
    },
    {
      "inputs": [
        {
          "internalType": "address",
          "name": "_endpoint",
          "type": "address"
        }
      ],
      "name": "setEndpoint",
      "outputs": [],
      "stateMutability": "nonpayable",
      "type": "function"
    },
    {
      "inputs": [
        {
          "internalType": "bytes32",
          "name": "subaccount",
          "type": "bytes32"
        }
      ],
      "name": "socializeSubaccount",
      "outputs": [],
      "stateMutability": "nonpayable",
      "type": "function"
    },
    {
      "inputs": [
        {
          "internalType": "uint32",
          "name": "",
          "type": "uint32"
        }
      ],
      "name": "states",
      "outputs": [
        {
          "internalType": "int128",
          "name": "cumulativeDepositsMultiplierX18",
          "type": "int128"
        },
        {
          "internalType": "int128",
          "name": "cumulativeBorrowsMultiplierX18",
          "type": "int128"
        },
        {
          "internalType": "int128",
          "name": "totalDepositsNormalized",
          "type": "int128"
        },
        {
          "internalType": "int128",
          "name": "totalBorrowsNormalized",
          "type": "int128"
        }
      ],
      "stateMutability": "view",
      "type": "function"
    },
    {
      "inputs": [
        {
          "internalType": "uint32",
          "name": "productId",
          "type": "uint32"
        },
        {
          "internalType": "int128",
          "name": "baseDelta",
          "type": "int128"
        },
        {
          "internalType": "int128",
          "name": "quoteDelta",
          "type": "int128"
        }
      ],
      "name": "swapLp",
      "outputs": [
        {
          "internalType": "int128",
          "name": "",
          "type": "int128"
        },
        {
          "internalType": "int128",
          "name": "",
          "type": "int128"
        }
      ],
      "stateMutability": "nonpayable",
      "type": "function"
    },
    {
      "inputs": [
        {
          "internalType": "uint32",
          "name": "productId",
          "type": "uint32"
        },
        {
          "internalType": "int128",
          "name": "amount",
          "type": "int128"
        },
        {
          "internalType": "int128",
          "name": "priceX18",
          "type": "int128"
        },
        {
          "internalType": "int128",
          "name": "sizeIncrement",
          "type": "int128"
        },
        {
          "internalType": "int128",
          "name": "lpSpreadX18",
          "type": "int128"
        }
      ],
      "name": "swapLp",
      "outputs": [
        {
          "internalType": "int128",
          "name": "baseSwapped",
          "type": "int128"
        },
        {
          "internalType": "int128",
          "name": "quoteSwapped",
          "type": "int128"
        }
      ],
      "stateMutability": "nonpayable",
      "type": "function"
    },
    {
      "inputs": [
        {
          "internalType": "address",
          "name": "newOwner",
          "type": "address"
        }
      ],
      "name": "transferOwnership",
      "outputs": [],
      "stateMutability": "nonpayable",
      "type": "function"
    },
    {
      "inputs": [
        {
          "internalType": "bytes",
          "name": "tx",
          "type": "bytes"
        }
      ],
      "name": "updateProduct",
      "outputs": [],
      "stateMutability": "nonpayable",
      "type": "function"
    },
    {
      "inputs": [
        {
          "internalType": "uint128",
          "name": "dt",
          "type": "uint128"
        }
      ],
      "name": "updateStates",
      "outputs": [],
      "stateMutability": "nonpayable",
      "type": "function"
    },
    {
      "inputs": [
        {
          "internalType": "uint32",
          "name": "",
          "type": "uint32"
        }
      ],
      "name": "withdrawFees",
      "outputs": [
        {
          "internalType": "int128",
          "name": "",
          "type": "int128"
        }
      ],
      "stateMutability": "view",
      "type": "function"
    }
  ],
  "bytecode": "0x608060405234801561001057600080fd5b50615ce380620000216000396000f3fe608060405234801561001057600080fd5b506004361061023d5760003560e01c806398de72fe1161013b578063d98752ec116100b8578063e343738c1161007c578063e343738c14610697578063ece91e3514610793578063f2fde38b146107bc578063fba35af9146107cf578063fdf4a0c0146107e257600080fd5b8063d98752ec1461061a578063dbbb41551461062d578063de7ebc9114610640578063e039bfa914610663578063e334be331461067657600080fd5b8063c7167cf5116100ff578063c7167cf514610591578063c9fe9ac3146105be578063d3d660cb146105d1578063d718c263146105e4578063d952f2a31461060757600080fd5b806398de72fe146104dd578063ad733b8e146104f0578063aed8e96714610503578063b1cb0f4214610514578063bf4c8f5f1461052557600080fd5b80634604d19b116101c9578063715018a61161018d578063715018a6146104225780637c1e14871461042a5780637f17baad1461044a5780638936f7cd146104b95780638da5cb5b146104cc57600080fd5b80634604d19b146103b757806347428e7b146103c65780634ac8d8c1146103db5780636aca31a3146103ee5780636c9a2ce31461040f57600080fd5b80632f8f1fb0116102105780632f8f1fb01461030757806330972b501461031a5780633d5cc9dc1461032d5780633f857d5a146103505780634427952d1461037057600080fd5b8063011a447a14610242578063042508e61461026d5780630d8e6e2c146102e35780631459457a146102f2575b600080fd5b610255610250366004614d3a565b6107f5565b604051600f9190910b81526020015b60405180910390f35b6102d461027b366004614d85565b606e602090815260009182526040918290208054835180850185526001830154600f81810b8352600160801b91829004810b83870152865180880190975260029094015480850b875204830b93850193909352900b9183565b60405161026493929190614da2565b604051601a8152602001610264565b610305610300366004614ddd565b610b3b565b005b610255610315366004614d85565b610d34565b610305610328366004614e93565b610dc3565b61034061033b366004614eff565b610fad565b6040516102649493929190614f78565b61036361035e366004614d85565b6110f5565b6040516102649190614fe1565b61039f61037e366004614d85565b63ffffffff166000908152606960205260409020546001600160a01b031690565b6040516001600160a01b039091168152602001610264565b60006040516102649190615005565b6103ce611174565b604051610264919061502d565b6103056103e9366004614d85565b6111f8565b6104016103fc366004614eff565b6112c2565b604051610264929190615077565b61030561041d3660046150a2565b61137e565b610305611553565b61043d610438366004614eff565b611567565b6040516102649190615117565b61048c610458366004614d85565b606c6020526000908152604090208054600190910154600f82810b92600160801b90819004820b9280830b92919004900b84565b60408051600f95860b815293850b602085015291840b9183019190915290910b6060820152608001610264565b6103056104c7366004615138565b6115fc565b6033546001600160a01b031661039f565b6103056104eb36600461516b565b611a10565b6103056104fe3660046151c5565b611edc565b6065546001600160a01b031661039f565b6066546001600160a01b031661039f565b610574610533366004614eff565b606d602090815260009283526040808420825291835291819020815180840183528154600f90810b8252835194850190935260019091015490910b82529082565b604080519251600f90810b8452915190910b602083015201610264565b6105a461059f3660046151ee565b612247565b60408051600f93840b81529190920b602082015201610264565b6103056105cc36600461522e565b6124c7565b61043d6105df366004614d85565b612748565b6102556105f2366004614d85565b606f60205260009081526040902054600f0b81565b6105a461061536600461528e565b6127cb565b6105a46106283660046152d1565b612a43565b61030561063b366004615308565b613050565b61065361064e366004614eff565b61307a565b6040519015158152602001610264565b610255610671366004614eff565b6130eb565b610689610684366004614eff565b6130ff565b604051610264929190615325565b61073d6106a5366004614d85565b6040805160a0810182526000808252602082018190529181018290526060810182905260808101919091525063ffffffff166000908152606b6020908152604091829020825160a08101845281546001600160a01b031681526001820154600f81810b94830194909452600160801b90819004840b9482019490945260029091015480830b606083015292909204900b608082015290565b6040516102649190600060a08201905060018060a01b0383511682526020830151600f0b60208301526040830151600f0b60408301526060830151600f0b60608301526080830151600f0b608083015292915050565b61039f6107a1366004614d85565b6069602052600090815260409020546001600160a01b031681565b6103056107ca366004615308565b6131bd565b6103056107dd36600461538f565b613236565b6102556107f0366004614d85565b613387565b600080805b6068546001600160801b03821610156109cf5760006068826001600160801b03168154811061082b5761082b615435565b60009182526020822060088204015460079091166004026101000a900463ffffffff169150610862828960016001607f1b03612a43565b606654604051631d9b397560e31b815263ffffffff8616600482015291935060009250610915916032916108ee916001600160a01b039091169063ecd9cba89060240160a060405180830381865afa1580156108c2573d6000803e3d6000fd5b505050506040513d601f19601f820116820180604052508101906108e69190615482565b856001613481565b61090090670de0b6b3a7640000615512565b61090a9190615555565b600f84900b90613678565b6040516338dd821d60e11b8152600481018a905263ffffffff85166024820152909150600090610994906001600160a01b038a16906371bb043a90604401602060405180830381865afa158015610970573d6000803e3d6000fd5b505050506040513d601f19601f8201168201806040525081019061090a9190615593565b90506109a08183615512565b91506109ac82876155b0565b95506109b881886155b0565b965050505050806109c8906155dd565b90506107fa565b5060408051608081018252600080516020615c6e83398151915254600f81810b8352600160801b91829004810b602084810191909152600080516020615c8e8339815191525480830b8587015292909204810b60608401526000898152600080516020615c4e833981519152808452858220865180860188529054840b81528a83529084529085902085519384019095529354900b8152909190610a87838387610a7888615603565b610a829190615512565b6136f2565b610a928382866136f2565b6000888152600080516020615c4e83398151915260209081526040808320855181546001600160801b03199081166001600160801b03928316179092558b85528285208651815490931692821692909217909155928052606c8252855191860151918316600160801b928416830217600080516020615c6e83398151915255850151606086015190831692160217600080516020615c8e83398151915255505050509392505050565b610b4885858585856137f1565b6040805160a0810182526001600160a01b038681168252670b1a2bc2ec5000006020808401918252662386f26fc10000848601908152668e1bc9bf0400006060808701918252670de0b6b3a764000060808089018281526000808052606b885299517fc8cc8bda7ad4886bea3ebbdafa02e79d37c39bf4011696b26a31a0802fd9458b80546001600160a01b03191691909a1617909855955193516001600160801b03948516600160801b9186168202177fc8cc8bda7ad4886bea3ebbdafa02e79d37c39bf4011696b26a31a0802fd9458c55925196519684169684168302969096177fc8cc8bda7ad4886bea3ebbdafa02e79d37c39bf4011696b26a31a0802fd9458d5587519485018852858552848401958652848801878152908501878152878052606c855294519551958316958316820295909517600080516020615c6e8339815191525593519251928116921690920217600080516020615c8e83398151915255606880546001810182559083527fa2153420d844928b4421650203c77babc8b33d7f2e7b450e2966db0c220977536008820401805463ffffffff60079093166004026101000a9290920219909116905591519081527f3286b0394bf1350245290b7226c92ed186bd716f28938e62dbb895298f018172910160405180910390a15050505050565b600063ffffffff8216610d5157610d4b6001613977565b92915050565b606554604051631b47234360e11b815263ffffffff841660048201526001600160a01b039091169063368e468690602401602060405180830381865afa158015610d9f573d6000803e3d6000fd5b505050506040513d601f19601f82011682018060405250810190610d4b9190615593565b60005b6001600160801b038116841115610fa65760006068826001600160801b031681548110610df557610df5615435565b6000918252602080832060088304015460079092166004026101000a90910463ffffffff16808352606c825260409283902083516080810185528154600f81810b8352600160801b91829004810b9583019590955260019092015480850b95820195909552930490910b6060830152915086866001600160801b038516818110610e8157610e81615435565b9050602002016020810190610e969190615629565b600f0b610eb782600001518360400151600f0b61367890919063ffffffff16565b600f0b14604051806040016040528060058152602001644453594e4360d81b81525090610f005760405162461bcd60e51b8152600401610ef79190615646565b60405180910390fd5b508484846001600160801b0316818110610f1c57610f1c615435565b9050602002016020810190610f319190615629565b600f0b610f5282602001518360600151600f0b61367890919063ffffffff16565b600f0b14604051806040016040528060058152602001644453594e4360d81b81525090610f925760405162461bcd60e51b8152600401610ef79190615646565b50505080610f9f906155dd565b9050610dc6565b5050505050565b610fb5614cc0565b6040805160208082018352600080835283516080808201865282825281840183905281860183905260608083018490528651808801885284815280860185905263ffffffff8b16808652606e875288862089518085018b528154600f90810b82528b51808d018d5260018085015480840b8352600160801b90819004840b838e0152848d01929092528d51808f018f5260029095015480840b8652829004830b858d0152838e0194909452848a52606c8b528c8a208d519889018e52805480840b8a52829004830b898d015284015480830b898f015204810b95870195909552918752606d88528987208c88528089528a88208b51808b018d5292810154860b8352978d905288528951978801909952945490910b855294959194939091908382846110e181856139e7565b929d919c509a509098509650505050505050565b6110fd614cc0565b5063ffffffff166000908152606e602090815260409182902082516060810184528154600f90810b825284518086018652600184015480830b8252600160801b90819004830b82870152838601919091528551808701875260029094015480830b855204900b928201929092529181019190915290565b606060688054806020026020016040519081016040528092919081815260200182805480156111ee57602002820191906000526020600020906000905b82829054906101000a900463ffffffff1663ffffffff16815260200190600401906020826003010492830192600103820291508084116111b15790505b5050505050905090565b63ffffffff8082166000908152606c602090815260409182902082516080810184528154600f81810b8352600160801b91829004810b94830185905260019093015480840b95830195909552909304900b60608301819052919261125e92919061367816565b600f0b61127f82600001518360400151600f0b61367890919063ffffffff16565b600f0b1215604051806040016040528060028152602001614d5560f01b815250906112bd5760405162461bcd60e51b8152600401610ef79190615646565b505050565b604080516020808201835260008083528351808501855281815280830182905263ffffffff8716808352606c845285832086516080810188528154600f81810b8352600160801b91829004810b8389015260019384015480820b848c015291909104810b6060830152928552606d865287852089865280875288862089518089018b5293810154850b8452958a9052865287519586019097529254900b83529293918161136f84836139e7565b945094505050505b9250929050565b611386613a4e565b60005b63ffffffff81168211156112bd5782828263ffffffff168181106113af576113af615435565b90506080020160400160208101906113c79190615629565b600f0b1561154157600083838363ffffffff168181106113e9576113e9615435565b6113ff9260206080909202019081019150614d85565b9050600084848463ffffffff1681811061141b5761141b615435565b905060800201602001359050600085858563ffffffff1681811061144157611441615435565b90506080020160400160208101906114599190615629565b63ffffffff84166000818152606c6020908152604080832081516080810183528154600f81810b8352600160801b91829004810b8387015260019093015480840b8386015204820b6060820152948452606d835281842088855283529281902081519283019091525490910b8152919250906114d68282856136f2565b60408281015163ffffffff87166000908152606c602090815283822060608701516001600160801b03948516600160801b9186169190910217600190910155606d8152838220888352905291909120825181546001600160801b031916921691909117905550505050505b8061154b81615695565b915050611389565b61155b613a9a565b6115656000613af4565b565b604080518082019091526000808252602082015263ffffffff83166000818152606c6020908152604080832081516080810183528154600f81810b8352600160801b91829004810b8387015260019093015480840b8386015204820b6060820152948452606d835281842087855283529281902081519283019091525490910b81526115f382826139e7565b95945050505050565b6066546040805180820190915260018152605560f81b6020820152906001600160a01b031633146116405760405162461bcd60e51b8152600401610ef79190615646565b5060005b6068546001600160801b0382161015611a0c5760006068826001600160801b03168154811061167557611675615435565b60009182526020822060088204015460079091166004026101000a900463ffffffff169150806116a583866130ff565b9150915060008160000151600f0b12156119f857815160408301516000916116d091600f0b90613678565b604084015183519192506116f1916116e890846155b0565b600f0b90613b46565b600f90810b84526020840151835161170a920b90613b46565b8360600181815161171b91906155b0565b600f0b90525063ffffffff84166000818152606d602090815260408083208a8452909152902080546001600160801b03191690556118b85760005b6068546001600160801b03821610156118b25760006068826001600160801b03168154811061178757611787615435565b6000918252602090912060088204015460079091166004026101000a900463ffffffff169050806117b857506118a2565b63ffffffff81166000908152606e602090815260409182902082516060810184528154600f90810b825284518086018652600184015480830b8252600160801b90819004830b828701528386019182528651808801885260029095015480840b86520490910b938301939093529283015251611835908790613baf565b63ffffffff82166000908152606e6020908152604091829020835181546001600160801b0319166001600160801b0391821617825584830151805190840151908216600160801b918316820217600184015593850151805193015192811692169092021760029091015550505b6118ab816155dd565b9050611756565b506119a7565b63ffffffff84166000908152606e602090815260409182902082516060810184528154600f90810b825284518086018652600184015480830b8252600160801b90819004830b82870152838601919091528551808701875260029094015480830b855204900b9282019290925291810182905290611937908590613baf565b63ffffffff85166000908152606e6020908152604091829020835181546001600160801b039182166001600160801b0319909116178255848301518051908401518216600160801b9081029183169190911760018401559490930151805192015183169093029116176002909101555b63ffffffff84166000908152606c60209081526040918290208551918601516001600160801b03928316600160801b9184168202178255928601516060870151908316921690920217600190910155505b50505080611a05906155dd565b9050611644565b5050565b611a18613a4e565b600083600f0b138015611a2e5750600082600f0b135b8015611a3d5750600081600f0b135b60405180604001604052806003815260200162494c4160e81b81525090611a775760405162461bcd60e51b8152600401610ef79190615646565b5063ffffffff85166000818152606e602090815260408083208151606080820184528254600f90810b83528451808601865260018086015480840b8352600160801b90819004840b838a0152858901929092528651808801885260029096015480840b8752829004830b86890152848701958652988852606c808852868920875160808082018a52825480870b8352859004860b828c015291909b015480850b8c8a0152839004840b8b86015289805290885286519081018752600080516020615c6e8339815191525480840b8252829004830b97810197909752600080516020615c8e8339815191525480830b96880196909652909404840b90850152905151909493910b15611baf57604084015151602085015151611baa91611b9f91600f0b90613b46565b600f89900b90613678565b611bbb565b611bbb611b9f8a610d34565b905085600f0b81600f0b1215604051806040016040528060038152602001620a6a8960eb1b81525090611c015760405162461bcd60e51b8152600401610ef79190615646565b5084600f0b81600f0b1315604051806040016040528060038152602001620a6a8960eb1b81525090611c465760405162461bcd60e51b8152600401610ef79190615646565b508351600090600f0b8103611c6657611c5f82896155b0565b9050611c8e565b8451604086015151611c8b9190611c8290600f8c900b90613b46565b600f0b90613678565b90505b611c9d8486604001518a613c28565b611cac83866020015184613c28565b8085600001818151611cbe91906155b0565b600f90810b90915263ffffffff8c166000908152606d602090815260408083208e8452909152812060010180548594509092611cfc9185910b6155b0565b82546101009290920a6001600160801b0381810219909316918316021790915563ffffffff8c166000908152606e602090815260408083208a5181546001600160801b0319169086161781558a830151805190840151908616600160801b91871682021760018301558b83015180519085015190871696160294909417600290940193909355606d81528282208d83528152828220835180830185529054600f90810b82528e8452600080516020615c4e8339815191528352928490208451928301909452925490910b8152909150611dd98683610a828d615603565b611de78582610a8287615603565b63ffffffff909b166000818152606d602090815260408083208e84528252808320945185546001600160801b039182166001600160801b0319918216179096559d8352600080516020615c4e83398151915282528083209e518f54908f16951694909417909d55908152606c8c528181208651878e01518d16600160801b908102918e16919091178255878401516060988901518e168202908e16176001929092019190915590805284519b8501518b1681029b8b169b909b17600080516020615c6e8339815191525583015192909301518816909802961695909517600080516020615c8e83398151915255505050505050565b6065546001600160a01b03163314611f065760405162461bcd60e51b8152600401610ef7906156ae565b6000808052606c602090815260408051608081018252600080516020615c6e83398151915254600f81810b8352600160801b91829004810b94830194909452600080516020615c8e8339815191525480850b9383019390935290910490910b606082015290611f76908284613dcf565b60005b60685463ffffffff821610156121ea57600060688263ffffffff1681548110611fa457611fa4615435565b6000918252602090912060088204015460079091166004026101000a900463ffffffff16905080611fd557506121d8565b63ffffffff81166000908152606c6020908152604080832081516080810183528154600f81810b8352600160801b91829004810b9583019590955260019092015480850b9382018490529190910490920b60608301529091036120395750506121d8565b6120476201518060076156f8565b67ffffffffffffffff16856001600160801b0316106040518060400160405280600381526020016249544960e81b815250906120965760405162461bcd60e51b8152600401610ef79190615646565b5063ffffffff82166000908152606e602090815260409182902082516060810184528154600f90810b825284518086018652600184015480830b8252600160801b90819004830b82870152838601919091528551808701875260029094015480830b855204900b9282019290925291810191909152612116838388613dcf565b612124828260400151613baf565b612132858260200151613baf565b63ffffffff83166000908152606e60209081526040808320845181546001600160801b0319166001600160801b0391821617825585840151805190850151908216600160801b91831682021760018085019190915587850151805190870151908416908416830217600290940193909355606c85529483902087519488015194821694821686029490941784559186015160608701519083169216909302179101555050505b806121e281615695565b915050611f79565b5060008052606c60209081528151908201516001600160801b03918216600160801b918316820217600080516020615c6e833981519152556040830151606084015190831692160217600080516020615c8e833981519152555050565b600080612252613a4e565b63ffffffff85166000908152606e602090815260409182902082516060810184528154600f90810b825284518086018652600184015480830b8252600160801b90819004830b828701528386019182528651808801885260029095015480840b86520490910b93830193909352928301819052519051516122d791879187919061412b565b60405180604001604052806002815260200161494d60f01b815250906123105760405162461bcd60e51b8152600401610ef79190615646565b5063ffffffff86166000908152606c602052604080822054918052600080516020615c6e83398151915254908301518051600f93840b939290920b9188919061235a9083906155b0565b600f0b905250602083015180518791906123759083906155b0565b600f90810b90915263ffffffff8a81166000908152606e6020908152604091829020885181546001600160801b0319166001600160801b0391821617825589830151805190840151908216600160801b9183168202176001840155938a015180519301519281169216909202176002909101556123fa92509089900b908490613b4616565b63ffffffff89166000908152606c602052604081206001018054909190612425908490600f0b6155b0565b92506101000a8154816001600160801b030219169083600f0b6001600160801b031602179055506124628187600f0b613b4690919063ffffffff16565b6000808052606c602052600080516020615c8e833981519152805490919061248e908490600f0b6155b0565b92506101000a8154816001600160801b030219169083600f0b6001600160801b031602179055508686945094505050505b935093915050565b6065546001600160a01b031633146124f15760405162461bcd60e51b8152600401610ef7906156ae565b60006124ff82840184615817565b905060008160c001519050806040015160030b816000015160030b131580156125365750806060015160030b816020015160030b12155b80156125905750815163ffffffff166000818152606b60205260409020546001600160a01b03161480612590575060a082015151825163ffffffff166000908152606b60205260409020546001600160a01b039081169116145b6040518060400160405280600381526020016242504360e81b815250906125ca5760405162461bcd60e51b8152600401610ef79190615646565b50815163ffffffff1660009081526069602090815260409182902054908401518285015160608601516080870151945163c40f02bd60e01b8152600f93840b600482015291830b6024830152820b604482015292900b60648301526001600160a01b03169063c40f02bd90608401600060405180830381600087803b15801561265257600080fd5b505af1158015612666573d6000803e3d6000fd5b5050505060a0820151825163ffffffff166000908152606b6020908152604091829020835181546001600160a01b0319166001600160a01b0391821617825591840151838501516001600160801b03918216600160801b918316820217600184015560608601516080909601519582169590911602939093176002909301929092556066548451915163665b7b4d60e11b815292169163ccb6f69a916127109185906004016158df565b600060405180830381600087803b15801561272a57600080fd5b505af115801561273e573d6000803e3d6000fd5b5050505050505050565b6040805180820182526000808252602082015260655491516357d2aef760e11b815263ffffffff8416600482015290916001600160a01b03169063afa55dee906024016040805180830381865afa1580156127a7573d6000803e3d6000fd5b505050506040513d601f19601f82011682018060405250810190610d4b9190615933565b6000806127d6613a4e565b63ffffffff87166000908152606e602090815260409182902082516060810184528154600f90810b825284518086018652600184015480830b8252600160801b90819004830b82870152838601919091528551808701875260029094015480830b855204810b9383019390935292830181905251900b158061285e5750602081015151600f0b155b15612870576000809250925050612a39565b63ffffffff88166000908152606c6020908152604080832054928052600080516020615c6e8339815191525490840151519184015151600f93840b939190910b916128c0918b91908b8b8b6141c9565b6040850151805192975090955086916128da9083906155b0565b600f0b905250602083015180518591906128f59083906155b0565b600f90810b90915263ffffffff8c81166000908152606e6020908152604091829020885181546001600160801b0319166001600160801b0391821617825589830151805190840151908216600160801b9183168202176001840155938a0151805193015192811692169092021760029091015561297a92509087900b908490613b4616565b63ffffffff8b166000908152606c6020526040812060010180549091906129a5908490600f0b6155b0565b92506101000a8154816001600160801b030219169083600f0b6001600160801b031602179055506129e28185600f0b613b4690919063ffffffff16565b6000808052606c602052600080516020615c8e8339815191528054909190612a0e908490600f0b6155b0565b92506101000a8154816001600160801b030219169083600f0b6001600160801b031602179055505050505b9550959350505050565b600080612a4e613a4e565b600083600f0b1360405180604001604052806003815260200162494c4160e81b81525090612a8f5760405162461bcd60e51b8152600401610ef79190615646565b5063ffffffff85166000818152606e602090815260408083208151606080820184528254600f90810b83528451808601865260018086015480840b8352600160801b90819004840b838a0152858901929092528651808801885260029096015480840b8752829004830b8689015284870195909552888852606d87528588208d895287528588208651808901885290860154830b8152988852606c808852868920875160808082018a52825480870b8352859004860b828c0152919097015480850b888a0152839004840b87860152988052875285519788018652600080516020615c6e8339815191525480830b8952819004820b96880196909652600080516020615c8e8339815191525480820b9588019590955294909304840b92850192909252909392909187900b6f7ffffffffffffffffffffffffffffffe1901612bd657825196505b86600f0b600003612bf15760008095509550505050506124bf565b86600f0b8360000151600f0b1215604051806040016040528060038152602001620494c560ec1b81525090612c395760405162461bcd60e51b8152600401610ef79190615646565b508683600001818151612c4c9190615512565b600f90810b909152855160408701515190820b9250612c719190810b908a900b6159a0565b612c7b91906159d0565b95508360000151600f0b846020015160000151600f0b88600f0b612c9f91906159a0565b612ca991906159d0565b9450612cc382856040015188612cbe90615603565b613c28565b612cd681856020015187612cbe90615603565b8684600001818151612ce89190615512565b915090600f0b9081600f0b8152505083606e60008b63ffffffff1663ffffffff16815260200190815260200160002060008201518160000160006101000a8154816001600160801b030219169083600f0b6001600160801b0316021790555060208201518160010160008201518160000160006101000a8154816001600160801b030219169083600f0b6001600160801b0316021790555060208201518160000160106101000a8154816001600160801b030219169083600f0b6001600160801b03160217905550505060408201518160020160008201518160000160006101000a8154816001600160801b030219169083600f0b6001600160801b0316021790555060208201518160000160106101000a8154816001600160801b030219169083600f0b6001600160801b03160217905550505090505082606d60008b63ffffffff1663ffffffff16815260200190815260200160002060008a815260200190815260200160002060010160008201518160000160006101000a8154816001600160801b030219169083600f0b6001600160801b031602179055509050506000606d60008b63ffffffff1663ffffffff16815260200190815260200160002060008a81526020019081526020016000206000016040518060200160405290816000820160009054906101000a9004600f0b600f0b600f0b8152505090506000606d60008063ffffffff1663ffffffff16815260200190815260200160002060008b81526020019081526020016000206000016040518060200160405290816000820160009054906101000a9004600f0b600f0b600f0b815250509050612f5084838a6136f2565b612f5b8382896136f2565b63ffffffff8b166000818152606d602090815260408083208e84528252808320865181546001600160801b03199081166001600160801b0392831617909255600080516020615c4e83398151915284528285208751815490931692821692909217909155938352606c8252808320885189840151908616600160801b9187168202178255898301516060808c015191881691881683029190911760019390930192909255938052875192880151928516928516840292909217600080516020615c6e833981519152558601519086015190831692160217600080516020615c8e83398151915255505050505050935093915050565b613058613a9a565b606580546001600160a01b0319166001600160a01b0392909216919091179055565b63ffffffff82166000908152606d60209081526040808320848452825280832081516060810183528154600f90810b82850190815282528351808601909452600190920154820b835292830191909152815151900b1515806130e35750602081015151600f0b15155b949350505050565b60006130f78383611567565b519392505050565b604080516080810182526000808252602082018190529181018290526060810191909152604080518082019091526000808252602082015263ffffffff84166000818152606c6020908152604080832081516080810183528154600f81810b8352600160801b91829004810b8387015260019093015480840b8386015204820b6060820152948452606d835281842088855283529281902081519283019091525490910b8152816131b081836139e7565b9350935050509250929050565b6131c5613a9a565b6001600160a01b03811661322a5760405162461bcd60e51b815260206004820152602660248201527f4f776e61626c653a206e6577206f776e657220697320746865207a65726f206160448201526564647265737360d01b6064820152608401610ef7565b61323381613af4565b50565b61323e613a9a565b600061325d89613253368590038501856159fe565b8a8a8a8a8a6143c5565b63ffffffff81166000908152606b6020526040902090915083906132818282615a1a565b505060408051608081018252670de0b6b3a764000080825260208083018281526000848601818152606080870183815263ffffffff99909916808452606c8652888420975194516001600160801b03958616600160801b91871682021789559251995199851699851683029990991760019788015587519081018852828152875180890189528381528086018790528186019081528851808a018a5284815280870197909752818901968752988352606e855296909120955186546001600160801b031916908316178655955180519083015190821690821687021793850193909355905180519101519082169116909202919091176002909101555050505050505050565b600063ffffffff82166133a35750670de0b6b3a7640000919050565b8163ffffffff166001036133be575065246139ca8000919050565b8163ffffffff166003036133da5750660221b262dd8000919050565b8163ffffffff166005036133f75750670de0b6b3a7640000919050565b8163ffffffff16601f036134145750670de0b6b3a7640000919050565b8163ffffffff166029036134315750670de0b6b3a7640000919050565b61343c600283615af5565b63ffffffff1660010361345157506000919050565b6040805180820182526002815261049560f41b6020820152905162461bcd60e51b8152610ef79190600401615646565b6000600282600281111561349757613497614fef565b036134ab5750670de0b6b3a7640000613671565b60008084600f0b126134e45760008360028111156134cb576134cb614fef565b146134da5784604001516134dd565b84515b9050613510565b60008360028111156134f8576134f8614fef565b1461350757846060015161350d565b84602001515b90505b60008560800151600f0b131561366e57600084600f0b13156135da57608085015160009061355d90670de0b6b3a7640000613553670f43fc2c04ee000086613b46565b6116e89190615512565b905061356d600f82900b82613678565b600f0b61357c86600f0b614673565b600f0b13156135d4576135d16135b06135a261359a88600f0b614673565b600f0b6146d4565b6080890151600f0b90613678565b6135c290670de0b6b3a76400006155b0565b670f43fc2c04ee000090613b46565b91505b5061366e565b600061360b8660800151670de0b6b3a7640000613553670c7d713b49da000086600f0b613b4690919063ffffffff16565b905061361b600f82900b82613678565b600f0b61362a86600f0b614673565b600f0b131561366c576136696136486135a261359a88600f0b614673565b61365a90670de0b6b3a76400006155b0565b670c7d713b49da000090613678565b91505b505b90505b9392505050565b600080670de0b6b3a7640000600f85810b9085900b025b05905060016001607f1b031981128015906136b1575060016001607f1b038113155b6040518060400160405280600281526020016127a360f11b815250906136ea5760405162461bcd60e51b8152600401610ef79190615646565b509392505050565b60008260000151600f0b1315613720578151604084018051613715908390615512565b600f0b90525061373a565b81516060840180516137339083906155b0565b600f0b9052505b6000808360000151600f0b13156137535750825161375a565b5060208301515b8251600090839061376e90600f0b84613678565b61377891906155b0565b9050600081600f0b131561378f5784519150613797565b846020015191505b6137a5600f82900b83613b46565b600f0b808552600012156137d15783516040860180516137c69083906155b0565b600f0b905250610fa6565b83516060860180516137e4908390615512565b600f0b9052505050505050565b600054610100900460ff16158080156138115750600054600160ff909116105b8061382b5750303b15801561382b575060005460ff166001145b61388e5760405162461bcd60e51b815260206004820152602e60248201527f496e697469616c697a61626c653a20636f6e747261637420697320616c72656160448201526d191e481a5b9a5d1a585b1a5e995960921b6064820152608401610ef7565b6000805460ff1916600117905580156138b1576000805461ff0019166101001790555b6138b9614739565b6138c284613050565b6138cb836131bd565b606680546001600160a01b038089166001600160a01b031992831681179093556067805486831693169290921790915585166000908152606a6020526040808220805460ff19908116600190811790925593835291208054909216179055801561396f576000805461ff0019169055604051600181527f7f26b83ff96e1f2b6a682f133852f6798a09c465da95921460cefb38474024989060200160405180910390a15b505050505050565b6000600f82900b670de0b6b3a76400000260016001607f1b031981128015906139a7575060016001607f1b038113155b6040518060400160405280600281526020016127a360f11b815250906139e05760405162461bcd60e51b8152600401610ef79190615646565b5092915050565b60408051808201909152600080825260208201526000808360000151600f0b1315613a1457508251613a1b565b5060208301515b6040805180820190915283518190613a3690600f0b84613678565b600f0b815260200182600f0b81525091505092915050565b336000908152606a602090815260409182902054825180840190935260018352605560f81b9183019190915260ff166132335760405162461bcd60e51b8152600401610ef79190615646565b6033546001600160a01b031633146115655760405162461bcd60e51b815260206004820181905260248201527f4f776e61626c653a2063616c6c6572206973206e6f7420746865206f776e65726044820152606401610ef7565b603380546001600160a01b038381166001600160a01b0319831681179093556040519116919082907f8be0079c531659141344cd1fd0a4f28419497f9722a3daafe3b4186f6b6457e090600090a35050565b600081600f0b600014156040518060400160405280600381526020016222212d60e91b81525090613b8a5760405162461bcd60e51b8152600401610ef79190615646565b50600082600f0b670de0b6b3a7640000600f0b85600f0b028161368f5761368f61553f565b8051600f0b600003613bc8579051600f0b602090910152565b6000808260000151600f0b1315613be157508151613be8565b5060208201515b80600f0b8260200151600f0b03613bfe57505050565b60208201518251613c1791906116e890600f0b84613678565b600f90810b83520b60209091015250565b8151600f0b158015613c3f57506020820151600f0b155b15613c5357670de0b6b3a764000060208301525b60008260000151600f0b1315613c9d57613c8182602001518360000151600f0b613b4690919063ffffffff16565b83604001818151613c929190615512565b600f0b905250613cd3565b613cbb82602001518360000151600f0b613b4690919063ffffffff16565b83606001818151613ccc91906155b0565b600f0b9052505b6000808360000151600f0b1315613cec57508251613cf3565b5060208301515b81613d1c613d11856020015184600f0b613b4690919063ffffffff16565b8551600f0b90613678565b613d2691906155b0565b600f0b80845260001215613d3c57508251613d43565b5060208301515b600f81810b602085015283516000910b1315613d9357613d7783602001518460000151600f0b613b4690919063ffffffff16565b84604001818151613d8891906155b0565b600f0b905250613dc9565b613db183602001518460000151600f0b613b4690919063ffffffff16565b84606001818151613dc29190615512565b600f0b9052505b50505050565b600080613df084600001518560400151600f0b61367890919063ffffffff16565b90506000613e1285602001518660600151600f0b61367890919063ffffffff16565b905081600f0b600014613e3257613e2d600f82900b83613b46565b613e35565b60005b63ffffffff87166000908152606b60209081526040808320815160a08101835281546001600160a01b031681526001820154600f81810b95830195909552600160801b90819004850b93820184905260029092015480850b606083015291909104830b608082015293965091935085900b8303613eb457506000613f50565b8160200151600f0b85600f0b1215613ef957613ee882602001516116e8878560600151600f0b61367890919063ffffffff16565b613ef290826155b0565b9050613f50565b613f34613f268360200151670de0b6b3a7640000613f179190615512565b60208501516116e89089615512565b6080840151600f0b90613678565b8260600151613f4391906155b0565b613f4d90826155b0565b90505b613f6b613f606301e13380613977565b600f83900b90613b46565b9050613f8c86613f8383670de0b6b3a76400006155b0565b600f0b90614768565b925050506000613fb4670de0b6b3a764000083613fa99190615512565b600f86900b90613678565b60675460405163f82ce57d60e01b815263ffffffff8a166004820152919250600091614040916001600160a01b03169063f82ce57d90602401602060405180830381865afa15801561400a573d6000803e3d6000fd5b505050506040513d601f19601f8201168201806040525081019061402e9190615593565b61090a90670de0b6b3a7640000615512565b9050600061405c6140518385615512565b600f87900b90613678565b602089015190915061407190600f0b85613678565b600f0b602089015261409961408e83670de0b6b3a76400006155b0565b8951600f0b90613678565b600f90810b895281900b156141205763ffffffff89166000908152606d6020908152604080832083805282529182902082519182019092529054600f0b81526140e38982846136f2565b63ffffffff8a166000908152606d602090815260408083208380529091529020905181546001600160801b0319166001600160801b039091161790555b505050505050505050565b600082600f0b60001480614142575081600f0b6000145b8061415a5750600061415486856155b0565b600f0b13155b806141725750600061416c85846155b0565b600f0b13155b1561417f575060006130e3565b600082600f0b84600f0b61419391906159a0565b905060006141a186856155b0565b600f0b6141ae88876155b0565b600f0b6141bb91906159a0565b919091139695505050505050565b60008086600f0b600014806141e1575085600f0b6000145b156141f1575060009050806143ba565b6000614201600f88900b89613b46565b9050600061421785670de0b6b3a7640000615512565b905060008a600f0b131561425557614233600f88900b82613b46565b965081600f0b87600f0b12614250576000809350935050506143ba565b614280565b614263600f88900b82613678565b965081600f0b87600f0b13614280576000809350935050506143ba565b600088600f0b8a600f0b61429491906159a0565b905060006142a1896147f0565b600f0b6142ad836148bd565b6142bb90633b9aca006159a0565b6142c591906159d0565b90506000808d600f0b1380156142ea5750600f82900b6142e58e8e6155b0565b600f0b135b80614312575060008d600f0b1280156143125750600f82900b61430d8e8e6155b0565b600f0b125b15614351578b600f0b82600f0b1261433e576143376143318d84615512565b8a614972565b9050614354565b61433761434b8d84615512565b8a614a0f565b508b5b6000600f8c900b614365838f6155b0565b61437290600f0b866159d0565b61437c9190615b18565b905060008e600f0b131561439f57614398600f82900b86613678565b90506143b0565b6143ad600f82900b86613b46565b90505b9096509450505050505b965096945050505050565b60006001600160a01b0386166143da57600080fd5b866040015160030b876000015160030b131580156144065750866060015160030b876020015160030b12155b6040518060400160405280600381526020016242504360e81b815250906144405760405162461bcd60e51b8152600401610ef79190615646565b506066546040516309b7c90560e21b81526001600160a01b03909116906326df2414906144759089908b908d90600401615b38565b6020604051808303816000875af1158015614494573d6000803e3d6000fd5b505050506040513d601f19601f820116820180604052508101906144b89190615ba3565b606880546001818101909255600881047fa2153420d844928b4421650203c77babc8b33d7f2e7b450e2966db0c2209775301805463ffffffff80861660046007909516949094026101000a8481029102199091161790556001600160a01b03808a166000818152606a60209081526040808320805460ff191690971790965593815260699093529290912080546001600160a01b031916831790556066549293509091635a174b8e9116306145756065546001600160a01b031690565b6033546001600160a01b031660675460405160e087901b6001600160e01b03191681526001600160a01b039586166004820152938516602485015291841660448401528316606483015291909116608482015263ffffffff841660a4820152600f88810b60c483015287810b60e483015286810b61010483015285900b61012482015261014401600060405180830381600087803b15801561461657600080fd5b505af115801561462a573d6000803e3d6000fd5b505060405163ffffffff841681527f3286b0394bf1350245290b7226c92ed186bd716f28938e62dbb895298f0181729250602001905060405180910390a1979650505050505050565b60408051808201909152600281526127a360f11b6020820152600090600f83900b60016001607f1b0319036146bb5760405162461bcd60e51b8152600401610ef79190615646565b50600082600f0b126146cd5781610d4b565b5060000390565b6000806146e383600f0b614aa6565b905060016001607f1b031981128015906139a7575060408051808201909152600281526127a360f11b602082015260016001607f1b038213156139e05760405162461bcd60e51b8152600401610ef79190615646565b600054610100900460ff166147605760405162461bcd60e51b8152600401610ef790615bc0565b611565614b1c565b60008082600f0b12156040518060400160405280600281526020016127a360f11b815250906147aa5760405162461bcd60e51b8152600401610ef79190615646565b50670de0b6b3a764000060015b83600f0b81600f0b136136ea57808416600f0b156147dc576147d98286613678565b91505b6147e68586613678565b94506002026147b7565b60008082600f0b12156148415760405162461bcd60e51b815260206004820152601960248201527864732d6d6174682d737172742d6e6f6e2d706f73697469766560381b6044820152606401610ef7565b600382600f0b13156148a9575080600061485c600283615555565b6148679060016155b0565b90505b81600f0b81600f0b12156148a3579050806002816148888186615555565b61489291906155b0565b61489c9190615555565b905061486a565b50919050565b81600f0b6000146148b8575060015b919050565b60008082121561490b5760405162461bcd60e51b815260206004820152601960248201527864732d6d6174682d737172742d6e6f6e2d706f73697469766560381b6044820152606401610ef7565b600382131561496457508060006149236002836159d0565b61492e906001615c0b565b90505b818112156148a35790508060028161494981866159d0565b6149539190615c0b565b61495d91906159d0565b9050614931565b81156148b857506001919050565b60008082600f0b136149be5760405162461bcd60e51b8152602060048201526015602482015274191ccb5b585d1a0b599b1bdbdc8b5b9959cb5b5bd9605a1b6044820152606401610ef7565b60006149ca8385615c2b565b905080600f0b6000036149df578391506139e0565b600084600f0b1215614a0557826149f68286615512565b614a009190615512565b6130e3565b6130e38185615512565b60008082600f0b13614a5a5760405162461bcd60e51b8152602060048201526014602482015273191ccb5b585d1a0b58d95a5b0b5b9959cb5b5bd960621b6044820152606401610ef7565b6000614a668385615c2b565b905080600f0b600003614a7b578391506139e0565b600084600f0b1215614a9157614a008185615512565b80614a9c84866155b0565b6130e39190615512565b600080821215614acc5760405163608c83ff60e11b815260048101839052602401610ef7565b7809392ee8e921d5d073aff322e62439fcf32d7f344649470f90821315614b0957604051632c482c3960e01b815260048101839052602401610ef7565b610d4b670de0b6b3a76400008302614b4c565b600054610100900460ff16614b435760405162461bcd60e51b8152600401610ef790615bc0565b61156533613af4565b600081600003614b5e57506000919050565b50600181600160801b8110614b785760409190911b9060801c5b680100000000000000008110614b935760209190911b9060401c5b6401000000008110614baa5760109190911b9060201c5b620100008110614bbf5760089190911b9060101c5b6101008110614bd35760049190911b9060081c5b60108110614be65760029190911b9060041c5b60088110614bf657600182901b91505b6001828481614c0757614c0761553f565b048301901c91506001828481614c1f57614c1f61553f565b048301901c91506001828481614c3757614c3761553f565b048301901c91506001828481614c4f57614c4f61553f565b048301901c91506001828481614c6757614c6761553f565b048301901c91506001828481614c7f57614c7f61553f565b048301901c91506001828481614c9757614c9761553f565b048301901c91506000828481614caf57614caf61553f565b0490508083101561367157826130e3565b60405180606001604052806000600f0b8152602001614cf860405180604001604052806000600f0b81526020016000600f0b81525090565b8152602001614d2060405180604001604052806000600f0b81526020016000600f0b81525090565b905290565b6001600160a01b038116811461323357600080fd5b600080600060608486031215614d4f57600080fd5b83359250602084013591506040840135614d6881614d25565b809150509250925092565b63ffffffff8116811461323357600080fd5b600060208284031215614d9757600080fd5b813561367181614d73565b600f84810b82528351810b60208084019190915280850151820b60408401528351820b6060840152830151900b608082015260a081016130e3565b600080600080600060a08688031215614df557600080fd5b8535614e0081614d25565b94506020860135614e1081614d25565b93506040860135614e2081614d25565b92506060860135614e3081614d25565b91506080860135614e4081614d25565b809150509295509295909350565b60008083601f840112614e6057600080fd5b50813567ffffffffffffffff811115614e7857600080fd5b6020830191508360208260051b850101111561137757600080fd5b60008060008060408587031215614ea957600080fd5b843567ffffffffffffffff80821115614ec157600080fd5b614ecd88838901614e4e565b90965094506020870135915080821115614ee657600080fd5b50614ef387828801614e4e565b95989497509550505050565b60008060408385031215614f1257600080fd5b8235614f1d81614d73565b946020939093013593505050565b8051600f0b82526020810151614f5760208401828051600f0b82526020810151600f0b60208301525050565b50604001518051600f90810b6060840152602090910151900b608090910152565b6101808101614f878287614f2b565b9351600f90810b60a08301528351810b60c0830152602080850151820b60e08401526040850151820b610100840152606090940151810b6101208301528251810b6101408301529190920151900b61016090910152919050565b60a08101610d4b8284614f2b565b634e487b7160e01b600052602160045260246000fd5b602081016002831061502757634e487b7160e01b600052602160045260246000fd5b91905290565b6020808252825182820181905260009190848201906040850190845b8181101561506b57835163ffffffff1683529284019291840191600101615049565b50909695505050505050565b8251600f0b81526060810161367160208301848051600f0b82526020810151600f0b60208301525050565b600080602083850312156150b557600080fd5b823567ffffffffffffffff808211156150cd57600080fd5b818501915085601f8301126150e157600080fd5b8135818111156150f057600080fd5b8660208260071b850101111561510557600080fd5b60209290920196919550909350505050565b60408101610d4b82848051600f0b82526020810151600f0b60208301525050565b60006020828403121561514a57600080fd5b5035919050565b80600f0b811461323357600080fd5b80356148b881615151565b600080600080600060a0868803121561518357600080fd5b853561518e81614d73565b94506020860135935060408601356151a581615151565b925060608601356151b581615151565b91506080860135614e4081615151565b6000602082840312156151d757600080fd5b81356001600160801b038116811461367157600080fd5b60008060006060848603121561520357600080fd5b833561520e81614d73565b9250602084013561521e81615151565b91506040840135614d6881615151565b6000806020838503121561524157600080fd5b823567ffffffffffffffff8082111561525957600080fd5b818501915085601f83011261526d57600080fd5b81358181111561527c57600080fd5b86602082850101111561510557600080fd5b600080600080600060a086880312156152a657600080fd5b85356152b181614d73565b945060208601356152c181615151565b935060408601356151a581615151565b6000806000606084860312156152e657600080fd5b83356152f181614d73565b9250602084013591506040840135614d6881615151565b60006020828403121561531a57600080fd5b813561367181614d25565b60c0810161536082858051600f0b82526020810151600f0b60208301526040810151600f0b60408301526060810151600f0b60608301525050565b8251600f90810b60808401526020840151900b60a0830152613671565b600060a082840312156148a357600080fd5b600080600080600080600080610200898b0312156153ac57600080fd5b88356153b781614d73565b975060208901356153c781614d25565b965060408901356153d781615151565b955060608901356153e781615151565b945060808901356153f781615151565b935060a089013561540781615151565b92506154168a60c08b0161537d565b91506154268a6101608b0161537d565b90509295985092959890939650565b634e487b7160e01b600052603260045260246000fd5b60405160a0810167ffffffffffffffff8111828210171561547c57634e487b7160e01b600052604160045260246000fd5b60405290565b600060a0828403121561549457600080fd5b61549c61544b565b82516154a781615151565b815260208301516154b781615151565b602082015260408301516154ca81615151565b604082015260608301516154dd81615151565b606082015260808301516154f081615151565b60808201529392505050565b634e487b7160e01b600052601160045260246000fd5b600f82810b9082900b0360016001607f1b0319811260016001607f1b0382131715610d4b57610d4b6154fc565b634e487b7160e01b600052601260045260246000fd5b600081600f0b83600f0b8061556c5761556c61553f565b60016001607f1b031982146000198214161561558a5761558a6154fc565b90059392505050565b6000602082840312156155a557600080fd5b815161367181615151565b600f81810b9083900b0160016001607f1b03811360016001607f1b031982121715610d4b57610d4b6154fc565b60006001600160801b038083168181036155f9576155f96154fc565b6001019392505050565b600081600f0b60016001607f1b03198103615620576156206154fc565b60000392915050565b60006020828403121561563b57600080fd5b813561367181615151565b60006020808352835180602085015260005b8181101561567457858101830151858201604001528201615658565b506000604082860101526040601f19601f8301168501019250505092915050565b600063ffffffff8083168181036155f9576155f96154fc565b6020808252602a908201527f53657175656e63657247617465643a2063616c6c6572206973206e6f742074686040820152691948195b991c1bda5b9d60b21b606082015260800190565b67ffffffffffffffff81811683821602808216919082811461571c5761571c6154fc565b505092915050565b600060a0828403121561573657600080fd5b61573e61544b565b9050813561574b81614d25565b8152602082013561575b81615151565b6020820152604082013561576e81615151565b6040820152606082013561578181615151565b6060820152608082013561579481615151565b608082015292915050565b8035600381900b81146148b857600080fd5b600060a082840312156157c357600080fd5b6157cb61544b565b90506157d68261579f565b81526157e46020830161579f565b60208201526157f56040830161579f565b60408201526158066060830161579f565b60608201526157946080830161579f565b60006101e0828403121561582a57600080fd5b60405160e0810181811067ffffffffffffffff8211171561585b57634e487b7160e01b600052604160045260246000fd5b604052823561586981614d73565b8152602083013561587981615151565b6020820152604083013561588c81615151565b604082015261589d60608401615160565b60608201526158ae60808401615160565b60808201526158c08460a08501615724565b60a08201526158d38461014085016157b1565b60c08201529392505050565b63ffffffff8316815260c081016136716020830184805160030b8252602081015160030b6020830152604081015160030b6040830152606081015160030b6060830152608081015160030b60808301525050565b60006040828403121561594557600080fd5b6040516040810181811067ffffffffffffffff8211171561597657634e487b7160e01b600052604160045260246000fd5b604052825161598481615151565b8152602083015161599481615151565b60208201529392505050565b80820260008212600160ff1b841416156159bc576159bc6154fc565b8181058314821517610d4b57610d4b6154fc565b6000826159df576159df61553f565b600160ff1b8214600019841416156159f9576159f96154fc565b500590565b600060a08284031215615a1057600080fd5b61367183836157b1565b8135615a2581614d25565b81546001600160a01b0319166001600160a01b0391909116178155600181016020830135615a5281615151565b81546001600160801b0319166001600160801b038216178255506040830135615a7a81615151565b81546001600160801b0316608082901b6001600160801b0319161782555050600281016060830135615aab81615151565b81546001600160801b0319166001600160801b038216178255506080830135615ad381615151565b81546001600160801b0316608082901b6001600160801b031916178255613dc9565b600063ffffffff80841680615b0c57615b0c61553f565b92169190910692915050565b81810360008312801583831316838312821617156139e0576139e06154fc565b6001600160a01b038416815260e08101615b8f6020830185805160030b8252602081015160030b6020830152604081015160030b6040830152606081015160030b6060830152608081015160030b60808301525050565b63ffffffff831660c0830152949350505050565b600060208284031215615bb557600080fd5b815161367181614d73565b6020808252602b908201527f496e697469616c697a61626c653a20636f6e7472616374206973206e6f74206960408201526a6e697469616c697a696e6760a81b606082015260800190565b808201828112600083128015821682158216171561571c5761571c6154fc565b600082600f0b80615c3e57615c3e61553f565b8083600f0b079150509291505056feda90043ba5b4096ba14704bc227ab0d3167da15b887e62ab2e76e37daa7113567febd347df14ea35c529e50fb2dd629d4a6226f5ccc893710fb466f8b83823fc7febd347df14ea35c529e50fb2dd629d4a6226f5ccc893710fb466f8b83823fda2646970667358221220559652f82c1d69509358e65e929c73560e1742564bdc96aefd94e4267bbd2a4164736f6c63430008160033",
  "linkReferences": {},
  "deployedLinkReferences": {}
}