{
  "_format": "hh-sol-artifact-1",
  "contractName": "Endpoint",
  "sourceName": "contracts/Endpoint.sol",
  "abi": [
    {
      "anonymous": false,
      "inputs": [],
      "name": "EIP712DomainChanged",
      "type": "event"
    },
    {
      "anonymous": false,
      "inputs": [
        {
          "indexed": false,
          "internalType": "uint8",
          "name": "version",
          "type": "uint8"
        }
      ],
      "name": "Initialized",
      "type": "event"
    },
    {
      "anonymous": false,
      "inputs": [
        {
          "indexed": true,
          "internalType": "address",
          "name": "previousOwner",
          "type": "address"
        },
        {
          "indexed": true,
          "internalType": "address",
          "name": "newOwner",
          "type": "address"
        }
      ],
      "name": "OwnershipTransferred",
      "type": "event"
    },
    {
      "anonymous": false,
      "inputs": [],
      "name": "SubmitTransactions",
      "type": "event"
    },
    {
      "inputs": [],
      "name": "clearinghouse",
      "outputs": [
        {
          "internalType": "contract IClearinghouse",
          "name": "",
          "type": "address"
        }
      ],
      "stateMutability": "view",
      "type": "function"
    },
    {
      "inputs": [
        {
          "internalType": "bytes12",
          "name": "subaccountName",
          "type": "bytes12"
        },
        {
          "internalType": "uint32",
          "name": "productId",
          "type": "uint32"
        },
        {
          "internalType": "uint128",
          "name": "amount",
          "type": "uint128"
        }
      ],
      "name": "depositCollateral",
      "outputs": [],
      "stateMutability": "nonpayable",
      "type": "function"
    },
    {
      "inputs": [
        {
          "internalType": "bytes32",
          "name": "subaccount",
          "type": "bytes32"
        },
        {
          "internalType": "uint32",
          "name": "productId",
          "type": "uint32"
        },
        {
          "internalType": "uint128",
          "name": "amount",
          "type": "uint128"
        },
        {
          "internalType": "string",
          "name": "referralCode",
          "type": "string"
        }
      ],
      "name": "depositCollateralWithReferral",
      "outputs": [],
      "stateMutability": "nonpayable",
      "type": "function"
    },
    {
      "inputs": [
        {
          "internalType": "bytes12",
          "name": "subaccountName",
          "type": "bytes12"
        },
        {
          "internalType": "uint32",
          "name": "productId",
          "type": "uint32"
        },
        {
          "internalType": "uint128",
          "name": "amount",
          "type": "uint128"
        },
        {
          "internalType": "string",
          "name": "referralCode",
          "type": "string"
        }
      ],
      "name": "depositCollateralWithReferral",
      "outputs": [],
      "stateMutability": "nonpayable",
      "type": "function"
    },
    {
      "inputs": [],
      "name": "eip712Domain",
      "outputs": [
        {
          "internalType": "bytes1",
          "name": "fields",
          "type": "bytes1"
        },
        {
          "internalType": "string",
          "name": "name",
          "type": "string"
        },
        {
          "internalType": "string",
          "name": "version",
          "type": "string"
        },
        {
          "internalType": "uint256",
          "name": "chainId",
          "type": "uint256"
        },
        {
          "internalType": "address",
          "name": "verifyingContract",
          "type": "address"
        },
        {
          "internalType": "bytes32",
          "name": "salt",
          "type": "bytes32"
        },
        {
          "internalType": "uint256[]",
          "name": "extensions",
          "type": "uint256[]"
        }
      ],
      "stateMutability": "view",
      "type": "function"
    },
    {
      "inputs": [
        {
          "internalType": "uint32",
          "name": "count",
          "type": "uint32"
        }
      ],
      "name": "executeSlowModeTransactions",
      "outputs": [],
      "stateMutability": "nonpayable",
      "type": "function"
    },
    {
      "inputs": [
        {
          "internalType": "uint32",
          "name": "productId",
          "type": "uint32"
        }
      ],
      "name": "getBook",
      "outputs": [
        {
          "internalType": "address",
          "name": "",
          "type": "address"
        }
      ],
      "stateMutability": "view",
      "type": "function"
    },
    {
      "inputs": [
        {
          "internalType": "bytes32",
          "name": "subaccount",
          "type": "bytes32"
        }
      ],
      "name": "getLinkedSigner",
      "outputs": [
        {
          "internalType": "address",
          "name": "",
          "type": "address"
        }
      ],
      "stateMutability": "view",
      "type": "function"
    },
    {
      "inputs": [
        {
          "internalType": "address",
          "name": "sender",
          "type": "address"
        }
      ],
      "name": "getNonce",
      "outputs": [
        {
          "internalType": "uint64",
          "name": "",
          "type": "uint64"
        }
      ],
      "stateMutability": "view",
      "type": "function"
    },
    {
      "inputs": [
        {
          "internalType": "uint32",
          "name": "productId",
          "type": "uint32"
        }
      ],
      "name": "getPriceX18",
      "outputs": [
        {
          "internalType": "int128",
          "name": "priceX18",
          "type": "int128"
        }
      ],
      "stateMutability": "view",
      "type": "function"
    },
    {
      "inputs": [
        {
          "internalType": "uint32",
          "name": "healthGroup",
          "type": "uint32"
        }
      ],
      "name": "getPricesX18",
      "outputs": [
        {
          "components": [
            {
              "internalType": "int128",
              "name": "spotPriceX18",
              "type": "int128"
            },
            {
              "internalType": "int128",
              "name": "perpPriceX18",
              "type": "int128"
            }
          ],
          "internalType": "struct IEndpoint.Prices",
          "name": "",
          "type": "tuple"
        }
      ],
      "stateMutability": "view",
      "type": "function"
    },
    {
      "inputs": [],
      "name": "getSequencer",
      "outputs": [
        {
          "internalType": "address",
          "name": "",
          "type": "address"
        }
      ],
      "stateMutability": "view",
      "type": "function"
    },
    {
      "inputs": [
        {
          "internalType": "bytes32",
          "name": "subaccount",
          "type": "bytes32"
        }
      ],
      "name": "getSubaccountId",
      "outputs": [
        {
          "internalType": "uint64",
          "name": "",
          "type": "uint64"
        }
      ],
      "stateMutability": "view",
      "type": "function"
    },
    {
      "inputs": [],
      "name": "getTime",
      "outputs": [
        {
          "internalType": "uint128",
          "name": "",
          "type": "uint128"
        }
      ],
      "stateMutability": "view",
      "type": "function"
    },
    {
      "inputs": [],
      "name": "getVersion",
      "outputs": [
        {
          "internalType": "uint64",
          "name": "",
          "type": "uint64"
        }
      ],
      "stateMutability": "pure",
      "type": "function"
    },
    {
      "inputs": [
        {
          "internalType": "address",
          "name": "_sanctions",
          "type": "address"
        },
        {
          "internalType": "address",
          "name": "_sequencer",
          "type": "address"
        },
        {
          "internalType": "contract IClearinghouse",
          "name": "_clearinghouse",
          "type": "address"
        },
        {
          "internalType": "uint64",
          "name": "slowModeTimeout",
          "type": "uint64"
        },
        {
          "internalType": "uint128",
          "name": "_time",
          "type": "uint128"
        },
        {
          "internalType": "int128[]",
          "name": "_prices",
          "type": "int128[]"
        }
      ],
      "name": "initialize",
      "outputs": [],
      "stateMutability": "nonpayable",
      "type": "function"
    },
    {
      "inputs": [],
      "name": "nSubmissions",
      "outputs": [
        {
          "internalType": "uint64",
          "name": "",
          "type": "uint64"
        }
      ],
      "stateMutability": "view",
      "type": "function"
    },
    {
      "inputs": [],
      "name": "owner",
      "outputs": [
        {
          "internalType": "address",
          "name": "",
          "type": "address"
        }
      ],
      "stateMutability": "view",
      "type": "function"
    },
    {
      "inputs": [
        {
          "internalType": "address",
          "name": "sender",
          "type": "address"
        },
        {
          "internalType": "bytes",
          "name": "transaction",
          "type": "bytes"
        }
      ],
      "name": "processSlowModeTransaction",
      "outputs": [],
      "stateMutability": "nonpayable",
      "type": "function"
    },
    {
      "inputs": [
        {
          "internalType": "address",
          "name": "",
          "type": "address"
        }
      ],
      "name": "referralCodes",
      "outputs": [
        {
          "internalType": "string",
          "name": "",
          "type": "string"
        }
      ],
      "stateMutability": "view",
      "type": "function"
    },
    {
      "inputs": [
        {
          "internalType": "address",
          "name": "wallet",
          "type": "address"
        },
        {
          "internalType": "bool",
          "name": "transferable",
          "type": "bool"
        }
      ],
      "name": "registerTransferableWallet",
      "outputs": [],
      "stateMutability": "nonpayable",
      "type": "function"
    },
    {
      "inputs": [],
      "name": "renounceOwnership",
      "outputs": [],
      "stateMutability": "nonpayable",
      "type": "function"
    },
    {
      "inputs": [
        {
          "internalType": "bytes32",
          "name": "subaccount",
          "type": "bytes32"
        }
      ],
      "name": "requireSubaccount",
      "outputs": [],
      "stateMutability": "view",
      "type": "function"
    },
    {
      "inputs": [
        {
          "internalType": "uint32",
          "name": "",
          "type": "uint32"
        }
      ],
      "name": "sequencerFee",
      "outputs": [
        {
          "internalType": "int128",
          "name": "",
          "type": "int128"
        }
      ],
      "stateMutability": "view",
      "type": "function"
    },
    {
      "inputs": [],
      "name": "sequencerFees",
      "outputs": [
        {
          "internalType": "int128",
          "name": "",
          "type": "int128"
        }
      ],
      "stateMutability": "view",
      "type": "function"
    },
    {
      "inputs": [
        {
          "internalType": "uint32",
          "name": "productId",
          "type": "uint32"
        },
        {
          "internalType": "address",
          "name": "book",
          "type": "address"
        }
      ],
      "name": "setBook",
      "outputs": [],
      "stateMutability": "nonpayable",
      "type": "function"
    },
    {
      "inputs": [
        {
          "internalType": "address",
          "name": "_sequencer",
          "type": "address"
        }
      ],
      "name": "setSequencer",
      "outputs": [],
      "stateMutability": "nonpayable",
      "type": "function"
    },
    {
      "inputs": [],
      "name": "slowModeConfig",
      "outputs": [
        {
          "internalType": "uint64",
          "name": "timeout",
          "type": "uint64"
        },
        {
          "internalType": "uint64",
          "name": "txCount",
          "type": "uint64"
        },
        {
          "internalType": "uint64",
          "name": "txUpTo",
          "type": "uint64"
        }
      ],
      "stateMutability": "view",
      "type": "function"
    },
    {
      "inputs": [
        {
          "internalType": "uint64",
          "name": "",
          "type": "uint64"
        }
      ],
      "name": "slowModeTxs",
      "outputs": [
        {
          "internalType": "uint64",
          "name": "executableAt",
          "type": "uint64"
        },
        {
          "internalType": "address",
          "name": "sender",
          "type": "address"
        },
        {
          "internalType": "bytes",
          "name": "tx",
          "type": "bytes"
        }
      ],
      "stateMutability": "view",
      "type": "function"
    },
    {
      "inputs": [
        {
          "internalType": "bytes",
          "name": "transaction",
          "type": "bytes"
        }
      ],
      "name": "submitSlowModeTransaction",
      "outputs": [],
      "stateMutability": "nonpayable",
      "type": "function"
    },
    {
      "inputs": [
        {
          "internalType": "bytes[]",
          "name": "transactions",
          "type": "bytes[]"
        }
      ],
      "name": "submitTransactions",
      "outputs": [],
      "stateMutability": "nonpayable",
      "type": "function"
    },
    {
      "inputs": [
        {
          "internalType": "uint64",
          "name": "idx",
          "type": "uint64"
        },
        {
          "internalType": "bytes[]",
          "name": "transactions",
          "type": "bytes[]"
        }
      ],
      "name": "submitTransactionsChecked",
      "outputs": [],
      "stateMutability": "nonpayable",
      "type": "function"
    },
    {
      "inputs": [
        {
          "internalType": "uint64",
          "name": "idx",
          "type": "uint64"
        },
        {
          "internalType": "bytes[]",
          "name": "transactions",
          "type": "bytes[]"
        },
        {
          "internalType": "uint256",
          "name": "gasLimit",
          "type": "uint256"
        }
      ],
      "name": "submitTransactionsCheckedWithGasLimit",
      "outputs": [
        {
          "internalType": "uint64",
          "name": "",
          "type": "uint64"
        },
        {
          "internalType": "uint256",
          "name": "",
          "type": "uint256"
        }
      ],
      "stateMutability": "nonpayable",
      "type": "function"
    },
    {
      "inputs": [
        {
          "internalType": "address",
          "name": "newOwner",
          "type": "address"
        }
      ],
      "name": "transferOwnership",
      "outputs": [],
      "stateMutability": "nonpayable",
      "type": "function"
    }
  ],
  "bytecode": "0x608060405234801561001057600080fd5b5061608480620000216000396000f3fe608060405234801561001057600080fd5b50600436106102065760003560e01c806384b0196e1161011a578063afa55dee116100ad578063d6473aaf1161007c578063d6473aaf146105c5578063e1a291a2146105d8578063e604ed9e146105eb578063e9bc7462146105fe578063f2fde38b1461061157600080fd5b8063afa55dee146104a3578063b8043ede14610521578063cf8fdb0914610574578063cf987c9b1461059657600080fd5b806391c1e3d7116100e957806391c1e3d7146104245780639534dd3e1461044d578063a53051bc1461046d578063ae3a86521461048057600080fd5b806384b0196e146103d257806387324338146103ed5780638da5cb5b146104005780638e5d588c1461041157600080fd5b80632d0335ab1161019d5780634d96a90a1161016c5780634d96a90a1461035f578063557ed1ba146103845780635d4f5f97146103a45780636cfe5fe4146103b7578063715018a6146103ca57600080fd5b80632d0335ab146102d55780632f9a274414610307578063368e46861461033957806339a135e71461034c57600080fd5b8063221f0939116101d9578063221f09391461027357806322d4a82d146102865780632547fa3e146102af5780632715e15c146102c257600080fd5b80630d3ad0391461020b5780630d8e6e2c1461023057806318ed16eb1461024b5780631f186b271461025e575b600080fd5b609f5461021890600f0b81565b604051600f9190910b81526020015b60405180910390f35b601a5b6040516001600160401b039091168152602001610227565b60a654610233906001600160401b031681565b61027161026c36600461412d565b610624565b005b61027161028136600461430b565b610706565b610233610294366004614388565b600090815260a060205260409020546001600160401b031690565b6102716102bd3660046143b6565b610a16565b6102716102d03660046143f1565b610a40565b6102336102e33660046143b6565b6001600160a01b0316600090815260a560205260409020546001600160401b031690565b61031a610315366004614443565b610ab6565b604080516001600160401b039093168352602083019190915201610227565b61021861034736600461449c565b610bd3565b61027161035a3660046144b9565b610c7e565b609e546001600160a01b03165b6040516001600160a01b039091168152602001610227565b61038c610cfd565b6040516001600160801b039091168152602001610227565b609a5461036c906001600160a01b031681565b6102716103c5366004614500565b610d8b565b610271610dbe565b6103da610dd2565b60405161022797969594939291906145ba565b6102716103fb36600461466b565b610e70565b6067546001600160a01b031661036c565b61027161041f3660046146ca565b611498565b61036c610432366004614388565b600090815260ab60205260409020546001600160a01b031690565b61046061045b3660046143b6565b6114e8565b604051610227919061470f565b61027161047b3660046147cc565b611582565b61021861048e36600461449c565b60aa60205260009081526040902054600f0b81565b6104ff6104b136600461449c565b60408051808201909152600080825260208201525063ffffffff16600090815260a36020908152604091829020825180840190935254600f81810b8452600160801b909104900b9082015290565b604080518251600f90810b8252602093840151900b9281019290925201610227565b60a75461054a906001600160401b0380821691600160401b8104821691600160801b9091041683565b604080516001600160401b0394851681529284166020840152921691810191909152606001610227565b610587610582366004614860565b6119ff565b6040516102279392919061487b565b61036c6105a436600461449c565b63ffffffff16600090815260a460205260409020546001600160a01b031690565b6102716105d3366004614388565b611ac0565b6102716105e636600461449c565b611b16565b6102716105f93660046148b7565b611c22565b61027161060c3660046148ec565b611fea565b61027161061f3660046143b6565b61205d565b61062c6120d6565b60005b6001600160801b038116821115610693573660008484846001600160801b031681811061065e5761065e614963565b90506020028101906106709190614979565b9150915061067e82826120ed565b5050808061068b906149d5565b91505061062f565b5060a680548291906000906106b29084906001600160401b03166149fb565b92506101000a8154816001600160401b0302191690836001600160401b031602179055507faf5fe0f6a71d2001d425268bf9b9f279a74a1cae4d8a0871cc331dae22b7608760405160405180910390a15050565b805160408051808201909152600381526249524360e81b6020820152906107495760405162461bcd60e51b8152600401610740919061470f565b60405180910390fd5b50606084901c6107583361320f565b6107618161320f565b61079b816001600160a01b038116331461079557604051806040016040528060028152602001612d3160f01b8152506132b7565b836132b7565b609b546040516338d0dce360e21b815263ffffffff861660048201526000916001600160a01b03169063e343738c9060240160a060405180830381865afa1580156107ea573d6000803e3d6000fd5b505050506040513d601f19601f8201168201806040525081019061080e9190614a1b565b5190506001600160a01b03811661082457600080fd5b6108388133866001600160801b0316613305565b6040805160608101825260a7546001600160401b038082168352600160401b820481166020840152600160801b9091041691810191909152600061087c42826149fb565b604080516060810182526001600160401b03831681526001600160a01b03871660208201529192508101600160405180606001604052808c81526020018b63ffffffff1681526020018a6001600160801b031681525060405160200161090d91908151815260208083015163ffffffff16908201526040918201516001600160801b03169181019190915260600190565b60408051601f198184030181529082905261092b9291602001614aab565b60405160208183030381529060405281525060a8600084602001805180919061095390614ada565b6001600160401b039081169091529081168252602080830193909352604091820160002084518154948601516001600160a01b0316600160401b026001600160e01b031990951692169190911792909217825582015160018201906109b89082614b80565b5050825160a7805460208601516040909601516001600160401b03908116600160801b0267ffffffffffffffff60801b19978216600160401b026001600160801b031990931691909416171794909416179092555050505050505050565b610a1e613328565b609e80546001600160a01b0319166001600160a01b0392909216919091179055565b610a486120d6565b60a6546040805180820190915260188152770d2dcecc2d8d2c840e6eac4dad2e6e6d2dedc40d2dcc8caf60431b6020820152906001600160401b03858116911614610aa65760405162461bcd60e51b8152600401610740919061470f565b50610ab18282610624565b505050565b60008060005a9050610ac66120d6565b60a6546040805180820190915260188152770d2dcecc2d8d2c840e6eac4dad2e6e6d2dedc40d2dcc8caf60431b6020820152906001600160401b03898116911614610b245760405162461bcd60e51b8152600401610740919061470f565b5060005b6001600160801b038116861115610bb7573660008888846001600160801b0316818110610b5757610b57614963565b9050602002810190610b699190614979565b91509150610b7782826120ed565b865a610b839086614c3f565b1115610ba257825a610b959086614c3f565b9550955050505050610bca565b50508080610baf906149d5565b915050610b28565b50845a610bc49083614c3f565b92509250505b94509492505050565b600080610bdf83613382565b9050610bec600284614c68565b63ffffffff16600103610c195763ffffffff8116600090815260a36020526040902054600f0b9150610c3c565b63ffffffff8116600090815260a36020526040902054600160801b9004600f0b91505b604080518082019091526002815261049560f41b6020820152600f83900b610c775760405162461bcd60e51b8152600401610740919061470f565b5050919050565b609a5460408051808201909152600581526427a1a1a9a160d91b6020820152906001600160a01b03163314610cc65760405162461bcd60e51b8152600401610740919061470f565b5063ffffffff91909116600090815260a46020526040902080546001600160a01b0319166001600160a01b03909216919091179055565b6040805180820190915260a9546001600160801b03808216808452600160801b909204166020830181905260009291839111610d3a578151610d40565b81602001515b60408051808201909152600381526249544960e81b60208201529091506001600160801b038216610d845760405162461bcd60e51b8152600401610740919061470f565b5092915050565b610d93613328565b6001600160a01b0391909116600090815260ae60205260409020805460ff1916911515919091179055565b610dc6613328565b610dd060006133e2565b565b6000606080600080600060606001546000801b148015610df25750600254155b610e365760405162461bcd60e51b81526020600482015260156024820152741152540dcc4c8e88155b9a5b9a5d1a585b1a5e9959605a1b6044820152606401610740565b610e3e613434565b610e466134c6565b60408051600080825260208201909252600f60f81b9b939a50919850469750309650945092509050565b333014610e7c57600080fd5b600082826000818110610e9157610e91614963565b919091013560f81c90506015811115610eac57610eac614a95565b90506000816015811115610ec257610ec2614a95565b03610f66576000610ed68360018187614c8b565b810190610ee39190614d35565b9050610ef38160000151866134d5565b8051610efe90611ac0565b609a54604051630fba311360e21b81526001600160a01b0390911690633ee8c44c90610f2e908490600401614d51565b600060405180830381600087803b158015610f4857600080fd5b505af1158015610f5c573d6000803e3d6000fd5b5050505050611492565b6001816015811115610f7a57610f7a614a95565b0361100a576000610f8e8360018187614c8b565b810190610f9b9190614daa565b9050610fab8160000151866134d5565b8051610fb690613533565b609a54604080516333938b9160e11b815283516004820152602084015163ffffffff166024820152908301516001600160801b031660448201526001600160a01b0390911690636727172290606401610f2e565b600281601581111561101e5761101e614a95565b0361107f5760006110328360018187614c8b565b81019061103f9190614e4e565b905061104f8160000151866134d5565b609a54604051630c354dd960e41b81526001600160a01b039091169063c354dd9090610f2e908490600401614e6a565b600581601581111561109357611093614a95565b036110e55760006110a78360018187614c8b565b8101906110b49190614f0c565b609a5460405163b2bb636760e01b81529192506001600160a01b03169063b2bb636790610f2e908490600401614ff0565b60078160158111156110f9576110f9614a95565b0361115557600061110d8360018187614c8b565b81019061111a9190615089565b609a54604051633a91c58b60e01b815282516001600160801b031660048201529192506001600160a01b031690633a91c58b90602401610f2e565b600981601581111561116957611169614a95565b036111ca57600061117d8360018187614c8b565b81019061118a9190615106565b905061119a8160000151866134d5565b609a546040516351e817d360e11b81526001600160a01b039091169063a3d02fa690610f2e908490600401615122565b600a8160158111156111de576111de614a95565b0361123f5760006111f28360018187614c8b565b8101906111ff9190614e4e565b905061120f8160000151866134d5565b609a5460405163bf1fb32160e01b81526001600160a01b039091169063bf1fb32190610f2e908490600401614e6a565b600b81601581111561125357611253614a95565b036113005760006112678360018187614c8b565b8101906112749190615186565b90506112848160000151866134d5565b805161128f90611ac0565b6020818101805163ffffffff908116600090815260a4909352604092839020548351630f4b509d60e01b8152855160048201529251909116602483015291830151600f90810b60448301526060840151900b60648201526001600160a01b0390911690630f4b509d90608401610f2e565b601281601581111561131457611314614a95565b0361136a5760006113288360018187614c8b565b8101906113359190615204565b8051602082015160405163c9fe9ac360e01b81529293506001600160a01b039091169163c9fe9ac391610f2e9160040161470f565b601381601581111561137e5761137e614a95565b036113e25760006113928360018187614c8b565b81019061139f91906152c4565b90506113af8160000151866134d5565b6020808201519151600090815260ab9091526040902080546001600160a01b03191660609290921c919091179055611492565b60158160158111156113f6576113f6614a95565b0361020657600061140a8360018187614c8b565b81019061141791906152e0565b90506114278160000151866134d5565b6114348160600151613533565b609a5460408051630748a21960e01b815283516004820152602084015163ffffffff166024820152908301516001600160801b03166044820152606083015160648201526001600160a01b0390911690630748a21990608401610f2e565b50505050565b610ab133846040516020016114ae929190615336565b6040516020818303038152906040526114c690615362565b8383604051806040016040528060028152602001612d3160f01b815250610706565b60ad602052600090815260409020805461150190614af6565b80601f016020809104026020016040519081016040528092919081815260200182805461152d90614af6565b801561157a5780601f1061154f5761010080835404028352916020019161157a565b820191906000526020600020905b81548152906001019060200180831161155d57829003601f168201915b505050505081565b600054610100900460ff16158080156115a25750600054600160ff909116105b806115bc5750303b1580156115bc575060005460ff166001145b61161f5760405162461bcd60e51b815260206004820152602e60248201527f496e697469616c697a61626c653a20636f6e747261637420697320616c72656160448201526d191e481a5b9a5d1a585b1a5e995960921b6064820152608401610740565b6000805460ff191660011790558015611642576000805461ff0019166101001790555b61164a6135c2565b61168f604051806040016040528060068152602001650accae4e8caf60d31b81525060405180604001604052806005815260200164302e302e3160d81b8152506135f1565b609e80546001600160a01b038089166001600160a01b031992831617909255609a80548884169083168117909155609d8054938b1693909216929092179055604051635d2e9ad160e01b8152635d2e9ad1906116f090600090600401615386565b602060405180830381865afa15801561170d573d6000803e3d6000fd5b505050506040513d601f19601f8201168201806040525081019061173191906153ae565b609b80546001600160a01b0319166001600160a01b03928316179055609a54604051635d2e9ad160e01b8152911690635d2e9ad19061177590600190600401615386565b602060405180830381865afa158015611792573d6000803e3d6000fd5b505050506040513d601f19601f820116820180604052508101906117b691906153ae565b609c80546001600160a01b0319166001600160a01b03928316179055609a546040805163171755b160e01b81529051919092169163171755b19160048083019260209291908290030181865afa158015611814573d6000803e3d6000fd5b505050506040513d601f19601f8201168201806040525081019061183891906153ae565b609980546001600160a01b0319166001600160a01b0392909216919091179055604080516060810182526001600160401b0386168082526000602080840182905292840181905260a780546001600160c01b03191690921790915582518084019093526001600160801b03861680845292909101829052600160801b820290911760a9555b82518163ffffffff1610156119af57828163ffffffff16815181106118e4576118e4614963565b602002602001015160a360006002846118fd91906153cb565b63ffffffff168152602081019190915260400160002080546001600160801b0319166001600160801b03929092169190911790558261193d8260016153ee565b63ffffffff168151811061195357611953614963565b602002602001015160a3600060028461196c91906153cb565b63ffffffff168152602081019190915260400160002080546001600160801b03928316600160801b0292169190911790556119a86002826153ee565b90506118bd565b5080156119f6576000805461ff0019169055604051600181527f7f26b83ff96e1f2b6a682f133852f6798a09c465da95921460cefb38474024989060200160405180910390a15b50505050505050565b60a860205260009081526040902080546001820180546001600160401b03831693600160401b9093046001600160a01b0316929190611a3d90614af6565b80601f0160208091040260200160405190810160405280929190818152602001828054611a6990614af6565b8015611ab65780601f10611a8b57610100808354040283529160200191611ab6565b820191906000526020600020905b815481529060010190602001808311611a9957829003601f168201915b5050505050905083565b600081815260a060209081526040918290205482518084019093526002835261525360f01b918301919091526001600160401b0316611b125760405162461bcd60e51b8152600401610740919061470f565b5050565b6040805160608101825260a7546001600160401b038082168352600160401b8204811660208401819052600160801b909204169282018390529091611b5a9161540b565b6001600160401b03168263ffffffff16111560405180604001604052806002815260200161494360f01b81525090611ba55760405162461bcd60e51b8152600401610740919061470f565b505b63ffffffff821615611bce57611bbe816000613622565b611bc78261542b565b9150611ba7565b805160a7805460208401516040909401516001600160401b03908116600160801b0267ffffffffffffffff60801b19958216600160401b026001600160801b03199093169190941617179290921617905550565b600082826000818110611c3757611c37614963565b919091013560f81c90506015811115611c5257611c52614a95565b9050336001826015811115611c6957611c69614a95565b03611c7357600080fd5b6007826015811115611c8757611c87614a95565b03611d57576000611c9b8460018188614c8b565b810190611ca89190615089565b90506000609a60009054906101000a90046001600160a01b03166001600160a01b031663171755b16040518163ffffffff1660e01b8152600401602060405180830381865afa158015611cff573d6000803e3d6000fd5b505050506040513d601f19601f82011682018060405250810190611d2391906153ae565b90506001600160a01b038116611d3857600080fd5b611d50818484600001516001600160801b0316613305565b5050611e62565b6012826015811115611d6b57611d6b614a95565b03611d8f576067546001600160a01b03828116911614611d8a57600080fd5b611e62565b6015826015811115611da357611da3614a95565b03611e05576001600160a01b038116600090815260ae6020908152604091829020548251808401909352600383526215d39560ea1b9183019190915260ff16611dff5760405162461bcd60e51b8152600401610740919061470f565b50611e62565b609954611e1f906001600160a01b031682620f424061388d565b60ac8054620f42409190600090611e3a908490600f0b61544b565b92506101000a8154816001600160801b030219169083600f0b6001600160801b031602179055505b6040805160608101825260a7546001600160401b038082168352600160401b820481166020840152600160801b90910416918101919091526000611ea9426203f4806149fb565b9050611eb48361320f565b6040518060600160405280826001600160401b03168152602001846001600160a01b0316815260200187878080601f016020809104026020016040519081016040528093929190818152602001838380828437600092018290525093909452505060208501805160a8935090611f2982614ada565b6001600160401b039081169091529081168252602080830193909352604091820160002084518154948601516001600160a01b0316600160401b026001600160e01b03199095169216919091179290921782558201516001820190611f8e9082614b80565b5050825160a7805460208601516040909601516001600160401b03908116600160801b0267ffffffffffffffff60801b19978216600160401b026001600160801b03199093169190941617179490941617909255505050505050565b6120563386604051602001612000929190615336565b60405160208183030381529060405261201890615362565b858585858080601f01602080910402602001604051908101604052809392919081815260200183838082843760009201919091525061070692505050565b5050505050565b612065613328565b6001600160a01b0381166120ca5760405162461bcd60e51b815260206004820152602660248201527f4f776e61626c653a206e6577206f776e657220697320746865207a65726f206160448201526564647265737360d01b6064820152608401610740565b6120d3816133e2565b50565b609e546001600160a01b03163314610dd057600080fd5b60008282600081811061210257612102614963565b919091013560f81c9050601581111561211d5761211d614a95565b9050600081601581111561213357612133614a95565b036122b45760006121478360018187614c8b565b8101906121549190615481565b8051805160a09091015191925061216a916138a2565b60006122146040518060a00160405280606f8152602001615f1b606f91398051602091820120845180518184015160408084015160608086015160808088015160a09889015186519b8c019a909a52948a01969096529088019390935260ff169286019290925263ffffffff1691840191909152600f0b60c08301526001600160401b031660e0820152610100015b6040516020818303038152906040528051906020012061393b565b825151602084015191925061222a918390613968565b81515161223690611ac0565b81515161224b90670de0b6b3a76400006139f6565b609a548251604051630fba311360e21b81526001600160a01b0390921691633ee8c44c9161227b91600401614d51565b600060405180830381600087803b15801561229557600080fd5b505af11580156122a9573d6000803e3d6000fd5b505050505050505050565b60028160158111156122c8576122c8614a95565b036124085760006122dc8360018187614c8b565b8101906122e9919061553d565b805180516060909101519192506122ff916138a2565b60006123496040518060800160405280604f8152602001616000604f91398051602091820120845180518184015160408084015160609094015190516121f9969394929301615579565b82518051609b546020909201516040516303f7d28360e61b815263ffffffff90911660048201529293506123d89290916001600160a01b03169063fdf4a0c090602401602060405180830381865afa1580156123a9573d6000803e3d6000fd5b505050506040513d601f19601f820116820180604052508101906123cd91906155b4565b8451602001516139fe565b609a548251604051630c354dd960e41b81526001600160a01b039092169163c354dd909161227b91600401614e6a565b600381601581111561241c5761241c614a95565b0361250e5760006124308360018187614c8b565b81019061243d9190615089565b6040805180820190915260a9546001600160801b038082168352600160801b90910416602082018190528251929350909160009161247a916155d1565b609b546040516356b99dc760e11b81526001600160801b03831660048201529192506001600160a01b03169063ad733b8e90602401600060405180830381600087803b1580156124c957600080fd5b505af11580156124dd573d6000803e3d6000fd5b505093516001600160801b0390811660208501819052935116600160801b9093029290921760a95550610ab1915050565b600f81601581111561252257612522614a95565b036126145760006125368360018187614c8b565b81019061254391906155f1565b6040805180820190915260a9546001600160801b03808216808452600160801b9092041660208301528251929350909160009161257f916155d1565b609c54602085015160405163339b7aed60e11b81529293506001600160a01b0390911691636736f5da916125b891859190600401615693565b600060405180830381600087803b1580156125d257600080fd5b505af11580156125e6573d6000803e3d6000fd5b505093516001600160801b0390811680855260209094015116600160801b0290921760a95550610ab1915050565b600481601581111561262857612628614a95565b0361273a57600061263c8360018187614c8b565b81019061264991906156b5565b905060008160200151600f0b136040518060400160405280600381526020016224a82960e91b815250906126905760405162461bcd60e51b8152600401610740919061470f565b5060006126a08260000151613382565b82519091506126b190600290614c68565b63ffffffff166001036126fc5760208281015163ffffffff8316600090815260a3909252604090912080546001600160801b0319166001600160801b03909216919091179055612056565b60208083015163ffffffff8316600090815260a3909252604090912080546001600160801b03928316600160801b0292169190911790555050505050565b600581601581111561274e5761274e614a95565b036127d85760006127628360018187614c8b565b81019061276f9190614f0c565b609a5460405163b2bb636760e01b81529192506001600160a01b03169063b2bb6367906127a0908490600401614ff0565b600060405180830381600087803b1580156127ba57600080fd5b505af11580156127ce573d6000803e3d6000fd5b5050505050505050565b60068160158111156127ec576127ec614a95565b036128ae5760006128008360018187614c8b565b81019061280d9190615791565b6040810151515190915061282090611ac0565b6060810151515161283090611ac0565b6040805160608082018352838252838301515151600090815260ab6020818152858320546001600160a01b0390811682870152938701515151835290815284822054831684860152855163ffffffff16825260a4905283902054925163332ee3bf60e11b81529192169063665dc77e9061227b9084906004016158a6565b600c8160158111156128c2576128c2614a95565b036129535760006128d68360018187614c8b565b8101906128e39190615936565b606081015151519091506128f690611ac0565b805163ffffffff16600090815260a4602090815260408083205460608501515151845260ab90925291829020549151633c7869e760e11b81526001600160a01b03918216926378f0d3ce926127a0928692909116906004016159c0565b600881601581111561296757612967614a95565b03612a05576040805160608101825260a7546001600160401b038082168352600160401b820481166020840152600160801b90910416918101919091526129af816001613622565b805160a7805460208401516040909401516001600160401b03908116600160801b0267ffffffffffffffff60801b19958216600160401b026001600160801b031990931691909416171792909216179055505050565b6009816015811115612a1957612a19614a95565b03612b3f576000612a2d8360018187614c8b565b810190612a3a9190615a1e565b8051805160a090910151919250612a50916138a2565b6000612aeb6040518060a0016040528060768152602001615f8a607691398051602091820120845180518184015160408084015160608086015160808088015160a09889015186519b8c019a909a52948a019690965263ffffffff909416908801526001600160801b0390811693870193909352908216928501929092521660c08301526001600160401b031660e0820152610100016121f9565b825151909150612afa90611ac0565b815151612b0f90670de0b6b3a76400006139f6565b609a54825160405163e671b16b60e01b81526001600160a01b039092169163e671b16b9161227b91600401615122565b600a816015811115612b5357612b53614a95565b03612c1c576000612b678360018187614c8b565b810190612b74919061553d565b80518051606090910151919250612b8a916138a2565b6000612bd4604051806080016040528060438152602001615eb5604391398051602091820120845180518184015160408084015160609094015190516121f9969394929301615579565b825151909150612bec90670de0b6b3a76400006139f6565b609a54825160405163bf1fb32160e01b81526001600160a01b039092169163bf1fb3219161227b91600401614e6a565b600d816015811115612c3057612c30614a95565b03612d3357609a5460408051636bad77e160e01b815290516000926001600160a01b031691636bad77e19160048083019260209291908290030181865afa158015612c7f573d6000803e3d6000fd5b505050506040513d601f19601f82011682018060405250810190612ca39190615a6d565b905060015b8163ffffffff168163ffffffff1610156120565763ffffffff8116600090815260a46020526040808220548151630e0f916b60e31b815291516001600160a01b039091169263707c8b58926004808201939182900301818387803b158015612d0f57600080fd5b505af1158015612d23573d6000803e3d6000fd5b505060019092019150612ca89050565b600e816015811115612d4757612d47614a95565b03612f73576000612d5b8360018187614c8b565b810190612d689190615a8a565b90506000609b60009054906101000a90046001600160a01b03166001600160a01b03166347428e7b6040518163ffffffff1660e01b8152600401600060405180830381865afa158015612dbf573d6000803e3d6000fd5b505050506040513d6000823e601f3d908101601f19168201604052612de79190810190615aae565b9050600081516001600160401b03811115612e0457612e0461419c565b604051908082528060200260200182016040528015612e2d578160200160208202803683370190505b50905060005b8251811015612f065760aa6000848381518110612e5257612e52614963565b602002602001015163ffffffff1663ffffffff16815260200190815260200160002060009054906101000a9004600f0b828281518110612e9457612e94614963565b6020026020010190600f0b9081600f0b81525050600060aa6000858481518110612ec057612ec0614963565b60209081029190910181015163ffffffff16825281019190915260400160002080546001600160801b0319166001600160801b0392909216919091179055600101612e33565b50609a5460405163781c857f60e11b81526001600160a01b039091169063f0390afe90612f399086908590600401615b3c565b600060405180830381600087803b158015612f5357600080fd5b505af1158015612f67573d6000803e3d6000fd5b50505050505050505050565b6010816015811115612f8757612f87614a95565b0361306f576000612f9b8360018187614c8b565b810190612fa89190615b56565b609c548151604051639b6f762b60e01b81529293506001600160a01b0390911691639b6f762b91612fdb91600401615c0a565b60006040518083038186803b158015612ff357600080fd5b505afa158015613007573d6000803e3d6000fd5b5050609b546020840151604080860151905163030972b560e41b81526001600160a01b0390931694506330972b50935061304392600401615c1d565b60006040518083038186803b15801561305b57600080fd5b505afa1580156127ce573d6000803e3d6000fd5b601181601581111561308357613083614a95565b14610ab157601381601581111561309c5761309c614a95565b0361317a5760006130b08360018187614c8b565b8101906130bd9190615c42565b805180516040909101519192506130d3916138a2565b600061312f604051806060016040528060368152602001615e7f60369139805160209182012084518051818401516040928301518351958601949094529184015260608301526001600160401b0316608082015260a0016121f9565b8251516020840151919250613145918390613968565b50516020808201519151600090815260ab9091526040902080546001600160a01b03191660609290921c919091179055505050565b601481601581111561318e5761318e614a95565b036102065760006131a28360018187614c8b565b8101906131af9190615cb7565b609a54604080516335639a4f60e01b815283516001600160a01b039081166004830152602085015163ffffffff16602483015291840151600790810b60448301526060850151900b606482015292935016906335639a4f906084016127a0565b609d5460405163df592f7d60e01b81526001600160a01b0383811660048301529091169063df592f7d90602401602060405180830381865afa158015613259573d6000803e3d6000fd5b505050506040513d601f19601f8201168201806040525081019061327d9190615d0e565b1560405180604001604052806002815260200161575360f01b81525090611b125760405162461bcd60e51b8152600401610740919061470f565b6001600160a01b038216600090815260ad6020526040902080546132da90614af6565b9050600003611b12576001600160a01b038216600090815260ad60205260409020610ab18282614b80565b609a5461331d9084906001600160a01b031683613b1f565b610ab183838361388d565b6067546001600160a01b03163314610dd05760405162461bcd60e51b815260206004820181905260248201527f4f776e61626c653a2063616c6c6572206973206e6f7420746865206f776e65726044820152606401610740565b604080518082019091526004815263475a484760e01b602082015260009063ffffffff83166133c45760405162461bcd60e51b8152600401610740919061470f565b5060026133d2600184615d2b565b6133dc91906153cb565b92915050565b606780546001600160a01b038381166001600160a01b0319831681179093556040519116919082907f8be0079c531659141344cd1fd0a4f28419497f9722a3daafe3b4186f6b6457e090600090a35050565b60606003805461344390614af6565b80601f016020809104026020016040519081016040528092919081815260200182805461346f90614af6565b80156134bc5780601f10613491576101008083540402835291602001916134bc565b820191906000526020600020905b81548152906001019060200180831161349f57829003601f168201915b5050505050905090565b60606004805461344390614af6565b606082901c6001600160a01b03821614806134f857506001600160a01b03811630145b60405180604001604052806004815260200163534d575360e01b81525090610ab15760405162461bcd60e51b8152600401610740919061470f565b600081815260a060205260408120546001600160401b031690036120d35760a2805460009061356a906001600160401b0316614ada565b82546001600160401b039182166101009390930a8381029083021990911617909255600083815260a060209081526040808320805467ffffffffffffffff191690941790935560a254909316815260a1909252902055565b600054610100900460ff166135e95760405162461bcd60e51b815260040161074090615d48565b610dd0613b92565b600054610100900460ff166136185760405162461bcd60e51b815260040161074090615d48565b611b128282613bc2565b81602001516001600160401b031682604001516001600160401b031610604051806060016040528060238152602001615ef860239139906136765760405162461bcd60e51b8152600401610740919061470f565b506040828101516001600160401b03908116600090815260a86020908152838220845160608101865281549485168152600160401b9094046001600160a01b03169184019190915260018101805492949192918401916136d590614af6565b80601f016020809104026020016040519081016040528092919081815260200182805461370190614af6565b801561374e5780601f106137235761010080835404028352916020019161374e565b820191906000526020600020905b81548152906001019060200180831161373157829003601f168201915b505050505081525050905060a8600084604001805180919061376f90614ada565b6001600160401b039081169091521681526020810191909152604001600090812080546001600160e01b0319168155906137ac600183018261409f565b505081806137c757504281600001516001600160401b031611155b6040518060400160405280600481526020016329aa2a2960e11b815250906138025760405162461bcd60e51b8152600401610740919061470f565b5060005a602083015160408085015190516310e6486760e31b81529293503092638732433892613836929091600401615d93565b600060405180830381600087803b15801561385057600080fd5b505af1925050508015613861575060015b61149257620186a05a111580613881575061387d601082615db7565b5a11155b1561388857fe5b611492565b610ab16001600160a01b038416833084613c11565b606082901c600090815260a56020526040812080546001600160401b0316916138ca83614ada565b91906101000a8154816001600160401b0302191690836001600160401b031602179055506001600160401b0316816001600160401b031614604051806040016040528060028152602001612ba760f11b81525090610ab15760405162461bcd60e51b8152600401610740919061470f565b60006133dc613948613d1a565b8360405161190160f01b8152600281019290925260228201526042902090565b60006139748383613d29565b90506001600160a01b038116158015906139bd57506001600160a01b038116606085901c14806139bd5750600084815260ab60205260409020546001600160a01b038281169116145b60405180604001604052806002815260200161495360f01b815250906120565760405162461bcd60e51b8152600401610740919061470f565b611b12828260005b604080516001808252818301909252600091816020015b604080516080810182526000808252602080830182905292820181905260608201528252600019909201910181613a1557905050905060405180608001604052808363ffffffff16815260200185815260200184613a7290615dcb565b600f0b81526020016000600f0b81525081600081518110613a9557613a95614963565b60209081029190910181019190915263ffffffff8316600090815260aa909152604081208054859290613acc908490600f0b61544b565b82546001600160801b039182166101009390930a928302919092021990911617905550609b54604051636c9a2ce360e01b81526001600160a01b0390911690636c9a2ce3906127a0908490600401615df1565b604051633950935160e01b81526001600160a01b038381166004830152602482018390528416906339509351906044016020604051808303816000875af1158015613b6e573d6000803e3d6000fd5b505050506040513d601f19601f820116820180604052508101906114929190615d0e565b600054610100900460ff16613bb95760405162461bcd60e51b815260040161074090615d48565b610dd0336133e2565b600054610100900460ff16613be95760405162461bcd60e51b815260040161074090615d48565b6003613bf58382614b80565b506004613c028282614b80565b50506000600181905560025550565b604080516001600160a01b0385811660248301528481166044830152606480830185905283518084039091018152608490920183526020820180516001600160e01b03166323b872dd60e01b1790529151600092839290881691613c759190615e62565b6000604051808303816000865af19150503d8060008114613cb2576040519150601f19603f3d011682016040523d82523d6000602084013e613cb7565b606091505b5091509150818015613ce1575080511580613ce1575080806020019051810190613ce19190615d0e565b604051806040016040528060028152602001612a2360f11b815250906119f65760405162461bcd60e51b8152600401610740919061470f565b6000613d24613d4d565b905090565b6000806000613d388585613dc1565b91509150613d4581613e06565b509392505050565b60007f8b73c3c69bb8fe3d512ecc4cf759cc79239f7b179b0ffacaa9a75d522b39400f613d78613f50565b613d80613fad565b60408051602081019490945283019190915260608201524660808201523060a082015260c00160405160208183030381529060405280519060200120905090565b6000808251604103613df75760208301516040840151606085015160001a613deb87828585613fde565b94509450505050613dff565b506000905060025b9250929050565b6000816004811115613e1a57613e1a614a95565b03613e225750565b6001816004811115613e3657613e36614a95565b03613e835760405162461bcd60e51b815260206004820152601860248201527f45434453413a20696e76616c6964207369676e617475726500000000000000006044820152606401610740565b6002816004811115613e9757613e97614a95565b03613ee45760405162461bcd60e51b815260206004820152601f60248201527f45434453413a20696e76616c6964207369676e6174757265206c656e677468006044820152606401610740565b6003816004811115613ef857613ef8614a95565b036120d35760405162461bcd60e51b815260206004820152602260248201527f45434453413a20696e76616c6964207369676e6174757265202773272076616c604482015261756560f01b6064820152608401610740565b600080613f5b613434565b805190915015613f72578051602090910120919050565b6001548015613f815792915050565b7fc5d2460186f7233c927e7db2dcc703c0e500b653ca82273b7bfad8045d85a4709250505090565b5090565b600080613fb86134c6565b805190915015613fcf578051602090910120919050565b6002548015613f815792915050565b6000807f7fffffffffffffffffffffffffffffff5d576e7357a4501ddfe92f46681b20a08311156140155750600090506003610bca565b6040805160008082526020820180845289905260ff881692820192909252606081018690526080810185905260019060a0016020604051602081039080840390855afa158015614069573d6000803e3d6000fd5b5050604051601f1901519150506001600160a01b03811661409257600060019250925050610bca565b9660009650945050505050565b5080546140ab90614af6565b6000825580601f106140bb575050565b601f0160209004906000526020600020908101906120d391905b80821115613fa957600081556001016140d5565b60008083601f8401126140fb57600080fd5b5081356001600160401b0381111561411257600080fd5b6020830191508360208260051b8501011115613dff57600080fd5b6000806020838503121561414057600080fd5b82356001600160401b0381111561415657600080fd5b614162858286016140e9565b90969095509350505050565b63ffffffff811681146120d357600080fd5b80356001600160801b038116811461419757600080fd5b919050565b634e487b7160e01b600052604160045260246000fd5b60405160a081016001600160401b03811182821017156141d4576141d461419c565b60405290565b60405160c081016001600160401b03811182821017156141d4576141d461419c565b604051606081016001600160401b03811182821017156141d4576141d461419c565b604051608081016001600160401b03811182821017156141d4576141d461419c565b604080519081016001600160401b03811182821017156141d4576141d461419c565b604051602081016001600160401b03811182821017156141d4576141d461419c565b604051601f8201601f191681016001600160401b03811182821017156142ac576142ac61419c565b604052919050565b60006001600160401b038311156142cd576142cd61419c565b6142e0601f8401601f1916602001614284565b90508281528383830111156142f457600080fd5b828260208301376000602084830101529392505050565b6000806000806080858703121561432157600080fd5b8435935060208501356143338161416e565b925061434160408601614180565b915060608501356001600160401b0381111561435c57600080fd5b8501601f8101871361436d57600080fd5b61437c878235602084016142b4565b91505092959194509250565b60006020828403121561439a57600080fd5b5035919050565b6001600160a01b03811681146120d357600080fd5b6000602082840312156143c857600080fd5b81356143d3816143a1565b9392505050565b80356001600160401b038116811461419757600080fd5b60008060006040848603121561440657600080fd5b61440f846143da565b925060208401356001600160401b0381111561442a57600080fd5b614436868287016140e9565b9497909650939450505050565b6000806000806060858703121561445957600080fd5b614462856143da565b935060208501356001600160401b0381111561447d57600080fd5b614489878288016140e9565b9598909750949560400135949350505050565b6000602082840312156144ae57600080fd5b81356143d38161416e565b600080604083850312156144cc57600080fd5b82356144d78161416e565b915060208301356144e7816143a1565b809150509250929050565b80151581146120d357600080fd5b6000806040838503121561451357600080fd5b823561451e816143a1565b915060208301356144e7816144f2565b60005b83811015614549578181015183820152602001614531565b50506000910152565b6000815180845261456a81602086016020860161452e565b601f01601f19169290920160200192915050565b60008151808452602080850194506020840160005b838110156145af57815187529582019590820190600101614593565b509495945050505050565b60ff60f81b8816815260e0602082015260006145d960e0830189614552565b82810360408401526145eb8189614552565b606084018890526001600160a01b038716608085015260a0840186905283810360c0850152905061461c818561457e565b9a9950505050505050505050565b60008083601f84011261463c57600080fd5b5081356001600160401b0381111561465357600080fd5b602083019150836020828501011115613dff57600080fd5b60008060006040848603121561468057600080fd5b833561468b816143a1565b925060208401356001600160401b038111156146a657600080fd5b6144368682870161462a565b80356001600160a01b03198116811461419757600080fd5b6000806000606084860312156146df57600080fd5b6146e8846146b2565b925060208401356146f88161416e565b915061470660408501614180565b90509250925092565b6020815260006143d36020830184614552565b60006001600160401b0382111561473b5761473b61419c565b5060051b60200190565b80600f0b81146120d357600080fd5b600082601f83011261476557600080fd5b8135602061477a61477583614722565b614284565b8083825260208201915060208460051b87010193508684111561479c57600080fd5b602086015b848110156147c15780356147b481614745565b83529183019183016147a1565b509695505050505050565b60008060008060008060c087890312156147e557600080fd5b86356147f0816143a1565b95506020870135614800816143a1565b94506040870135614810816143a1565b935061481e606088016143da565b925061482c60808801614180565b915060a08701356001600160401b0381111561484757600080fd5b61485389828a01614754565b9150509295509295509295565b60006020828403121561487257600080fd5b6143d3826143da565b6001600160401b03841681526001600160a01b03831660208201526060604082018190526000906148ae90830184614552565b95945050505050565b600080602083850312156148ca57600080fd5b82356001600160401b038111156148e057600080fd5b6141628582860161462a565b60008060008060006080868803121561490457600080fd5b61490d866146b2565b9450602086013561491d8161416e565b935061492b60408701614180565b925060608601356001600160401b0381111561494657600080fd5b6149528882890161462a565b969995985093965092949392505050565b634e487b7160e01b600052603260045260246000fd5b6000808335601e1984360301811261499057600080fd5b8301803591506001600160401b038211156149aa57600080fd5b602001915036819003821315613dff57600080fd5b634e487b7160e01b600052601160045260246000fd5b60006001600160801b038083168181036149f1576149f16149bf565b6001019392505050565b6001600160401b03818116838216019080821115610d8457610d846149bf565b600060a08284031215614a2d57600080fd5b614a356141b2565b8251614a40816143a1565b81526020830151614a5081614745565b60208201526040830151614a6381614745565b60408201526060830151614a7681614745565b60608201526080830151614a8981614745565b60808201529392505050565b634e487b7160e01b600052602160045260246000fd5b60ff60f81b8360f81b16815260008251614acc81600185016020870161452e565b919091016001019392505050565b60006001600160401b038083168181036149f1576149f16149bf565b600181811c90821680614b0a57607f821691505b602082108103614b2a57634e487b7160e01b600052602260045260246000fd5b50919050565b601f821115610ab1576000816000526020600020601f850160051c81016020861015614b595750805b601f850160051c820191505b81811015614b7857828155600101614b65565b505050505050565b81516001600160401b03811115614b9957614b9961419c565b614bad81614ba78454614af6565b84614b30565b602080601f831160018114614be25760008415614bca5750858301515b600019600386901b1c1916600185901b178555614b78565b600085815260208120601f198616915b82811015614c1157888601518255948401946001909101908401614bf2565b5085821015614c2f5787850151600019600388901b60f8161c191681555b5050505050600190811b01905550565b818103818111156133dc576133dc6149bf565b634e487b7160e01b600052601260045260246000fd5b600063ffffffff80841680614c7f57614c7f614c52565b92169190910692915050565b60008085851115614c9b57600080fd5b83861115614ca857600080fd5b5050820193919092039150565b600060c08284031215614cc757600080fd5b614ccf6141da565b90508135815260208201356020820152604082013560ff81168114614cf357600080fd5b60408201526060820135614d068161416e565b60608201526080820135614d1981614745565b6080820152614d2a60a083016143da565b60a082015292915050565b600060c08284031215614d4757600080fd5b6143d38383614cb5565b600060c082019050825182526020830151602083015260ff604084015116604083015263ffffffff60608401511660608301526080830151600f0b60808301526001600160401b0360a08401511660a083015292915050565b600060608284031215614dbc57600080fd5b614dc46141fc565b823581526020830135614dd68161416e565b6020820152614de760408401614180565b60408201529392505050565b600060808284031215614e0557600080fd5b614e0d61421e565b9050813581526020820135614e218161416e565b6020820152614e3260408301614180565b6040820152614e43606083016143da565b606082015292915050565b600060808284031215614e6057600080fd5b6143d38383614df3565b8151815260208083015163ffffffff16908201526040808301516001600160801b0316908201526060808301516001600160401b031690820152608081016133dc565b600082601f830112614ebe57600080fd5b81356020614ece61477583614722565b8083825260208201915060208460051b870101935086841115614ef057600080fd5b602086015b848110156147c15780358352918301918301614ef5565b60006020808385031215614f1f57600080fd5b82356001600160401b0380821115614f3657600080fd5b9084019060408287031215614f4a57600080fd5b614f52614240565b823582811115614f6157600080fd5b8301601f81018813614f7257600080fd5b8035614f8061477582614722565b81815260059190911b8201860190868101908a831115614f9f57600080fd5b928701925b82841015614fbd57833582529287019290870190614fa4565b84525050508284013582811115614fd357600080fd5b614fdf88828601614ead565b948201949094529695505050505050565b6020808252825160408383015280516060840181905260009291820190839060808601905b808310156150355783518252928401926001929092019190840190615015565b5092860151858403601f1901604087015292615051818561457e565b979650505050505050565b60006020828403121561506e57600080fd5b615076614262565b905061508182614180565b815292915050565b60006020828403121561509b57600080fd5b6143d3838361505c565b600060c082840312156150b757600080fd5b6150bf6141da565b90508135815260208201356150d38161416e565b60208201526150e460408301614180565b60408201526150f560608301614180565b6060820152614d1960808301614180565b600060c0828403121561511857600080fd5b6143d383836150a5565b600060c0820190508251825263ffffffff602084015116602083015260408301516001600160801b03808216604085015280606086015116606085015280608086015116608085015250506001600160401b0360a08401511660a083015292915050565b60006080828403121561519857600080fd5b6151a061421e565b8235815260208301356151b28161416e565b602082015260408301356151c581614745565b604082015260608301356151d881614745565b60608201529392505050565b600082601f8301126151f557600080fd5b6143d3838335602085016142b4565b60006020828403121561521657600080fd5b81356001600160401b038082111561522d57600080fd5b908301906040828603121561524157600080fd5b615249614240565b8235615254816143a1565b815260208301358281111561526857600080fd5b615274878286016151e4565b60208301525095945050505050565b60006060828403121561529557600080fd5b61529d6141fc565b905081358152602082013560208201526152b9604083016143da565b604082015292915050565b6000606082840312156152d657600080fd5b6143d38383615283565b6000608082840312156152f257600080fd5b6152fa61421e565b82358152602083013561530c8161416e565b602082015261531d60408401614180565b6040820152606083013560608201528091505092915050565b60609290921b6bffffffffffffffffffffffff191682526001600160a01b031916601482015260200190565b80516020808301519190811015614b2a5760001960209190910360031b1b16919050565b60208101600283106153a857634e487b7160e01b600052602160045260246000fd5b91905290565b6000602082840312156153c057600080fd5b81516143d3816143a1565b600063ffffffff808416806153e2576153e2614c52565b92169190910492915050565b63ffffffff818116838216019080821115610d8457610d846149bf565b6001600160401b03828116828216039080821115610d8457610d846149bf565b600063ffffffff821680615441576154416149bf565b6000190192915050565b600f81810b9083900b0160016001607f1b0381136f7fffffffffffffffffffffffffffffff19821217156133dc576133dc6149bf565b60006020828403121561549357600080fd5b81356001600160401b03808211156154aa57600080fd5b9083019060e082860312156154be57600080fd5b6154c6614240565b6154d08684614cb5565b815260c08301358281111561526857600080fd5b600060a082840312156154f657600080fd5b6154fe614240565b905061550a8383614df3565b815260808201356001600160401b0381111561552557600080fd5b615531848285016151e4565b60208301525092915050565b60006020828403121561554f57600080fd5b81356001600160401b0381111561556557600080fd5b615571848285016154e4565b949350505050565b948552602085019390935263ffffffff9190911660408401526001600160801b031660608301526001600160401b0316608082015260a00190565b6000602082840312156155c657600080fd5b81516143d381614745565b6001600160801b03828116828216039080821115610d8457610d846149bf565b60006020828403121561560357600080fd5b81356001600160401b038082111561561a57600080fd5b908301906040828603121561562e57600080fd5b615636614240565b61563f83614180565b815260208301358281111561565357600080fd5b61527487828601614754565b60008151808452602080850194506020840160005b838110156145af578151600f0b87529582019590820190600101615674565b6001600160801b0383168152604060208201526000615571604083018461565f565b6000604082840312156156c757600080fd5b6156cf614240565b82356156da8161416e565b815260208301356156ea81614745565b60208201529392505050565b600081830360c081121561570957600080fd5b615711614240565b915060a081121561572157600080fd5b5061572a6141b2565b82358152602083013561573c81614745565b6020820152604083013561574f81614745565b6040820152615760606084016143da565b6060820152615771608084016143da565b6080820152815260a08201356001600160401b0381111561552557600080fd5b6000602082840312156157a357600080fd5b81356001600160401b03808211156157ba57600080fd5b90830190608082860312156157ce57600080fd5b6157d661421e565b82356157e18161416e565b815260208301356157f1816144f2565b602082015260408301358281111561580857600080fd5b615814878286016156f6565b60408301525060608301358281111561582c57600080fd5b615838878286016156f6565b60608301525095945050505050565b60008151805184526020810151600f0b60208501526040810151600f0b604085015260608101516001600160401b038082166060870152806080840151166080870152505050602082015160c060a085015261557160c0850182614552565b60208152600082516060602084015263ffffffff81511660808401526020810151151560a08401526040810151608060c08501526158e8610100850182615847565b905060608201519150607f198482030160e08501526159078183615847565b91505060018060a01b0360208501511660408401526040840151613d4560608501826001600160a01b03169052565b60006020828403121561594857600080fd5b81356001600160401b038082111561595f57600080fd5b908301906080828603121561597357600080fd5b61597b61421e565b82356159868161416e565b8152602083013561599681614745565b602082015260408301356159a981614745565b604082015260608301358281111561582c57600080fd5b6040815263ffffffff83511660408201526020830151600f0b60608201526040830151600f0b608082015260006060840151608060a0840152615a0660c0840182615847565b91505060018060a01b03831660208301529392505050565b600060208284031215615a3057600080fd5b81356001600160401b0380821115615a4757600080fd5b9083019060e08286031215615a5b57600080fd5b615a63614240565b6154d086846150a5565b600060208284031215615a7f57600080fd5b81516143d38161416e565b600060208284031215615a9c57600080fd5b615aa4614262565b9135825250919050565b60006020808385031215615ac157600080fd5b82516001600160401b03811115615ad757600080fd5b8301601f81018513615ae857600080fd5b8051615af661477582614722565b81815260059190911b82018301908381019087831115615b1557600080fd5b928401925b82841015615051578351615b2d8161416e565b82529284019290840190615b1a565b82518152604060208201526000615571604083018461565f565b600060208284031215615b6857600080fd5b81356001600160401b0380821115615b7f57600080fd5b9083019060608286031215615b9357600080fd5b615b9b6141fc565b823582811115615baa57600080fd5b615bb687828601614754565b825250602083013582811115615bcb57600080fd5b615bd787828601614754565b602083015250604083013582811115615bef57600080fd5b615bfb87828601614754565b60408301525095945050505050565b6020815260006143d3602083018461565f565b604081526000615c30604083018561565f565b82810360208401526148ae818561565f565b600060208284031215615c5457600080fd5b81356001600160401b0380821115615c6b57600080fd5b9083019060808286031215615c7f57600080fd5b615c87614240565b615c918684615283565b815260608301358281111561526857600080fd5b8035600781900b811461419757600080fd5b600060808284031215615cc957600080fd5b615cd161421e565b8235615cdc816143a1565b81526020830135615cec8161416e565b6020820152615cfd60408401615ca5565b60408201526151d860608401615ca5565b600060208284031215615d2057600080fd5b81516143d3816144f2565b63ffffffff828116828216039080821115610d8457610d846149bf565b6020808252602b908201527f496e697469616c697a61626c653a20636f6e7472616374206973206e6f74206960408201526a6e697469616c697a696e6760a81b606082015260800190565b6001600160a01b038316815260406020820181905260009061557190830184614552565b600082615dc657615dc6614c52565b500490565b600081600f0b60016001607f1b03198103615de857615de86149bf565b60000392915050565b602080825282518282018190526000919060409081850190868401855b82811015615e55578151805163ffffffff168552868101518786015285810151600f90810b87870152606091820151900b9085015260809093019290850190600101615e0e565b5091979650505050505050565b60008251615e7481846020870161452e565b919091019291505056fe4c696e6b5369676e657228627974657333322073656e6465722c62797465733332207369676e65722c75696e743634206e6f6e6365294275726e4c7028627974657333322073656e6465722c75696e7433322070726f6475637449642c75696e7431323820616d6f756e742c75696e743634206e6f6e6365296e6f20736c6f77206d6f6465207472616e73616374696f6e732072656d61696e696e674c69717569646174655375626163636f756e7428627974657333322073656e6465722c62797465733332206c6971756964617465652c75696e7438206d6f64652c75696e743332206865616c746847726f75702c696e7431323820616d6f756e742c75696e743634206e6f6e6365294d696e744c7028627974657333322073656e6465722c75696e7433322070726f6475637449642c75696e7431323820616d6f756e74426173652c75696e743132382071756f7465416d6f756e744c6f772c75696e743132382071756f7465416d6f756e74486967682c75696e743634206e6f6e6365295769746864726177436f6c6c61746572616c28627974657333322073656e6465722c75696e7433322070726f6475637449642c75696e7431323820616d6f756e742c75696e743634206e6f6e636529a2646970667358221220fa897cfb1c93d2d33f77f9345ee97e562f85b1cbaf641e3a883b45cfd1df89ec64736f6c63430008160033",
  "linkReferences": {},
  "deployedLinkReferences": {}
}