{
  "_format": "hh-sol-artifact-1",
  "contractName": "Endpoint",
  "sourceName": "contracts/Endpoint.sol",
  "abi": [
    {
      "anonymous": false,
      "inputs": [
        {
          "indexed": false,
          "internalType": "uint8",
          "name": "version",
          "type": "uint8"
        }
      ],
      "name": "Initialized",
      "type": "event"
    },
    {
      "anonymous": false,
      "inputs": [
        {
          "indexed": true,
          "internalType": "address",
          "name": "previousOwner",
          "type": "address"
        },
        {
          "indexed": true,
          "internalType": "address",
          "name": "newOwner",
          "type": "address"
        }
      ],
      "name": "OwnershipTransferred",
      "type": "event"
    },
    {
      "anonymous": false,
      "inputs": [],
      "name": "SubmitTransactions",
      "type": "event"
    },
    {
      "inputs": [],
      "name": "clearinghouse",
      "outputs": [
        {
          "internalType": "contract IClearinghouse",
          "name": "",
          "type": "address"
        }
      ],
      "stateMutability": "view",
      "type": "function"
    },
    {
      "inputs": [
        {
          "internalType": "bytes12",
          "name": "subaccountName",
          "type": "bytes12"
        },
        {
          "internalType": "uint32",
          "name": "productId",
          "type": "uint32"
        },
        {
          "internalType": "uint128",
          "name": "amount",
          "type": "uint128"
        }
      ],
      "name": "depositCollateral",
      "outputs": [],
      "stateMutability": "nonpayable",
      "type": "function"
    },
    {
      "inputs": [
        {
          "internalType": "bytes32",
          "name": "subaccount",
          "type": "bytes32"
        },
        {
          "internalType": "uint32",
          "name": "productId",
          "type": "uint32"
        },
        {
          "internalType": "uint128",
          "name": "amount",
          "type": "uint128"
        },
        {
          "internalType": "string",
          "name": "referralCode",
          "type": "string"
        }
      ],
      "name": "depositCollateralWithReferral",
      "outputs": [],
      "stateMutability": "nonpayable",
      "type": "function"
    },
    {
      "inputs": [
        {
          "internalType": "bytes12",
          "name": "subaccountName",
          "type": "bytes12"
        },
        {
          "internalType": "uint32",
          "name": "productId",
          "type": "uint32"
        },
        {
          "internalType": "uint128",
          "name": "amount",
          "type": "uint128"
        },
        {
          "internalType": "string",
          "name": "referralCode",
          "type": "string"
        }
      ],
      "name": "depositCollateralWithReferral",
      "outputs": [],
      "stateMutability": "nonpayable",
      "type": "function"
    },
    {
      "inputs": [
        {
          "internalType": "uint32",
          "name": "count",
          "type": "uint32"
        }
      ],
      "name": "executeSlowModeTransactions",
      "outputs": [],
      "stateMutability": "nonpayable",
      "type": "function"
    },
    {
      "inputs": [
        {
          "internalType": "uint32",
          "name": "productId",
          "type": "uint32"
        }
      ],
      "name": "getBook",
      "outputs": [
        {
          "internalType": "address",
          "name": "",
          "type": "address"
        }
      ],
      "stateMutability": "view",
      "type": "function"
    },
    {
      "inputs": [
        {
          "internalType": "bytes32",
          "name": "subaccount",
          "type": "bytes32"
        }
      ],
      "name": "getLinkedSigner",
      "outputs": [
        {
          "internalType": "address",
          "name": "",
          "type": "address"
        }
      ],
      "stateMutability": "view",
      "type": "function"
    },
    {
      "inputs": [
        {
          "internalType": "address",
          "name": "sender",
          "type": "address"
        }
      ],
      "name": "getNonce",
      "outputs": [
        {
          "internalType": "uint64",
          "name": "",
          "type": "uint64"
        }
      ],
      "stateMutability": "view",
      "type": "function"
    },
    {
      "inputs": [
        {
          "internalType": "uint32",
          "name": "productId",
          "type": "uint32"
        }
      ],
      "name": "getPriceX18",
      "outputs": [
        {
          "internalType": "int128",
          "name": "priceX18",
          "type": "int128"
        }
      ],
      "stateMutability": "view",
      "type": "function"
    },
    {
      "inputs": [
        {
          "internalType": "uint32",
          "name": "healthGroup",
          "type": "uint32"
        }
      ],
      "name": "getPricesX18",
      "outputs": [
        {
          "components": [
            {
              "internalType": "int128",
              "name": "spotPriceX18",
              "type": "int128"
            },
            {
              "internalType": "int128",
              "name": "perpPriceX18",
              "type": "int128"
            }
          ],
          "internalType": "struct IEndpoint.Prices",
          "name": "",
          "type": "tuple"
        }
      ],
      "stateMutability": "view",
      "type": "function"
    },
    {
      "inputs": [],
      "name": "getSequencer",
      "outputs": [
        {
          "internalType": "address",
          "name": "",
          "type": "address"
        }
      ],
      "stateMutability": "view",
      "type": "function"
    },
    {
      "inputs": [
        {
          "internalType": "bytes32",
          "name": "subaccount",
          "type": "bytes32"
        }
      ],
      "name": "getSubaccountId",
      "outputs": [
        {
          "internalType": "uint64",
          "name": "",
          "type": "uint64"
        }
      ],
      "stateMutability": "view",
      "type": "function"
    },
    {
      "inputs": [],
      "name": "getTime",
      "outputs": [
        {
          "internalType": "uint128",
          "name": "",
          "type": "uint128"
        }
      ],
      "stateMutability": "view",
      "type": "function"
    },
    {
      "inputs": [],
      "name": "getVersion",
      "outputs": [
        {
          "internalType": "uint64",
          "name": "",
          "type": "uint64"
        }
      ],
      "stateMutability": "pure",
      "type": "function"
    },
    {
      "inputs": [
        {
          "internalType": "address",
          "name": "_sanctions",
          "type": "address"
        },
        {
          "internalType": "address",
          "name": "_sequencer",
          "type": "address"
        },
        {
          "internalType": "contract IClearinghouse",
          "name": "_clearinghouse",
          "type": "address"
        },
        {
          "internalType": "uint64",
          "name": "slowModeTimeout",
          "type": "uint64"
        },
        {
          "internalType": "uint128",
          "name": "_time",
          "type": "uint128"
        },
        {
          "internalType": "int128[]",
          "name": "_prices",
          "type": "int128[]"
        }
      ],
      "name": "initialize",
      "outputs": [],
      "stateMutability": "nonpayable",
      "type": "function"
    },
    {
      "inputs": [],
      "name": "nSubmissions",
      "outputs": [
        {
          "internalType": "uint64",
          "name": "",
          "type": "uint64"
        }
      ],
      "stateMutability": "view",
      "type": "function"
    },
    {
      "inputs": [],
      "name": "owner",
      "outputs": [
        {
          "internalType": "address",
          "name": "",
          "type": "address"
        }
      ],
      "stateMutability": "view",
      "type": "function"
    },
    {
      "inputs": [
        {
          "internalType": "address",
          "name": "sender",
          "type": "address"
        },
        {
          "internalType": "bytes",
          "name": "transaction",
          "type": "bytes"
        }
      ],
      "name": "processSlowModeTransaction",
      "outputs": [],
      "stateMutability": "nonpayable",
      "type": "function"
    },
    {
      "inputs": [
        {
          "internalType": "address",
          "name": "",
          "type": "address"
        }
      ],
      "name": "referralCodes",
      "outputs": [
        {
          "internalType": "string",
          "name": "",
          "type": "string"
        }
      ],
      "stateMutability": "view",
      "type": "function"
    },
    {
      "inputs": [
        {
          "internalType": "address",
          "name": "wallet",
          "type": "address"
        },
        {
          "internalType": "bool",
          "name": "transferable",
          "type": "bool"
        }
      ],
      "name": "registerTransferableWallet",
      "outputs": [],
      "stateMutability": "nonpayable",
      "type": "function"
    },
    {
      "inputs": [],
      "name": "renounceOwnership",
      "outputs": [],
      "stateMutability": "nonpayable",
      "type": "function"
    },
    {
      "inputs": [
        {
          "internalType": "bytes32",
          "name": "subaccount",
          "type": "bytes32"
        }
      ],
      "name": "requireSubaccount",
      "outputs": [],
      "stateMutability": "view",
      "type": "function"
    },
    {
      "inputs": [
        {
          "internalType": "uint32",
          "name": "",
          "type": "uint32"
        }
      ],
      "name": "sequencerFee",
      "outputs": [
        {
          "internalType": "int128",
          "name": "",
          "type": "int128"
        }
      ],
      "stateMutability": "view",
      "type": "function"
    },
    {
      "inputs": [],
      "name": "sequencerFees",
      "outputs": [
        {
          "internalType": "int128",
          "name": "",
          "type": "int128"
        }
      ],
      "stateMutability": "view",
      "type": "function"
    },
    {
      "inputs": [
        {
          "internalType": "uint32",
          "name": "productId",
          "type": "uint32"
        },
        {
          "internalType": "address",
          "name": "book",
          "type": "address"
        }
      ],
      "name": "setBook",
      "outputs": [],
      "stateMutability": "nonpayable",
      "type": "function"
    },
    {
      "inputs": [
        {
          "internalType": "address",
          "name": "_sequencer",
          "type": "address"
        }
      ],
      "name": "setSequencer",
      "outputs": [],
      "stateMutability": "nonpayable",
      "type": "function"
    },
    {
      "inputs": [],
      "name": "slowModeConfig",
      "outputs": [
        {
          "internalType": "uint64",
          "name": "timeout",
          "type": "uint64"
        },
        {
          "internalType": "uint64",
          "name": "txCount",
          "type": "uint64"
        },
        {
          "internalType": "uint64",
          "name": "txUpTo",
          "type": "uint64"
        }
      ],
      "stateMutability": "view",
      "type": "function"
    },
    {
      "inputs": [
        {
          "internalType": "uint64",
          "name": "",
          "type": "uint64"
        }
      ],
      "name": "slowModeTxs",
      "outputs": [
        {
          "internalType": "uint64",
          "name": "executableAt",
          "type": "uint64"
        },
        {
          "internalType": "address",
          "name": "sender",
          "type": "address"
        },
        {
          "internalType": "bytes",
          "name": "tx",
          "type": "bytes"
        }
      ],
      "stateMutability": "view",
      "type": "function"
    },
    {
      "inputs": [
        {
          "internalType": "bytes",
          "name": "transaction",
          "type": "bytes"
        }
      ],
      "name": "submitSlowModeTransaction",
      "outputs": [],
      "stateMutability": "nonpayable",
      "type": "function"
    },
    {
      "inputs": [
        {
          "internalType": "bytes[]",
          "name": "transactions",
          "type": "bytes[]"
        }
      ],
      "name": "submitTransactions",
      "outputs": [],
      "stateMutability": "nonpayable",
      "type": "function"
    },
    {
      "inputs": [
        {
          "internalType": "uint64",
          "name": "idx",
          "type": "uint64"
        },
        {
          "internalType": "bytes[]",
          "name": "transactions",
          "type": "bytes[]"
        }
      ],
      "name": "submitTransactionsChecked",
      "outputs": [],
      "stateMutability": "nonpayable",
      "type": "function"
    },
    {
      "inputs": [
        {
          "internalType": "uint64",
          "name": "idx",
          "type": "uint64"
        },
        {
          "internalType": "bytes[]",
          "name": "transactions",
          "type": "bytes[]"
        },
        {
          "internalType": "uint256",
          "name": "gasLimit",
          "type": "uint256"
        }
      ],
      "name": "submitTransactionsCheckedWithGasLimit",
      "outputs": [
        {
          "internalType": "uint64",
          "name": "",
          "type": "uint64"
        },
        {
          "internalType": "uint256",
          "name": "",
          "type": "uint256"
        }
      ],
      "stateMutability": "nonpayable",
      "type": "function"
    },
    {
      "inputs": [
        {
          "internalType": "address",
          "name": "newOwner",
          "type": "address"
        }
      ],
      "name": "transferOwnership",
      "outputs": [],
      "stateMutability": "nonpayable",
      "type": "function"
    }
  ],
  "bytecode": "0x608060405234801561001057600080fd5b50615e3880620000216000396000f3fe608060405234801561001057600080fd5b50600436106101fb5760003560e01c8063715018a61161011a578063afa55dee116100ad578063d6473aaf1161007c578063d6473aaf1461059f578063e1a291a2146105b2578063e604ed9e146105c5578063e9bc7462146105d8578063f2fde38b146105eb57600080fd5b8063afa55dee1461047d578063b8043ede146104fb578063cf8fdb091461054e578063cf987c9b1461057057600080fd5b806391c1e3d7116100e957806391c1e3d7146103fe5780639534dd3e14610427578063a53051bc14610447578063ae3a86521461045a57600080fd5b8063715018a6146103bf57806387324338146103c75780638da5cb5b146103da5780638e5d588c146103eb57600080fd5b80632d0335ab116101925780634d96a90a116101615780634d96a90a14610354578063557ed1ba146103795780635d4f5f97146103995780636cfe5fe4146103ac57600080fd5b80632d0335ab146102ca5780632f9a2744146102fc578063368e46861461032e57806339a135e71461034157600080fd5b8063221f0939116101ce578063221f09391461026857806322d4a82d1461027b5780632547fa3e146102a45780632715e15c146102b757600080fd5b80630d3ad039146102005780630d8e6e2c1461022557806318ed16eb146102405780631f186b2714610253575b600080fd5b609f5461020d90600f0b81565b604051600f9190910b81526020015b60405180910390f35b601a5b6040516001600160401b03909116815260200161021c565b60a654610228906001600160401b031681565b610266610261366004613f4e565b6105fe565b005b61026661027636600461412c565b6106e0565b6102286102893660046141a9565b600090815260a060205260409020546001600160401b031690565b6102666102b23660046141d7565b6109f0565b6102666102c5366004614212565b610a1a565b6102286102d83660046141d7565b6001600160a01b0316600090815260a560205260409020546001600160401b031690565b61030f61030a366004614264565b610a90565b604080516001600160401b03909316835260208301919091520161021c565b61020d61033c3660046142bd565b610bad565b61026661034f3660046142da565b610c58565b609e546001600160a01b03165b6040516001600160a01b03909116815260200161021c565b610381610cd7565b6040516001600160801b03909116815260200161021c565b609a54610361906001600160a01b031681565b6102666103ba366004614321565b610d65565b610266610d98565b6102666103d5366004614390565b610dac565b6067546001600160a01b0316610361565b6102666103f93660046143ef565b6113d4565b61036161040c3660046141a9565b600090815260ab60205260409020546001600160a01b031690565b61043a6104353660046141d7565b611424565b60405161021c9190614484565b610266610455366004614541565b6114be565b61020d6104683660046142bd565b60aa60205260009081526040902054600f0b81565b6104d961048b3660046142bd565b60408051808201909152600080825260208201525063ffffffff16600090815260a36020908152604091829020825180840190935254600f81810b8452600160801b909104900b9082015290565b604080518251600f90810b8252602093840151900b928101929092520161021c565b60a754610524906001600160401b0380821691600160401b8104821691600160801b9091041683565b604080516001600160401b039485168152928416602084015292169181019190915260600161021c565b61056161055c3660046145d5565b61193b565b60405161021c939291906145f0565b61036161057e3660046142bd565b63ffffffff16600090815260a460205260409020546001600160a01b031690565b6102666105ad3660046141a9565b6119fc565b6102666105c03660046142bd565b611a52565b6102666105d336600461462c565b611b5e565b6102666105e6366004614661565b611f26565b6102666105f93660046141d7565b611f99565b610606612012565b60005b6001600160801b03811682111561066d573660008484846001600160801b0316818110610638576106386146d8565b905060200281019061064a91906146ee565b915091506106588282612029565b505080806106659061474a565b915050610609565b5060a6805482919060009061068c9084906001600160401b0316614770565b92506101000a8154816001600160401b0302191690836001600160401b031602179055507faf5fe0f6a71d2001d425268bf9b9f279a74a1cae4d8a0871cc331dae22b7608760405160405180910390a15050565b805160408051808201909152600381526249524360e81b6020820152906107235760405162461bcd60e51b815260040161071a9190614484565b60405180910390fd5b50606084901c6107323361314b565b61073b8161314b565b610775816001600160a01b038116331461076f57604051806040016040528060028152602001612d3160f01b8152506131f3565b836131f3565b609b546040516338d0dce360e21b815263ffffffff861660048201526000916001600160a01b03169063e343738c9060240160a060405180830381865afa1580156107c4573d6000803e3d6000fd5b505050506040513d601f19601f820116820180604052508101906107e89190614790565b5190506001600160a01b0381166107fe57600080fd5b6108128133866001600160801b0316613241565b6040805160608101825260a7546001600160401b038082168352600160401b820481166020840152600160801b909104169181019190915260006108564282614770565b604080516060810182526001600160401b03831681526001600160a01b03871660208201529192508101600160405180606001604052808c81526020018b63ffffffff1681526020018a6001600160801b03168152506040516020016108e791908151815260208083015163ffffffff16908201526040918201516001600160801b03169181019190915260600190565b60408051601f19818403018152908290526109059291602001614820565b60405160208183030381529060405281525060a8600084602001805180919061092d9061484f565b6001600160401b039081169091529081168252602080830193909352604091820160002084518154948601516001600160a01b0316600160401b026001600160e01b0319909516921691909117929092178255820151600182019061099290826148f5565b5050825160a7805460208601516040909601516001600160401b03908116600160801b0267ffffffffffffffff60801b19978216600160401b026001600160801b031990931691909416171794909416179092555050505050505050565b6109f8613264565b609e80546001600160a01b0319166001600160a01b0392909216919091179055565b610a22612012565b60a6546040805180820190915260188152770d2dcecc2d8d2c840e6eac4dad2e6e6d2dedc40d2dcc8caf60431b6020820152906001600160401b03858116911614610a805760405162461bcd60e51b815260040161071a9190614484565b50610a8b82826105fe565b505050565b60008060005a9050610aa0612012565b60a6546040805180820190915260188152770d2dcecc2d8d2c840e6eac4dad2e6e6d2dedc40d2dcc8caf60431b6020820152906001600160401b03898116911614610afe5760405162461bcd60e51b815260040161071a9190614484565b5060005b6001600160801b038116861115610b91573660008888846001600160801b0316818110610b3157610b316146d8565b9050602002810190610b4391906146ee565b91509150610b518282612029565b865a610b5d90866149b4565b1115610b7c57825a610b6f90866149b4565b9550955050505050610ba4565b50508080610b899061474a565b915050610b02565b50845a610b9e90836149b4565b92509250505b94509492505050565b600080610bb9836132be565b9050610bc66002846149dd565b63ffffffff16600103610bf35763ffffffff8116600090815260a36020526040902054600f0b9150610c16565b63ffffffff8116600090815260a36020526040902054600160801b9004600f0b91505b604080518082019091526002815261049560f41b6020820152600f83900b610c515760405162461bcd60e51b815260040161071a9190614484565b5050919050565b609a5460408051808201909152600581526427a1a1a9a160d91b6020820152906001600160a01b03163314610ca05760405162461bcd60e51b815260040161071a9190614484565b5063ffffffff91909116600090815260a46020526040902080546001600160a01b0319166001600160a01b03909216919091179055565b6040805180820190915260a9546001600160801b03808216808452600160801b909204166020830181905260009291839111610d14578151610d1a565b81602001515b60408051808201909152600381526249544960e81b60208201529091506001600160801b038216610d5e5760405162461bcd60e51b815260040161071a9190614484565b5092915050565b610d6d613264565b6001600160a01b0391909116600090815260ae60205260409020805460ff1916911515919091179055565b610da0613264565b610daa600061331e565b565b333014610db857600080fd5b600082826000818110610dcd57610dcd6146d8565b919091013560f81c90506015811115610de857610de861480a565b90506000816015811115610dfe57610dfe61480a565b03610ea2576000610e128360018187614a00565b810190610e1f9190614aaa565b9050610e2f816000015186613370565b8051610e3a906119fc565b609a54604051630fba311360e21b81526001600160a01b0390911690633ee8c44c90610e6a908490600401614ac6565b600060405180830381600087803b158015610e8457600080fd5b505af1158015610e98573d6000803e3d6000fd5b50505050506113ce565b6001816015811115610eb657610eb661480a565b03610f46576000610eca8360018187614a00565b810190610ed79190614b1f565b9050610ee7816000015186613370565b8051610ef2906133ce565b609a54604080516333938b9160e11b815283516004820152602084015163ffffffff166024820152908301516001600160801b031660448201526001600160a01b0390911690636727172290606401610e6a565b6002816015811115610f5a57610f5a61480a565b03610fbb576000610f6e8360018187614a00565b810190610f7b9190614bc3565b9050610f8b816000015186613370565b609a54604051630c354dd960e41b81526001600160a01b039091169063c354dd9090610e6a908490600401614bdf565b6005816015811115610fcf57610fcf61480a565b03611021576000610fe38360018187614a00565b810190610ff09190614c81565b609a5460405163b2bb636760e01b81529192506001600160a01b03169063b2bb636790610e6a908490600401614d65565b60078160158111156110355761103561480a565b036110915760006110498360018187614a00565b8101906110569190614e27565b609a54604051633a91c58b60e01b815282516001600160801b031660048201529192506001600160a01b031690633a91c58b90602401610e6a565b60098160158111156110a5576110a561480a565b036111065760006110b98360018187614a00565b8101906110c69190614ea4565b90506110d6816000015186613370565b609a546040516351e817d360e11b81526001600160a01b039091169063a3d02fa690610e6a908490600401614ec0565b600a81601581111561111a5761111a61480a565b0361117b57600061112e8360018187614a00565b81019061113b9190614bc3565b905061114b816000015186613370565b609a5460405163bf1fb32160e01b81526001600160a01b039091169063bf1fb32190610e6a908490600401614bdf565b600b81601581111561118f5761118f61480a565b0361123c5760006111a38360018187614a00565b8101906111b09190614f24565b90506111c0816000015186613370565b80516111cb906119fc565b6020818101805163ffffffff908116600090815260a4909352604092839020548351630f4b509d60e01b8152855160048201529251909116602483015291830151600f90810b60448301526060840151900b60648201526001600160a01b0390911690630f4b509d90608401610e6a565b60128160158111156112505761125061480a565b036112a65760006112648360018187614a00565b8101906112719190614fa2565b8051602082015160405163c9fe9ac360e01b81529293506001600160a01b039091169163c9fe9ac391610e6a91600401614484565b60138160158111156112ba576112ba61480a565b0361131e5760006112ce8360018187614a00565b8101906112db9190615062565b90506112eb816000015186613370565b6020808201519151600090815260ab9091526040902080546001600160a01b03191660609290921c9190911790556113ce565b60158160158111156113325761133261480a565b036101fb5760006113468360018187614a00565b810190611353919061507e565b9050611363816000015186613370565b61137081606001516133ce565b609a5460408051630748a21960e01b815283516004820152602084015163ffffffff166024820152908301516001600160801b03166044820152606083015160648201526001600160a01b0390911690630748a21990608401610e6a565b50505050565b610a8b33846040516020016113ea9291906150d4565b60405160208183030381529060405261140290615100565b8383604051806040016040528060028152602001612d3160f01b8152506106e0565b60ad602052600090815260409020805461143d9061486b565b80601f01602080910402602001604051908101604052809291908181526020018280546114699061486b565b80156114b65780601f1061148b576101008083540402835291602001916114b6565b820191906000526020600020905b81548152906001019060200180831161149957829003601f168201915b505050505081565b600054610100900460ff16158080156114de5750600054600160ff909116105b806114f85750303b1580156114f8575060005460ff166001145b61155b5760405162461bcd60e51b815260206004820152602e60248201527f496e697469616c697a61626c653a20636f6e747261637420697320616c72656160448201526d191e481a5b9a5d1a585b1a5e995960921b606482015260840161071a565b6000805460ff19166001179055801561157e576000805461ff0019166101001790555b61158661345d565b6115cb604051806040016040528060068152602001650accae4e8caf60d31b81525060405180604001604052806005815260200164302e302e3160d81b81525061348c565b609e80546001600160a01b038089166001600160a01b031992831617909255609a80548884169083168117909155609d8054938b1693909216929092179055604051635d2e9ad160e01b8152635d2e9ad19061162c90600090600401615124565b602060405180830381865afa158015611649573d6000803e3d6000fd5b505050506040513d601f19601f8201168201806040525081019061166d919061514c565b609b80546001600160a01b0319166001600160a01b03928316179055609a54604051635d2e9ad160e01b8152911690635d2e9ad1906116b190600190600401615124565b602060405180830381865afa1580156116ce573d6000803e3d6000fd5b505050506040513d601f19601f820116820180604052508101906116f2919061514c565b609c80546001600160a01b0319166001600160a01b03928316179055609a546040805163171755b160e01b81529051919092169163171755b19160048083019260209291908290030181865afa158015611750573d6000803e3d6000fd5b505050506040513d601f19601f82011682018060405250810190611774919061514c565b609980546001600160a01b0319166001600160a01b0392909216919091179055604080516060810182526001600160401b0386168082526000602080840182905292840181905260a780546001600160c01b03191690921790915582518084019093526001600160801b03861680845292909101829052600160801b820290911760a9555b82518163ffffffff1610156118eb57828163ffffffff1681518110611820576118206146d8565b602002602001015160a360006002846118399190615169565b63ffffffff168152602081019190915260400160002080546001600160801b0319166001600160801b03929092169190911790558261187982600161518c565b63ffffffff168151811061188f5761188f6146d8565b602002602001015160a360006002846118a89190615169565b63ffffffff168152602081019190915260400160002080546001600160801b03928316600160801b0292169190911790556118e460028261518c565b90506117f9565b508015611932576000805461ff0019169055604051600181527f7f26b83ff96e1f2b6a682f133852f6798a09c465da95921460cefb38474024989060200160405180910390a15b50505050505050565b60a860205260009081526040902080546001820180546001600160401b03831693600160401b9093046001600160a01b03169291906119799061486b565b80601f01602080910402602001604051908101604052809291908181526020018280546119a59061486b565b80156119f25780601f106119c7576101008083540402835291602001916119f2565b820191906000526020600020905b8154815290600101906020018083116119d557829003601f168201915b5050505050905083565b600081815260a060209081526040918290205482518084019093526002835261525360f01b918301919091526001600160401b0316611a4e5760405162461bcd60e51b815260040161071a9190614484565b5050565b6040805160608101825260a7546001600160401b038082168352600160401b8204811660208401819052600160801b909204169282018390529091611a96916151a9565b6001600160401b03168263ffffffff16111560405180604001604052806002815260200161494360f01b81525090611ae15760405162461bcd60e51b815260040161071a9190614484565b505b63ffffffff821615611b0a57611afa8160006134bd565b611b03826151c9565b9150611ae3565b805160a7805460208401516040909401516001600160401b03908116600160801b0267ffffffffffffffff60801b19958216600160401b026001600160801b03199093169190941617179290921617905550565b600082826000818110611b7357611b736146d8565b919091013560f81c90506015811115611b8e57611b8e61480a565b9050336001826015811115611ba557611ba561480a565b03611baf57600080fd5b6007826015811115611bc357611bc361480a565b03611c93576000611bd78460018188614a00565b810190611be49190614e27565b90506000609a60009054906101000a90046001600160a01b03166001600160a01b031663171755b16040518163ffffffff1660e01b8152600401602060405180830381865afa158015611c3b573d6000803e3d6000fd5b505050506040513d601f19601f82011682018060405250810190611c5f919061514c565b90506001600160a01b038116611c7457600080fd5b611c8c818484600001516001600160801b0316613241565b5050611d9e565b6012826015811115611ca757611ca761480a565b03611ccb576067546001600160a01b03828116911614611cc657600080fd5b611d9e565b6015826015811115611cdf57611cdf61480a565b03611d41576001600160a01b038116600090815260ae6020908152604091829020548251808401909352600383526215d39560ea1b9183019190915260ff16611d3b5760405162461bcd60e51b815260040161071a9190614484565b50611d9e565b609954611d5b906001600160a01b031682620f4240613728565b60ac8054620f42409190600090611d76908490600f0b6151e9565b92506101000a8154816001600160801b030219169083600f0b6001600160801b031602179055505b6040805160608101825260a7546001600160401b038082168352600160401b820481166020840152600160801b90910416918101919091526000611de5426203f480614770565b9050611df08361314b565b6040518060600160405280826001600160401b03168152602001846001600160a01b0316815260200187878080601f016020809104026020016040519081016040528093929190818152602001838380828437600092018290525093909452505060208501805160a8935090611e658261484f565b6001600160401b039081169091529081168252602080830193909352604091820160002084518154948601516001600160a01b0316600160401b026001600160e01b03199095169216919091179290921782558201516001820190611eca90826148f5565b5050825160a7805460208601516040909601516001600160401b03908116600160801b0267ffffffffffffffff60801b19978216600160401b026001600160801b03199093169190941617179490941617909255505050505050565b611f923386604051602001611f3c9291906150d4565b604051602081830303815290604052611f5490615100565b858585858080601f0160208091040260200160405190810160405280939291908181526020018383808284376000920191909152506106e092505050565b5050505050565b611fa1613264565b6001600160a01b0381166120065760405162461bcd60e51b815260206004820152602660248201527f4f776e61626c653a206e6577206f776e657220697320746865207a65726f206160448201526564647265737360d01b606482015260840161071a565b61200f8161331e565b50565b609e546001600160a01b03163314610daa57600080fd5b60008282600081811061203e5761203e6146d8565b919091013560f81c905060158111156120595761205961480a565b9050600081601581111561206f5761206f61480a565b036121f05760006120838360018187614a00565b810190612090919061521f565b8051805160a0909101519192506120a69161373d565b60006121506040518060a00160405280606f8152602001615ccf606f91398051602091820120845180518184015160408084015160608086015160808088015160a09889015186519b8c019a909a52948a01969096529088019390935260ff169286019290925263ffffffff1691840191909152600f0b60c08301526001600160401b031660e0820152610100015b604051602081830303815290604052805190602001206137d6565b8251516020840151919250612166918390613824565b815151612172906119fc565b81515161218790670de0b6b3a76400006138b2565b609a548251604051630fba311360e21b81526001600160a01b0390921691633ee8c44c916121b791600401614ac6565b600060405180830381600087803b1580156121d157600080fd5b505af11580156121e5573d6000803e3d6000fd5b505050505050505050565b60028160158111156122045761220461480a565b036123445760006122188360018187614a00565b81019061222591906152db565b8051805160609091015191925061223b9161373d565b60006122856040518060800160405280604f8152602001615db4604f9139805160209182012084518051818401516040808401516060909401519051612135969394929301615317565b82518051609b546020909201516040516303f7d28360e61b815263ffffffff90911660048201529293506123149290916001600160a01b03169063fdf4a0c090602401602060405180830381865afa1580156122e5573d6000803e3d6000fd5b505050506040513d601f19601f820116820180604052508101906123099190615352565b8451602001516138ba565b609a548251604051630c354dd960e41b81526001600160a01b039092169163c354dd90916121b791600401614bdf565b60038160158111156123585761235861480a565b0361244a57600061236c8360018187614a00565b8101906123799190614e27565b6040805180820190915260a9546001600160801b038082168352600160801b9091041660208201819052825192935090916000916123b69161536f565b609b546040516356b99dc760e11b81526001600160801b03831660048201529192506001600160a01b03169063ad733b8e90602401600060405180830381600087803b15801561240557600080fd5b505af1158015612419573d6000803e3d6000fd5b505093516001600160801b0390811660208501819052935116600160801b9093029290921760a95550610a8b915050565b600f81601581111561245e5761245e61480a565b036125505760006124728360018187614a00565b81019061247f919061538f565b6040805180820190915260a9546001600160801b03808216808452600160801b909204166020830152825192935090916000916124bb9161536f565b609c54602085015160405163339b7aed60e11b81529293506001600160a01b0390911691636736f5da916124f49185919060040161543c565b600060405180830381600087803b15801561250e57600080fd5b505af1158015612522573d6000803e3d6000fd5b505093516001600160801b0390811680855260209094015116600160801b0290921760a95550610a8b915050565b60048160158111156125645761256461480a565b036126765760006125788360018187614a00565b810190612585919061545e565b905060008160200151600f0b136040518060400160405280600381526020016224a82960e91b815250906125cc5760405162461bcd60e51b815260040161071a9190614484565b5060006125dc82600001516132be565b82519091506125ed906002906149dd565b63ffffffff166001036126385760208281015163ffffffff8316600090815260a3909252604090912080546001600160801b0319166001600160801b03909216919091179055611f92565b60208083015163ffffffff8316600090815260a3909252604090912080546001600160801b03928316600160801b0292169190911790555050505050565b600581601581111561268a5761268a61480a565b0361271457600061269e8360018187614a00565b8101906126ab9190614c81565b609a5460405163b2bb636760e01b81529192506001600160a01b03169063b2bb6367906126dc908490600401614d65565b600060405180830381600087803b1580156126f657600080fd5b505af115801561270a573d6000803e3d6000fd5b5050505050505050565b60068160158111156127285761272861480a565b036127ea57600061273c8360018187614a00565b810190612749919061553a565b6040810151515190915061275c906119fc565b6060810151515161276c906119fc565b6040805160608082018352838252838301515151600090815260ab6020818152858320546001600160a01b0390811682870152938701515151835290815284822054831684860152855163ffffffff16825260a4905283902054925163332ee3bf60e11b81529192169063665dc77e906121b790849060040161564f565b600c8160158111156127fe576127fe61480a565b0361288f5760006128128360018187614a00565b81019061281f91906156df565b60608101515151909150612832906119fc565b805163ffffffff16600090815260a4602090815260408083205460608501515151845260ab90925291829020549151633c7869e760e11b81526001600160a01b03918216926378f0d3ce926126dc92869290911690600401615769565b60088160158111156128a3576128a361480a565b03612941576040805160608101825260a7546001600160401b038082168352600160401b820481166020840152600160801b90910416918101919091526128eb8160016134bd565b805160a7805460208401516040909401516001600160401b03908116600160801b0267ffffffffffffffff60801b19958216600160401b026001600160801b031990931691909416171792909216179055505050565b60098160158111156129555761295561480a565b03612a7b5760006129698360018187614a00565b81019061297691906157c7565b8051805160a09091015191925061298c9161373d565b6000612a276040518060a0016040528060768152602001615d3e607691398051602091820120845180518184015160408084015160608086015160808088015160a09889015186519b8c019a909a52948a019690965263ffffffff909416908801526001600160801b0390811693870193909352908216928501929092521660c08301526001600160401b031660e082015261010001612135565b825151909150612a36906119fc565b815151612a4b90670de0b6b3a76400006138b2565b609a54825160405163e671b16b60e01b81526001600160a01b039092169163e671b16b916121b791600401614ec0565b600a816015811115612a8f57612a8f61480a565b03612b58576000612aa38360018187614a00565b810190612ab091906152db565b80518051606090910151919250612ac69161373d565b6000612b10604051806080016040528060438152602001615c6960439139805160209182012084518051818401516040808401516060909401519051612135969394929301615317565b825151909150612b2890670de0b6b3a76400006138b2565b609a54825160405163bf1fb32160e01b81526001600160a01b039092169163bf1fb321916121b791600401614bdf565b600d816015811115612b6c57612b6c61480a565b03612c6f57609a5460408051636bad77e160e01b815290516000926001600160a01b031691636bad77e19160048083019260209291908290030181865afa158015612bbb573d6000803e3d6000fd5b505050506040513d601f19601f82011682018060405250810190612bdf9190615816565b905060015b8163ffffffff168163ffffffff161015611f925763ffffffff8116600090815260a46020526040808220548151630e0f916b60e31b815291516001600160a01b039091169263707c8b58926004808201939182900301818387803b158015612c4b57600080fd5b505af1158015612c5f573d6000803e3d6000fd5b505060019092019150612be49050565b600e816015811115612c8357612c8361480a565b03612eaf576000612c978360018187614a00565b810190612ca49190615833565b90506000609b60009054906101000a90046001600160a01b03166001600160a01b03166347428e7b6040518163ffffffff1660e01b8152600401600060405180830381865afa158015612cfb573d6000803e3d6000fd5b505050506040513d6000823e601f3d908101601f19168201604052612d239190810190615857565b9050600081516001600160401b03811115612d4057612d40613fbd565b604051908082528060200260200182016040528015612d69578160200160208202803683370190505b50905060005b8251811015612e425760aa6000848381518110612d8e57612d8e6146d8565b602002602001015163ffffffff1663ffffffff16815260200190815260200160002060009054906101000a9004600f0b828281518110612dd057612dd06146d8565b6020026020010190600f0b9081600f0b81525050600060aa6000858481518110612dfc57612dfc6146d8565b60209081029190910181015163ffffffff16825281019190915260400160002080546001600160801b0319166001600160801b0392909216919091179055600101612d6f565b50609a5460405163781c857f60e11b81526001600160a01b039091169063f0390afe90612e7590869085906004016158f0565b600060405180830381600087803b158015612e8f57600080fd5b505af1158015612ea3573d6000803e3d6000fd5b50505050505050505050565b6010816015811115612ec357612ec361480a565b03612fab576000612ed78360018187614a00565b810190612ee4919061590a565b609c548151604051639b6f762b60e01b81529293506001600160a01b0390911691639b6f762b91612f17916004016159be565b60006040518083038186803b158015612f2f57600080fd5b505afa158015612f43573d6000803e3d6000fd5b5050609b546020840151604080860151905163030972b560e41b81526001600160a01b0390931694506330972b509350612f7f926004016159d1565b60006040518083038186803b158015612f9757600080fd5b505afa15801561270a573d6000803e3d6000fd5b6011816015811115612fbf57612fbf61480a565b14610a8b576013816015811115612fd857612fd861480a565b036130b6576000612fec8360018187614a00565b810190612ff991906159f6565b8051805160409091015191925061300f9161373d565b600061306b604051806060016040528060368152602001615c3360369139805160209182012084518051818401516040928301518351958601949094529184015260608301526001600160401b0316608082015260a001612135565b8251516020840151919250613081918390613824565b50516020808201519151600090815260ab9091526040902080546001600160a01b03191660609290921c919091179055505050565b60148160158111156130ca576130ca61480a565b036101fb5760006130de8360018187614a00565b8101906130eb9190615a6b565b609a54604080516335639a4f60e01b815283516001600160a01b039081166004830152602085015163ffffffff16602483015291840151600790810b60448301526060850151900b606482015292935016906335639a4f906084016126dc565b609d5460405163df592f7d60e01b81526001600160a01b0383811660048301529091169063df592f7d90602401602060405180830381865afa158015613195573d6000803e3d6000fd5b505050506040513d601f19601f820116820180604052508101906131b99190615ac2565b1560405180604001604052806002815260200161575360f01b81525090611a4e5760405162461bcd60e51b815260040161071a9190614484565b6001600160a01b038216600090815260ad6020526040902080546132169061486b565b9050600003611a4e576001600160a01b038216600090815260ad60205260409020610a8b82826148f5565b609a546132599084906001600160a01b0316836139db565b610a8b838383613728565b6067546001600160a01b03163314610daa5760405162461bcd60e51b815260206004820181905260248201527f4f776e61626c653a2063616c6c6572206973206e6f7420746865206f776e6572604482015260640161071a565b604080518082019091526004815263475a484760e01b602082015260009063ffffffff83166133005760405162461bcd60e51b815260040161071a9190614484565b50600261330e600184615adf565b6133189190615169565b92915050565b606780546001600160a01b038381166001600160a01b0319831681179093556040519116919082907f8be0079c531659141344cd1fd0a4f28419497f9722a3daafe3b4186f6b6457e090600090a35050565b606082901c6001600160a01b038216148061339357506001600160a01b03811630145b60405180604001604052806004815260200163534d575360e01b81525090610a8b5760405162461bcd60e51b815260040161071a9190614484565b600081815260a060205260408120546001600160401b0316900361200f5760a28054600090613405906001600160401b031661484f565b82546001600160401b039182166101009390930a8381029083021990911617909255600083815260a060209081526040808320805467ffffffffffffffff191690941790935560a254909316815260a1909252902055565b600054610100900460ff166134845760405162461bcd60e51b815260040161071a90615afc565b610daa613a4e565b600054610100900460ff166134b35760405162461bcd60e51b815260040161071a90615afc565b611a4e8282613a7e565b81602001516001600160401b031682604001516001600160401b031610604051806060016040528060238152602001615cac60239139906135115760405162461bcd60e51b815260040161071a9190614484565b506040828101516001600160401b03908116600090815260a86020908152838220845160608101865281549485168152600160401b9094046001600160a01b03169184019190915260018101805492949192918401916135709061486b565b80601f016020809104026020016040519081016040528092919081815260200182805461359c9061486b565b80156135e95780601f106135be576101008083540402835291602001916135e9565b820191906000526020600020905b8154815290600101906020018083116135cc57829003601f168201915b505050505081525050905060a8600084604001805180919061360a9061484f565b6001600160401b039081169091521681526020810191909152604001600090812080546001600160e01b0319168155906136476001830182613ebc565b5050818061366257504281600001516001600160401b031611155b6040518060400160405280600481526020016329aa2a2960e11b8152509061369d5760405162461bcd60e51b815260040161071a9190614484565b5060005a602083015160408085015190516310e6486760e31b815292935030926387324338926136d1929091600401615b47565b600060405180830381600087803b1580156136eb57600080fd5b505af19250505080156136fc575060015b6113ce57620186a05a11158061371c5750613718601082615b6b565b5a11155b1561372357fe5b6113ce565b610a8b6001600160a01b038416833084613abf565b606082901c600090815260a56020526040812080546001600160401b0316916137658361484f565b91906101000a8154816001600160401b0302191690836001600160401b031602179055506001600160401b0316816001600160401b031614604051806040016040528060028152602001612ba760f11b81525090610a8b5760405162461bcd60e51b815260040161071a9190614484565b60006133186137e3613bc8565b8360405161190160f01b6020820152602281018390526042810182905260009060620160405160208183030381529060405280519060200120905092915050565b60006138308383613c48565b90506001600160a01b0381161580159061387957506001600160a01b038116606085901c14806138795750600084815260ab60205260409020546001600160a01b038281169116145b60405180604001604052806002815260200161495360f01b81525090611f925760405162461bcd60e51b815260040161071a9190614484565b611a4e828260005b604080516001808252818301909252600091816020015b6040805160808101825260008082526020808301829052928201819052606082015282526000199092019101816138d157905050905060405180608001604052808363ffffffff1681526020018581526020018461392e90615b7f565b600f0b81526020016000600f0b81525081600081518110613951576139516146d8565b60209081029190910181019190915263ffffffff8316600090815260aa909152604081208054859290613988908490600f0b6151e9565b82546001600160801b039182166101009390930a928302919092021990911617905550609b54604051636c9a2ce360e01b81526001600160a01b0390911690636c9a2ce3906126dc908490600401615ba5565b604051633950935160e01b81526001600160a01b038381166004830152602482018390528416906339509351906044016020604051808303816000875af1158015613a2a573d6000803e3d6000fd5b505050506040513d601f19601f820116820180604052508101906113ce9190615ac2565b600054610100900460ff16613a755760405162461bcd60e51b815260040161071a90615afc565b610daa3361331e565b600054610100900460ff16613aa55760405162461bcd60e51b815260040161071a90615afc565b815160209283012081519190920120600191909155600255565b604080516001600160a01b0385811660248301528481166044830152606480830185905283518084039091018152608490920183526020820180516001600160e01b03166323b872dd60e01b1790529151600092839290881691613b239190615c16565b6000604051808303816000865af19150503d8060008114613b60576040519150601f19603f3d011682016040523d82523d6000602084013e613b65565b606091505b5091509150818015613b8f575080511580613b8f575080806020019051810190613b8f9190615ac2565b604051806040016040528060028152602001612a2360f11b815250906119325760405162461bcd60e51b815260040161071a9190614484565b6000613c437f8b73c3c69bb8fe3d512ecc4cf759cc79239f7b179b0ffacaa9a75d522b39400f613bf760015490565b6002546040805160208101859052908101839052606081018290524660808201523060a082015260009060c0016040516020818303038152906040528051906020012090509392505050565b905090565b6000806000613c578585613c6c565b91509150613c6481613cb1565b509392505050565b6000808251604103613ca25760208301516040840151606085015160001a613c9687828585613dfb565b94509450505050613caa565b506000905060025b9250929050565b6000816004811115613cc557613cc561480a565b03613ccd5750565b6001816004811115613ce157613ce161480a565b03613d2e5760405162461bcd60e51b815260206004820152601860248201527f45434453413a20696e76616c6964207369676e61747572650000000000000000604482015260640161071a565b6002816004811115613d4257613d4261480a565b03613d8f5760405162461bcd60e51b815260206004820152601f60248201527f45434453413a20696e76616c6964207369676e6174757265206c656e67746800604482015260640161071a565b6003816004811115613da357613da361480a565b0361200f5760405162461bcd60e51b815260206004820152602260248201527f45434453413a20696e76616c6964207369676e6174757265202773272076616c604482015261756560f01b606482015260840161071a565b6000807f7fffffffffffffffffffffffffffffff5d576e7357a4501ddfe92f46681b20a0831115613e325750600090506003610ba4565b6040805160008082526020820180845289905260ff881692820192909252606081018690526080810185905260019060a0016020604051602081039080840390855afa158015613e86573d6000803e3d6000fd5b5050604051601f1901519150506001600160a01b038116613eaf57600060019250925050610ba4565b9660009650945050505050565b508054613ec89061486b565b6000825580601f10613ed8575050565b601f01602090049060005260206000209081019061200f91905b80821115613f065760008155600101613ef2565b5090565b60008083601f840112613f1c57600080fd5b5081356001600160401b03811115613f3357600080fd5b6020830191508360208260051b8501011115613caa57600080fd5b60008060208385031215613f6157600080fd5b82356001600160401b03811115613f7757600080fd5b613f8385828601613f0a565b90969095509350505050565b63ffffffff8116811461200f57600080fd5b80356001600160801b0381168114613fb857600080fd5b919050565b634e487b7160e01b600052604160045260246000fd5b60405160a081016001600160401b0381118282101715613ff557613ff5613fbd565b60405290565b60405160c081016001600160401b0381118282101715613ff557613ff5613fbd565b604051606081016001600160401b0381118282101715613ff557613ff5613fbd565b604051608081016001600160401b0381118282101715613ff557613ff5613fbd565b604080519081016001600160401b0381118282101715613ff557613ff5613fbd565b604051602081016001600160401b0381118282101715613ff557613ff5613fbd565b604051601f8201601f191681016001600160401b03811182821017156140cd576140cd613fbd565b604052919050565b60006001600160401b038311156140ee576140ee613fbd565b614101601f8401601f19166020016140a5565b905082815283838301111561411557600080fd5b828260208301376000602084830101529392505050565b6000806000806080858703121561414257600080fd5b84359350602085013561415481613f8f565b925061416260408601613fa1565b915060608501356001600160401b0381111561417d57600080fd5b8501601f8101871361418e57600080fd5b61419d878235602084016140d5565b91505092959194509250565b6000602082840312156141bb57600080fd5b5035919050565b6001600160a01b038116811461200f57600080fd5b6000602082840312156141e957600080fd5b81356141f4816141c2565b9392505050565b80356001600160401b0381168114613fb857600080fd5b60008060006040848603121561422757600080fd5b614230846141fb565b925060208401356001600160401b0381111561424b57600080fd5b61425786828701613f0a565b9497909650939450505050565b6000806000806060858703121561427a57600080fd5b614283856141fb565b935060208501356001600160401b0381111561429e57600080fd5b6142aa87828801613f0a565b9598909750949560400135949350505050565b6000602082840312156142cf57600080fd5b81356141f481613f8f565b600080604083850312156142ed57600080fd5b82356142f881613f8f565b91506020830135614308816141c2565b809150509250929050565b801515811461200f57600080fd5b6000806040838503121561433457600080fd5b823561433f816141c2565b9150602083013561430881614313565b60008083601f84011261436157600080fd5b5081356001600160401b0381111561437857600080fd5b602083019150836020828501011115613caa57600080fd5b6000806000604084860312156143a557600080fd5b83356143b0816141c2565b925060208401356001600160401b038111156143cb57600080fd5b6142578682870161434f565b80356001600160a01b031981168114613fb857600080fd5b60008060006060848603121561440457600080fd5b61440d846143d7565b9250602084013561441d81613f8f565b915061442b60408501613fa1565b90509250925092565b60005b8381101561444f578181015183820152602001614437565b50506000910152565b60008151808452614470816020860160208601614434565b601f01601f19169290920160200192915050565b6020815260006141f46020830184614458565b60006001600160401b038211156144b0576144b0613fbd565b5060051b60200190565b80600f0b811461200f57600080fd5b600082601f8301126144da57600080fd5b813560206144ef6144ea83614497565b6140a5565b8083825260208201915060208460051b87010193508684111561451157600080fd5b602086015b84811015614536578035614529816144ba565b8352918301918301614516565b509695505050505050565b60008060008060008060c0878903121561455a57600080fd5b8635614565816141c2565b95506020870135614575816141c2565b94506040870135614585816141c2565b9350614593606088016141fb565b92506145a160808801613fa1565b915060a08701356001600160401b038111156145bc57600080fd5b6145c889828a016144c9565b9150509295509295509295565b6000602082840312156145e757600080fd5b6141f4826141fb565b6001600160401b03841681526001600160a01b038316602082015260606040820181905260009061462390830184614458565b95945050505050565b6000806020838503121561463f57600080fd5b82356001600160401b0381111561465557600080fd5b613f838582860161434f565b60008060008060006080868803121561467957600080fd5b614682866143d7565b9450602086013561469281613f8f565b93506146a060408701613fa1565b925060608601356001600160401b038111156146bb57600080fd5b6146c78882890161434f565b969995985093965092949392505050565b634e487b7160e01b600052603260045260246000fd5b6000808335601e1984360301811261470557600080fd5b8301803591506001600160401b0382111561471f57600080fd5b602001915036819003821315613caa57600080fd5b634e487b7160e01b600052601160045260246000fd5b60006001600160801b0380831681810361476657614766614734565b6001019392505050565b6001600160401b03818116838216019080821115610d5e57610d5e614734565b600060a082840312156147a257600080fd5b6147aa613fd3565b82516147b5816141c2565b815260208301516147c5816144ba565b602082015260408301516147d8816144ba565b604082015260608301516147eb816144ba565b606082015260808301516147fe816144ba565b60808201529392505050565b634e487b7160e01b600052602160045260246000fd5b60ff60f81b8360f81b16815260008251614841816001850160208701614434565b919091016001019392505050565b60006001600160401b0380831681810361476657614766614734565b600181811c9082168061487f57607f821691505b60208210810361489f57634e487b7160e01b600052602260045260246000fd5b50919050565b601f821115610a8b576000816000526020600020601f850160051c810160208610156148ce5750805b601f850160051c820191505b818110156148ed578281556001016148da565b505050505050565b81516001600160401b0381111561490e5761490e613fbd565b6149228161491c845461486b565b846148a5565b602080601f831160018114614957576000841561493f5750858301515b600019600386901b1c1916600185901b1785556148ed565b600085815260208120601f198616915b8281101561498657888601518255948401946001909101908401614967565b50858210156149a45787850151600019600388901b60f8161c191681555b5050505050600190811b01905550565b8181038181111561331857613318614734565b634e487b7160e01b600052601260045260246000fd5b600063ffffffff808416806149f4576149f46149c7565b92169190910692915050565b60008085851115614a1057600080fd5b83861115614a1d57600080fd5b5050820193919092039150565b600060c08284031215614a3c57600080fd5b614a44613ffb565b90508135815260208201356020820152604082013560ff81168114614a6857600080fd5b60408201526060820135614a7b81613f8f565b60608201526080820135614a8e816144ba565b6080820152614a9f60a083016141fb565b60a082015292915050565b600060c08284031215614abc57600080fd5b6141f48383614a2a565b600060c082019050825182526020830151602083015260ff604084015116604083015263ffffffff60608401511660608301526080830151600f0b60808301526001600160401b0360a08401511660a083015292915050565b600060608284031215614b3157600080fd5b614b3961401d565b823581526020830135614b4b81613f8f565b6020820152614b5c60408401613fa1565b60408201529392505050565b600060808284031215614b7a57600080fd5b614b8261403f565b9050813581526020820135614b9681613f8f565b6020820152614ba760408301613fa1565b6040820152614bb8606083016141fb565b606082015292915050565b600060808284031215614bd557600080fd5b6141f48383614b68565b8151815260208083015163ffffffff16908201526040808301516001600160801b0316908201526060808301516001600160401b03169082015260808101613318565b600082601f830112614c3357600080fd5b81356020614c436144ea83614497565b8083825260208201915060208460051b870101935086841115614c6557600080fd5b602086015b848110156145365780358352918301918301614c6a565b60006020808385031215614c9457600080fd5b82356001600160401b0380821115614cab57600080fd5b9084019060408287031215614cbf57600080fd5b614cc7614061565b823582811115614cd657600080fd5b8301601f81018813614ce757600080fd5b8035614cf56144ea82614497565b81815260059190911b8201860190868101908a831115614d1457600080fd5b928701925b82841015614d3257833582529287019290870190614d19565b84525050508284013582811115614d4857600080fd5b614d5488828601614c22565b948201949094529695505050505050565b6020808252825160408383015280516060840181905260009291820190839060808601905b80831015614daa5783518252928401926001929092019190840190614d8a565b5086840151868203601f190160408801528051808352908501935090840191506000905b80821015614dee5783518352928401929184019160019190910190614dce565b50909695505050505050565b600060208284031215614e0c57600080fd5b614e14614083565b9050614e1f82613fa1565b815292915050565b600060208284031215614e3957600080fd5b6141f48383614dfa565b600060c08284031215614e5557600080fd5b614e5d613ffb565b9050813581526020820135614e7181613f8f565b6020820152614e8260408301613fa1565b6040820152614e9360608301613fa1565b6060820152614a8e60808301613fa1565b600060c08284031215614eb657600080fd5b6141f48383614e43565b600060c0820190508251825263ffffffff602084015116602083015260408301516001600160801b03808216604085015280606086015116606085015280608086015116608085015250506001600160401b0360a08401511660a083015292915050565b600060808284031215614f3657600080fd5b614f3e61403f565b823581526020830135614f5081613f8f565b60208201526040830135614f63816144ba565b60408201526060830135614f76816144ba565b60608201529392505050565b600082601f830112614f9357600080fd5b6141f4838335602085016140d5565b600060208284031215614fb457600080fd5b81356001600160401b0380821115614fcb57600080fd5b9083019060408286031215614fdf57600080fd5b614fe7614061565b8235614ff2816141c2565b815260208301358281111561500657600080fd5b61501287828601614f82565b60208301525095945050505050565b60006060828403121561503357600080fd5b61503b61401d565b90508135815260208201356020820152615057604083016141fb565b604082015292915050565b60006060828403121561507457600080fd5b6141f48383615021565b60006080828403121561509057600080fd5b61509861403f565b8235815260208301356150aa81613f8f565b60208201526150bb60408401613fa1565b6040820152606083013560608201528091505092915050565b60609290921b6bffffffffffffffffffffffff191682526001600160a01b031916601482015260200190565b8051602080830151919081101561489f5760001960209190910360031b1b16919050565b602081016002831061514657634e487b7160e01b600052602160045260246000fd5b91905290565b60006020828403121561515e57600080fd5b81516141f4816141c2565b600063ffffffff80841680615180576151806149c7565b92169190910492915050565b63ffffffff818116838216019080821115610d5e57610d5e614734565b6001600160401b03828116828216039080821115610d5e57610d5e614734565b600063ffffffff8216806151df576151df614734565b6000190192915050565b600f81810b9083900b0160016001607f1b0381136f7fffffffffffffffffffffffffffffff198212171561331857613318614734565b60006020828403121561523157600080fd5b81356001600160401b038082111561524857600080fd5b9083019060e0828603121561525c57600080fd5b615264614061565b61526e8684614a2a565b815260c08301358281111561500657600080fd5b600060a0828403121561529457600080fd5b61529c614061565b90506152a88383614b68565b815260808201356001600160401b038111156152c357600080fd5b6152cf84828501614f82565b60208301525092915050565b6000602082840312156152ed57600080fd5b81356001600160401b0381111561530357600080fd5b61530f84828501615282565b949350505050565b948552602085019390935263ffffffff9190911660408401526001600160801b031660608301526001600160401b0316608082015260a00190565b60006020828403121561536457600080fd5b81516141f4816144ba565b6001600160801b03828116828216039080821115610d5e57610d5e614734565b6000602082840312156153a157600080fd5b81356001600160401b03808211156153b857600080fd5b90830190604082860312156153cc57600080fd5b6153d4614061565b6153dd83613fa1565b81526020830135828111156153f157600080fd5b615012878286016144c9565b60008151808452602080850194506020840160005b83811015615431578151600f0b87529582019590820190600101615412565b509495945050505050565b6001600160801b038316815260406020820152600061530f60408301846153fd565b60006040828403121561547057600080fd5b615478614061565b823561548381613f8f565b81526020830135615493816144ba565b60208201529392505050565b600081830360c08112156154b257600080fd5b6154ba614061565b915060a08112156154ca57600080fd5b506154d3613fd3565b8235815260208301356154e5816144ba565b602082015260408301356154f8816144ba565b6040820152615509606084016141fb565b606082015261551a608084016141fb565b6080820152815260a08201356001600160401b038111156152c357600080fd5b60006020828403121561554c57600080fd5b81356001600160401b038082111561556357600080fd5b908301906080828603121561557757600080fd5b61557f61403f565b823561558a81613f8f565b8152602083013561559a81614313565b60208201526040830135828111156155b157600080fd5b6155bd8782860161549f565b6040830152506060830135828111156155d557600080fd5b6155e18782860161549f565b60608301525095945050505050565b60008151805184526020810151600f0b60208501526040810151600f0b604085015260608101516001600160401b038082166060870152806080840151166080870152505050602082015160c060a085015261530f60c0850182614458565b60208152600082516060602084015263ffffffff81511660808401526020810151151560a08401526040810151608060c08501526156916101008501826155f0565b905060608201519150607f198482030160e08501526156b081836155f0565b91505060018060a01b0360208501511660408401526040840151613c6460608501826001600160a01b03169052565b6000602082840312156156f157600080fd5b81356001600160401b038082111561570857600080fd5b908301906080828603121561571c57600080fd5b61572461403f565b823561572f81613f8f565b8152602083013561573f816144ba565b60208201526040830135615752816144ba565b60408201526060830135828111156155d557600080fd5b6040815263ffffffff83511660408201526020830151600f0b60608201526040830151600f0b608082015260006060840151608060a08401526157af60c08401826155f0565b91505060018060a01b03831660208301529392505050565b6000602082840312156157d957600080fd5b81356001600160401b03808211156157f057600080fd5b9083019060e0828603121561580457600080fd5b61580c614061565b61526e8684614e43565b60006020828403121561582857600080fd5b81516141f481613f8f565b60006020828403121561584557600080fd5b61584d614083565b9135825250919050565b6000602080838503121561586a57600080fd5b82516001600160401b0381111561588057600080fd5b8301601f8101851361589157600080fd5b805161589f6144ea82614497565b81815260059190911b820183019083810190878311156158be57600080fd5b928401925b828410156158e55783516158d681613f8f565b825292840192908401906158c3565b979650505050505050565b8251815260406020820152600061530f60408301846153fd565b60006020828403121561591c57600080fd5b81356001600160401b038082111561593357600080fd5b908301906060828603121561594757600080fd5b61594f61401d565b82358281111561595e57600080fd5b61596a878286016144c9565b82525060208301358281111561597f57600080fd5b61598b878286016144c9565b6020830152506040830135828111156159a357600080fd5b6159af878286016144c9565b60408301525095945050505050565b6020815260006141f460208301846153fd565b6040815260006159e460408301856153fd565b828103602084015261462381856153fd565b600060208284031215615a0857600080fd5b81356001600160401b0380821115615a1f57600080fd5b9083019060808286031215615a3357600080fd5b615a3b614061565b615a458684615021565b815260608301358281111561500657600080fd5b8035600781900b8114613fb857600080fd5b600060808284031215615a7d57600080fd5b615a8561403f565b8235615a90816141c2565b81526020830135615aa081613f8f565b6020820152615ab160408401615a59565b6040820152614f7660608401615a59565b600060208284031215615ad457600080fd5b81516141f481614313565b63ffffffff828116828216039080821115610d5e57610d5e614734565b6020808252602b908201527f496e697469616c697a61626c653a20636f6e7472616374206973206e6f74206960408201526a6e697469616c697a696e6760a81b606082015260800190565b6001600160a01b038316815260406020820181905260009061530f90830184614458565b600082615b7a57615b7a6149c7565b500490565b600081600f0b60016001607f1b03198103615b9c57615b9c614734565b60000392915050565b602080825282518282018190526000919060409081850190868401855b82811015615c09578151805163ffffffff168552868101518786015285810151600f90810b87870152606091820151900b9085015260809093019290850190600101615bc2565b5091979650505050505050565b60008251615c28818460208701614434565b919091019291505056fe4c696e6b5369676e657228627974657333322073656e6465722c62797465733332207369676e65722c75696e743634206e6f6e6365294275726e4c7028627974657333322073656e6465722c75696e7433322070726f6475637449642c75696e7431323820616d6f756e742c75696e743634206e6f6e6365296e6f20736c6f77206d6f6465207472616e73616374696f6e732072656d61696e696e674c69717569646174655375626163636f756e7428627974657333322073656e6465722c62797465733332206c6971756964617465652c75696e7438206d6f64652c75696e743332206865616c746847726f75702c696e7431323820616d6f756e742c75696e743634206e6f6e6365294d696e744c7028627974657333322073656e6465722c75696e7433322070726f6475637449642c75696e7431323820616d6f756e74426173652c75696e743132382071756f7465416d6f756e744c6f772c75696e743132382071756f7465416d6f756e74486967682c75696e743634206e6f6e6365295769746864726177436f6c6c61746572616c28627974657333322073656e6465722c75696e7433322070726f6475637449642c75696e7431323820616d6f756e742c75696e743634206e6f6e636529a2646970667358221220b648df72ac56434cf052dcacd14e286f715e9e3fc5908fc8fcc5512a5437e16c64736f6c63430008160033",
  "linkReferences": {},
  "deployedLinkReferences": {}
}