{
  "_format": "hh-sol-artifact-1",
  "contractName": "SanctionedList",
  "sourceName": "contracts/SanctionsList.sol",
  "abi": [
    {
      "inputs": [
        {
          "internalType": "address",
          "name": "addr",
          "type": "address"
        }
      ],
      "name": "isSanctioned",
      "outputs": [
        {
          "internalType": "bool",
          "name": "",
          "type": "bool"
        }
      ],
      "stateMutability": "view",
      "type": "function"
    }
  ],
  "bytecode": "0x608060405234801561001057600080fd5b5060ce8061001f6000396000f3fe6080604052348015600f57600080fd5b506004361060285760003560e01c8063df592f7d14602d575b600080fd5b60566038366004606a565b6001600160a01b031660009081526020819052604090205460ff1690565b604051901515815260200160405180910390f35b600060208284031215607b57600080fd5b81356001600160a01b0381168114609157600080fd5b939250505056fea2646970667358221220e12b1de92e17eb9f01ca5dd1fccd0bcc4dd465b9119a452f6e4519500972eac664736f6c63430008160033",
  "linkReferences": {},
  "deployedLinkReferences": {}
}